{
  "address": "0xEc05AE7F013A66725A846C4c85617a418e3AEA8e",
  "abi": [
    {
      "inputs": [
        {
          "internalType": "contract IENS",
          "name": "_ens",
          "type": "address"
        },
        {
          "internalType": "bytes32",
          "name": "_baseNode",
          "type": "bytes32"
        },
        {
          "internalType": "contract INoNameCollisions",
          "name": "_noNameCollisionsContract",
          "type": "address"
        }
      ],
      "stateMutability": "nonpayable",
      "type": "constructor"
    },
    {
      "anonymous": false,
      "inputs": [
        {
          "indexed": true,
          "internalType": "address",
          "name": "owner",
          "type": "address"
        },
        {
          "indexed": true,
          "internalType": "address",
          "name": "approved",
          "type": "address"
        },
        {
          "indexed": true,
          "internalType": "uint256",
          "name": "tokenId",
          "type": "uint256"
        }
      ],
      "name": "Approval",
      "type": "event"
    },
    {
      "anonymous": false,
      "inputs": [
        {
          "indexed": true,
          "internalType": "address",
          "name": "owner",
          "type": "address"
        },
        {
          "indexed": true,
          "internalType": "address",
          "name": "operator",
          "type": "address"
        },
        {
          "indexed": false,
          "internalType": "bool",
          "name": "approved",
          "type": "bool"
        }
      ],
      "name": "ApprovalForAll",
      "type": "event"
    },
    {
      "anonymous": false,
      "inputs": [
        {
          "indexed": true,
          "internalType": "address",
          "name": "controller",
          "type": "address"
        }
      ],
      "name": "ControllerAdded",
      "type": "event"
    },
    {
      "anonymous": false,
      "inputs": [
        {
          "indexed": true,
          "internalType": "address",
          "name": "controller",
          "type": "address"
        }
      ],
      "name": "ControllerRemoved",
      "type": "event"
    },
    {
      "anonymous": false,
      "inputs": [
        {
          "indexed": true,
          "internalType": "string",
          "name": "name",
          "type": "string"
        },
        {
          "indexed": true,
          "internalType": "uint256",
          "name": "id",
          "type": "uint256"
        },
        {
          "indexed": true,
          "internalType": "address",
          "name": "owner",
          "type": "address"
        },
        {
          "indexed": false,
          "internalType": "uint256",
          "name": "expires",
          "type": "uint256"
        }
      ],
      "name": "NameRegistered",
      "type": "event"
    },
    {
      "anonymous": false,
      "inputs": [
        {
          "indexed": true,
          "internalType": "uint256",
          "name": "id",
          "type": "uint256"
        },
        {
          "indexed": false,
          "internalType": "uint256",
          "name": "expires",
          "type": "uint256"
        }
      ],
      "name": "NameRenewed",
      "type": "event"
    },
    {
      "anonymous": false,
      "inputs": [
        {
          "indexed": true,
          "internalType": "address",
          "name": "previousOwner",
          "type": "address"
        },
        {
          "indexed": true,
          "internalType": "address",
          "name": "newOwner",
          "type": "address"
        }
      ],
      "name": "OwnershipTransferred",
      "type": "event"
    },
    {
      "anonymous": false,
      "inputs": [
        {
          "indexed": true,
          "internalType": "address",
          "name": "from",
          "type": "address"
        },
        {
          "indexed": true,
          "internalType": "address",
          "name": "to",
          "type": "address"
        },
        {
          "indexed": true,
          "internalType": "uint256",
          "name": "tokenId",
          "type": "uint256"
        }
      ],
      "name": "Transfer",
      "type": "event"
    },
    {
      "inputs": [],
      "name": "GRACE_PERIOD",
      "outputs": [
        {
          "internalType": "uint256",
          "name": "",
          "type": "uint256"
        }
      ],
      "stateMutability": "view",
      "type": "function"
    },
    {
      "inputs": [
        {
          "internalType": "address",
          "name": "controller",
          "type": "address"
        }
      ],
      "name": "addController",
      "outputs": [],
      "stateMutability": "nonpayable",
      "type": "function"
    },
    {
      "inputs": [
        {
          "internalType": "address",
          "name": "to",
          "type": "address"
        },
        {
          "internalType": "uint256",
          "name": "tokenId",
          "type": "uint256"
        }
      ],
      "name": "approve",
      "outputs": [],
      "stateMutability": "nonpayable",
      "type": "function"
    },
    {
      "inputs": [
        {
          "internalType": "uint256",
          "name": "id",
          "type": "uint256"
        }
      ],
      "name": "available",
      "outputs": [
        {
          "internalType": "bool",
          "name": "",
          "type": "bool"
        }
      ],
      "stateMutability": "view",
      "type": "function"
    },
    {
      "inputs": [
        {
          "internalType": "address",
          "name": "owner",
          "type": "address"
        }
      ],
      "name": "balanceOf",
      "outputs": [
        {
          "internalType": "uint256",
          "name": "",
          "type": "uint256"
        }
      ],
      "stateMutability": "view",
      "type": "function"
    },
    {
      "inputs": [],
      "name": "baseNode",
      "outputs": [
        {
          "internalType": "bytes32",
          "name": "",
          "type": "bytes32"
        }
      ],
      "stateMutability": "view",
      "type": "function"
    },
    {
      "inputs": [
        {
          "internalType": "address",
          "name": "",
          "type": "address"
        }
      ],
      "name": "controllers",
      "outputs": [
        {
          "internalType": "bool",
          "name": "",
          "type": "bool"
        }
      ],
      "stateMutability": "view",
      "type": "function"
    },
    {
      "inputs": [],
      "name": "ens",
      "outputs": [
        {
          "internalType": "contract IENS",
          "name": "",
          "type": "address"
        }
      ],
      "stateMutability": "view",
      "type": "function"
    },
    {
      "inputs": [
        {
          "internalType": "uint256",
          "name": "",
          "type": "uint256"
        }
      ],
      "name": "expiries",
      "outputs": [
        {
          "internalType": "uint256",
          "name": "",
          "type": "uint256"
        }
      ],
      "stateMutability": "view",
      "type": "function"
    },
    {
      "inputs": [
        {
          "internalType": "uint256",
          "name": "tokenId",
          "type": "uint256"
        }
      ],
      "name": "getApproved",
      "outputs": [
        {
          "internalType": "address",
          "name": "",
          "type": "address"
        }
      ],
      "stateMutability": "view",
      "type": "function"
    },
    {
      "inputs": [
        {
          "internalType": "string",
          "name": "label",
          "type": "string"
        }
      ],
      "name": "getLabelId",
      "outputs": [
        {
          "internalType": "uint256",
          "name": "",
          "type": "uint256"
        }
      ],
      "stateMutability": "pure",
      "type": "function"
    },
    {
      "inputs": [
        {
          "internalType": "address",
          "name": "owner",
          "type": "address"
        },
        {
          "internalType": "address",
          "name": "operator",
          "type": "address"
        }
      ],
      "name": "isApprovedForAll",
      "outputs": [
        {
          "internalType": "bool",
          "name": "",
          "type": "bool"
        }
      ],
      "stateMutability": "view",
      "type": "function"
    },
    {
      "inputs": [],
      "name": "mintedDomainNamesContract",
      "outputs": [
        {
          "internalType": "contract IMintedDomainNames",
          "name": "",
          "type": "address"
        }
      ],
      "stateMutability": "view",
      "type": "function"
    },
    {
      "inputs": [],
      "name": "name",
      "outputs": [
        {
          "internalType": "string",
          "name": "",
          "type": "string"
        }
      ],
      "stateMutability": "view",
      "type": "function"
    },
    {
      "inputs": [
        {
          "internalType": "uint256",
          "name": "id",
          "type": "uint256"
        }
      ],
      "name": "nameExpires",
      "outputs": [
        {
          "internalType": "uint256",
          "name": "",
          "type": "uint256"
        }
      ],
      "stateMutability": "view",
      "type": "function"
    },
    {
      "inputs": [],
      "name": "noNameCollisionsContract",
      "outputs": [
        {
          "internalType": "contract INoNameCollisions",
          "name": "",
          "type": "address"
        }
      ],
      "stateMutability": "view",
      "type": "function"
    },
    {
      "inputs": [],
      "name": "owner",
      "outputs": [
        {
          "internalType": "address",
          "name": "",
          "type": "address"
        }
      ],
      "stateMutability": "view",
      "type": "function"
    },
    {
      "inputs": [
        {
          "internalType": "uint256",
          "name": "tokenId",
          "type": "uint256"
        }
      ],
      "name": "ownerOf",
      "outputs": [
        {
          "internalType": "address",
          "name": "",
          "type": "address"
        }
      ],
      "stateMutability": "view",
      "type": "function"
    },
    {
      "inputs": [
        {
          "internalType": "uint256",
          "name": "id",
          "type": "uint256"
        },
        {
          "internalType": "address",
          "name": "owner",
          "type": "address"
        }
      ],
      "name": "reclaim",
      "outputs": [],
      "stateMutability": "nonpayable",
      "type": "function"
    },
    {
      "inputs": [
        {
          "internalType": "string",
          "name": "label",
          "type": "string"
        },
        {
          "internalType": "address",
          "name": "owner",
          "type": "address"
        },
        {
          "internalType": "uint256",
          "name": "duration",
          "type": "uint256"
        }
      ],
      "name": "register",
      "outputs": [
        {
          "internalType": "uint256",
          "name": "",
          "type": "uint256"
        }
      ],
      "stateMutability": "nonpayable",
      "type": "function"
    },
    {
      "inputs": [
        {
          "internalType": "string",
          "name": "label",
          "type": "string"
        },
        {
          "internalType": "address",
          "name": "owner",
          "type": "address"
        },
        {
          "internalType": "uint256",
          "name": "duration",
          "type": "uint256"
        }
      ],
      "name": "registerOnly",
      "outputs": [
        {
          "internalType": "uint256",
          "name": "",
          "type": "uint256"
        }
      ],
      "stateMutability": "nonpayable",
      "type": "function"
    },
    {
      "inputs": [
        {
          "internalType": "address",
          "name": "controller",
          "type": "address"
        }
      ],
      "name": "removeController",
      "outputs": [],
      "stateMutability": "nonpayable",
      "type": "function"
    },
    {
      "inputs": [
        {
          "internalType": "uint256",
          "name": "id",
          "type": "uint256"
        },
        {
          "internalType": "uint256",
          "name": "duration",
          "type": "uint256"
        }
      ],
      "name": "renew",
      "outputs": [
        {
          "internalType": "uint256",
          "name": "",
          "type": "uint256"
        }
      ],
      "stateMutability": "nonpayable",
      "type": "function"
    },
    {
      "inputs": [],
      "name": "renounceOwnership",
      "outputs": [],
      "stateMutability": "nonpayable",
      "type": "function"
    },
    {
      "inputs": [
        {
          "internalType": "address",
          "name": "from",
          "type": "address"
        },
        {
          "internalType": "address",
          "name": "to",
          "type": "address"
        },
        {
          "internalType": "uint256",
          "name": "tokenId",
          "type": "uint256"
        }
      ],
      "name": "safeTransferFrom",
      "outputs": [],
      "stateMutability": "nonpayable",
      "type": "function"
    },
    {
      "inputs": [
        {
          "internalType": "address",
          "name": "from",
          "type": "address"
        },
        {
          "internalType": "address",
          "name": "to",
          "type": "address"
        },
        {
          "internalType": "uint256",
          "name": "tokenId",
          "type": "uint256"
        },
        {
          "internalType": "bytes",
          "name": "data",
          "type": "bytes"
        }
      ],
      "name": "safeTransferFrom",
      "outputs": [],
      "stateMutability": "nonpayable",
      "type": "function"
    },
    {
      "inputs": [
        {
          "internalType": "address",
          "name": "operator",
          "type": "address"
        },
        {
          "internalType": "bool",
          "name": "approved",
          "type": "bool"
        }
      ],
      "name": "setApprovalForAll",
      "outputs": [],
      "stateMutability": "nonpayable",
      "type": "function"
    },
    {
      "inputs": [
        {
          "internalType": "address",
          "name": "resolver",
          "type": "address"
        }
      ],
      "name": "setResolver",
      "outputs": [],
      "stateMutability": "nonpayable",
      "type": "function"
    },
    {
      "inputs": [
        {
          "internalType": "bytes4",
          "name": "interfaceID",
          "type": "bytes4"
        }
      ],
      "name": "supportsInterface",
      "outputs": [
        {
          "internalType": "bool",
          "name": "",
          "type": "bool"
        }
      ],
      "stateMutability": "pure",
      "type": "function"
    },
    {
      "inputs": [],
      "name": "symbol",
      "outputs": [
        {
          "internalType": "string",
          "name": "",
          "type": "string"
        }
      ],
      "stateMutability": "view",
      "type": "function"
    },
    {
      "inputs": [
        {
          "internalType": "uint256",
          "name": "tokenId",
          "type": "uint256"
        }
      ],
      "name": "tokenURI",
      "outputs": [
        {
          "internalType": "string",
          "name": "",
          "type": "string"
        }
      ],
      "stateMutability": "view",
      "type": "function"
    },
    {
      "inputs": [
        {
          "internalType": "address",
          "name": "from",
          "type": "address"
        },
        {
          "internalType": "address",
          "name": "to",
          "type": "address"
        },
        {
          "internalType": "uint256",
          "name": "tokenId",
          "type": "uint256"
        }
      ],
      "name": "transferFrom",
      "outputs": [],
      "stateMutability": "nonpayable",
      "type": "function"
    },
    {
      "inputs": [
        {
          "internalType": "address",
          "name": "newOwner",
          "type": "address"
        }
      ],
      "name": "transferOwnership",
      "outputs": [],
      "stateMutability": "nonpayable",
      "type": "function"
    },
    {
      "inputs": [
        {
          "internalType": "contract IMintedDomainNames",
          "name": "newContract",
          "type": "address"
        }
      ],
      "name": "updateMintedDomainNamesContract",
      "outputs": [],
      "stateMutability": "nonpayable",
      "type": "function"
    },
    {
      "inputs": [
        {
          "internalType": "contract INoNameCollisions",
          "name": "newContract",
          "type": "address"
        }
      ],
      "name": "updateNoNameCollisionContract",
      "outputs": [],
      "stateMutability": "nonpayable",
      "type": "function"
    }
  ],
  "bytecode": {
    "object": "0x60806040523480156200001157600080fd5b506040516200255e3803806200255e833981016040819052620000349162000130565b60408051602080820183526000808352835191820190935282815290916200005d83826200021d565b5060016200006c82826200021d565b5050506200008962000083620000c160201b60201c565b620000c5565b600880546001600160a01b039485166001600160a01b031991821617909155600992909255600b8054919093169116179055620002e9565b3390565b600680546001600160a01b038381166001600160a01b0319831681179093556040519116919082907f8be0079c531659141344cd1fd0a4f28419497f9722a3daafe3b4186f6b6457e090600090a35050565b6001600160a01b03811681146200012d57600080fd5b50565b6000806000606084860312156200014657600080fd5b8351620001538162000117565b6020850151604086015191945092506200016d8162000117565b809150509250925092565b634e487b7160e01b600052604160045260246000fd5b600181811c90821680620001a357607f821691505b602082108103620001c457634e487b7160e01b600052602260045260246000fd5b50919050565b601f8211156200021857600081815260208120601f850160051c81016020861015620001f35750805b601f850160051c820191505b818110156200021457828155600101620001ff565b5050505b505050565b81516001600160401b0381111562000239576200023962000178565b62000251816200024a84546200018e565b84620001ca565b602080601f831160018114620002895760008415620002705750858301515b600019600386901b1c1916600185901b17855562000214565b600085815260208120601f198616915b82811015620002ba5788860151825594840194600190910190840162000299565b5085821015620002d95787850151600019600388901b60f8161c191681555b5050505050600190811b01905550565b61226580620002f96000396000f3fe608060405234801561001057600080fd5b50600436106102115760003560e01c806395d89b4111610125578063d393c871116100ad578063ddf7fcb01161007c578063ddf7fcb014610498578063e985e9c5146104a1578063f2fde38b146104dd578063f6a74ed7146104f0578063f981f4b41461050357600080fd5b8063d393c8711461042f578063d6e4fa8614610442578063da8c229e14610462578063dba98de51461048557600080fd5b8063b88d4fde116100f4578063b88d4fde146103cc578063b9cce328146103df578063c1a287e2146103ff578063c475abff14610409578063c87b56dd1461041c57600080fd5b806395d89b411461038b57806396e494e814610393578063a22cb465146103a6578063a7fc7a07146103b957600080fd5b806342842e0e116101a857806370a082311161017757806370a0823114610339578063715018a61461034c57806381a5fd7c1461035457806389e39c93146103675780638da5cb5b1461037a57600080fd5b806342842e0e146102ed5780634b0c708f146103005780634e543b26146103135780636352211e1461032657600080fd5b806309b0eb4c116101e457806309b0eb4c1461029357806323b872dd146102b457806328ed4f6c146102c75780633f15457f146102da57600080fd5b806301ffc9a71461021657806306fdde031461023e578063081812fc14610253578063095ea7b31461027e575b600080fd5b610229610224366004611ba1565b610516565b60405190151581526020015b60405180910390f35b610246610568565b6040516102359190611c0e565b610266610261366004611c21565b6105fa565b6040516001600160a01b039091168152602001610235565b61029161028c366004611c4f565b610621565b005b6102a66102a1366004611cc4565b61073b565b604051908152602001610235565b6102916102c2366004611d21565b610756565b6102916102d5366004611d62565b610787565b600854610266906001600160a01b031681565b6102916102fb366004611d21565b6108a0565b600c54610266906001600160a01b031681565b610291610321366004611d92565b6108bb565b610266610334366004611c21565b610930565b6102a6610347366004611d92565b610953565b6102916109d9565b610291610362366004611d92565b6109ed565b600b54610266906001600160a01b031681565b6006546001600160a01b0316610266565b610246610a17565b6102296103a1366004611c21565b610a26565b6102916103b4366004611dbd565b610a4c565b6102916103c7366004611d92565b610a5b565b6102916103da366004611e01565b610aaf565b6102a66103ed366004611c21565b60076020526000908152604090205481565b6102a66276a70081565b6102a6610417366004611ee1565b610ae7565b61024661042a366004611c21565b610c78565b6102a661043d366004611cc4565b610cec565b6102a6610450366004611c21565b60009081526007602052604090205490565b610229610470366004611d92565b600a6020526000908152604090205460ff1681565b610291610493366004611d92565b610cfc565b6102a660095481565b6102296104af366004611f03565b6001600160a01b03918216600090815260056020908152604080832093909416825291909152205460ff1690565b6102916104eb366004611d92565b610d26565b6102916104fe366004611d92565b610d9f565b6102a6610511366004611f31565b610df0565b60006001600160e01b031982166301ffc9a760e01b148061054757506001600160e01b031982166380ac58cd60e01b145b8061056257506001600160e01b03198216630a3b53db60e21b145b92915050565b60606000805461057790611f73565b80601f01602080910402602001604051908101604052809291908181526020018280546105a390611f73565b80156105f05780601f106105c5576101008083540402835291602001916105f0565b820191906000526020600020905b8154815290600101906020018083116105d357829003601f168201915b5050505050905090565b600061060582610e12565b506000908152600460205260409020546001600160a01b031690565b600061062c82610e71565b9050806001600160a01b0316836001600160a01b03160361069e5760405162461bcd60e51b815260206004820152602160248201527f4552433732313a20617070726f76616c20746f2063757272656e74206f776e656044820152603960f91b60648201526084015b60405180910390fd5b336001600160a01b03821614806106ba57506106ba81336104af565b61072c5760405162461bcd60e51b815260206004820152603d60248201527f4552433732313a20617070726f76652063616c6c6572206973206e6f7420746f60448201527f6b656e206f776e6572206f7220617070726f76656420666f7220616c6c0000006064820152608401610695565b6107368383610ed1565b505050565b600061074b858585856000610f3f565b90505b949350505050565b61076033826112c5565b61077c5760405162461bcd60e51b815260040161069590611fad565b610736838383611340565b6008546009546040516302571be360e01b8152600481019190915230916001600160a01b0316906302571be390602401602060405180830381865afa1580156107d4573d6000803e3d6000fd5b505050506040513d601f19601f820116820180604052508101906107f89190611ffa565b6001600160a01b03161461080b57600080fd5b61081533836112c5565b61081e57600080fd5b6008546009546040516306ab592360e01b81526004810191909152602481018490526001600160a01b038381166044830152909116906306ab5923906064016020604051808303816000875af115801561087c573d6000803e3d6000fd5b505050506040513d601f19601f820116820180604052508101906107369190612017565b61073683838360405180602001604052806000815250610aaf565b6108c36114b1565b600854600954604051630c4b7b8560e11b815260048101919091526001600160a01b03838116602483015290911690631896f70a90604401600060405180830381600087803b15801561091557600080fd5b505af1158015610929573d6000803e3d6000fd5b5050505050565b600081815260076020526040812054421061094a57600080fd5b61056282610e71565b60006001600160a01b0382166109bd5760405162461bcd60e51b815260206004820152602960248201527f4552433732313a2061646472657373207a65726f206973206e6f7420612076616044820152683634b21037bbb732b960b91b6064820152608401610695565b506001600160a01b031660009081526003602052604090205490565b6109e16114b1565b6109eb600061150b565b565b6109f56114b1565b600b80546001600160a01b0319166001600160a01b0392909216919091179055565b60606001805461057790611f73565b6000818152600760205260408120544290610a45906276a70090612046565b1092915050565b610a5733838361155d565b5050565b610a636114b1565b6001600160a01b0381166000818152600a6020526040808220805460ff19166001179055517f0a8bb31534c0ed46f380cb867bd5c803a189ced9a764e30b3a4991a9901d74749190a250565b610ab933836112c5565b610ad55760405162461bcd60e51b815260040161069590611fad565b610ae18484848461162b565b50505050565b6008546009546040516302571be360e01b8152600481019190915260009130916001600160a01b03909116906302571be390602401602060405180830381865afa158015610b39573d6000803e3d6000fd5b505050506040513d601f19601f82011682018060405250810190610b5d9190611ffa565b6001600160a01b031614610b7057600080fd5b336000908152600a602052604090205460ff16610b8c57600080fd5b6000838152600760205260409020544290610bab906276a70090612046565b1015610bb657600080fd5b610bc36276a70083612046565b6000848152600760205260409020546276a70090610be2908590612046565b610bec9190612046565b11610bf657600080fd5b60008381526007602052604081208054849290610c14908490612046565b90915550506000838152600760205260409081902054905184917f9b87a00e30f1ac65d898f070f8a3488fe60517182d0a2098e1b4b93a54aa9bd691610c5c91815260200190565b60405180910390a2505060009081526007602052604090205490565b6060610c8382610e12565b6000610c9a60408051602081019091526000815290565b90506000815111610cba5760405180602001604052806000815250610ce5565b80610cc48461165e565b604051602001610cd5929190612059565b6040516020818303038152906040525b9392505050565b600061074b858585856001610f3f565b610d046114b1565b600c80546001600160a01b0319166001600160a01b0392909216919091179055565b610d2e6114b1565b6001600160a01b038116610d935760405162461bcd60e51b815260206004820152602660248201527f4f776e61626c653a206e6577206f776e657220697320746865207a65726f206160448201526564647265737360d01b6064820152608401610695565b610d9c8161150b565b50565b610da76114b1565b6001600160a01b0381166000818152600a6020526040808220805460ff19169055517f33d83959be2573f5453b12eb9d43b3499bc57d96bd2f067ba44803c859e811139190a250565b60008282604051610e02929190612088565b6040519081900390209392505050565b6000818152600260205260409020546001600160a01b0316610d9c5760405162461bcd60e51b8152602060048201526018602482015277115490cdcc8c4e881a5b9d985b1a59081d1bdad95b88125160421b6044820152606401610695565b6000818152600260205260408120546001600160a01b0316806105625760405162461bcd60e51b8152602060048201526018602482015277115490cdcc8c4e881a5b9d985b1a59081d1bdad95b88125160421b6044820152606401610695565b600081815260046020526040902080546001600160a01b0319166001600160a01b0384169081179091558190610f0682610e71565b6001600160a01b03167f8c5be1e5ebec7d5bd14f71427d1e84f3dd0314c0f7b2291e5b200ac8c7c3b92560405160405180910390a45050565b6008546009546040516302571be360e01b8152600481019190915260009130916001600160a01b03909116906302571be390602401602060405180830381865afa158015610f91573d6000803e3d6000fd5b505050506040513d601f19601f82011682018060405250810190610fb59190611ffa565b6001600160a01b031614610fc857600080fd5b336000908152600a602052604090205460ff16610fe457600080fd5b600b54604051630b193e3760e11b8152879187916001600160a01b03909116906316327c6e9061101a90859085906004016120c1565b602060405180830381865afa158015611037573d6000803e3d6000fd5b505050506040513d601f19601f8201168201806040525081019061105b91906120d5565b156110c05760405162461bcd60e51b815260206004820152602f60248201527f464c5220446f6d61696e20416c72656164792045786973747320496e20436f6c60448201526e6c6973696f6e20526567697374727960881b6064820152608401610695565b600088886040516110d2929190612088565b604051908190039020905060006110e98742612046565b90506110f482610a26565b6110fd57600080fd5b61110a6276a70042612046565b6111176276a70083612046565b1161112157600080fd5b600082815260076020908152604080832084905560029091529020546001600160a01b03161561115457611154826116f1565b61115e8883611794565b600c60009054906101000a90046001600160a01b03166001600160a01b031663c78a57388984848e8e6040518663ffffffff1660e01b81526004016111a79594939291906120f2565b600060405180830381600087803b1580156111c157600080fd5b505af11580156111d5573d6000803e3d6000fd5b505050508515611263576008546009546040516306ab592360e01b81526004810191909152602481018490526001600160a01b038a81166044830152909116906306ab5923906064016020604051808303816000875af115801561123d573d6000803e3d6000fd5b505050506040513d601f19601f820116820180604052508101906112619190612017565b505b876001600160a01b0316828b8b60405161127e929190612088565b604051908190038120848252907f079fce70129ed89538fa288cfc9021a02ce4b4eaf3d8d2e74acaeee6224cff1d9060200160405180910390a49998505050505050505050565b6000806112d183610930565b9050806001600160a01b0316846001600160a01b0316148061130c5750836001600160a01b0316611301846105fa565b6001600160a01b0316145b8061074e57506001600160a01b0380821660009081526005602090815260408083209388168352929052205460ff1661074e565b826001600160a01b031661135382610e71565b6001600160a01b0316146113795760405162461bcd60e51b81526004016106959061212b565b6001600160a01b0382166113db5760405162461bcd60e51b8152602060048201526024808201527f4552433732313a207472616e7366657220746f20746865207a65726f206164646044820152637265737360e01b6064820152608401610695565b6113e8838383600161192d565b826001600160a01b03166113fb82610e71565b6001600160a01b0316146114215760405162461bcd60e51b81526004016106959061212b565b600081815260046020908152604080832080546001600160a01b03199081169091556001600160a01b0387811680865260038552838620805460001901905590871680865283862080546001019055868652600290945282852080549092168417909155905184937fddf252ad1be2c89b69c2b068fc378daa952ba7f163c4a11628f55a4df523b3ef91a4505050565b6006546001600160a01b031633146109eb5760405162461bcd60e51b815260206004820181905260248201527f4f776e61626c653a2063616c6c6572206973206e6f7420746865206f776e65726044820152606401610695565b600680546001600160a01b038381166001600160a01b0319831681179093556040519116919082907f8be0079c531659141344cd1fd0a4f28419497f9722a3daafe3b4186f6b6457e090600090a35050565b816001600160a01b0316836001600160a01b0316036115be5760405162461bcd60e51b815260206004820152601960248201527f4552433732313a20617070726f766520746f2063616c6c6572000000000000006044820152606401610695565b6001600160a01b03838116600081815260056020908152604080832094871680845294825291829020805460ff191686151590811790915591519182527f17307eab39ab6107e8899845ad3d59bd9653f200f220920489ca2b5937696c31910160405180910390a3505050565b611636848484611340565b611642848484846119b5565b610ae15760405162461bcd60e51b815260040161069590612170565b6060600061166b83611ab3565b600101905060008167ffffffffffffffff81111561168b5761168b611deb565b6040519080825280601f01601f1916602001820160405280156116b5576020820181803683370190505b5090508181016020015b600019016f181899199a1a9b1b9c1cb0b131b232b360811b600a86061a8153600a85049450846116bf57509392505050565b60006116fc82610e71565b905061170c81600084600161192d565b61171582610e71565b600083815260046020908152604080832080546001600160a01b03199081169091556001600160a01b0385168085526003845282852080546000190190558785526002909352818420805490911690555192935084927fddf252ad1be2c89b69c2b068fc378daa952ba7f163c4a11628f55a4df523b3ef908390a45050565b6001600160a01b0382166117ea5760405162461bcd60e51b815260206004820181905260248201527f4552433732313a206d696e7420746f20746865207a65726f20616464726573736044820152606401610695565b6000818152600260205260409020546001600160a01b03161561184f5760405162461bcd60e51b815260206004820152601c60248201527f4552433732313a20746f6b656e20616c7265616479206d696e746564000000006044820152606401610695565b61185d60008383600161192d565b6000818152600260205260409020546001600160a01b0316156118c25760405162461bcd60e51b815260206004820152601c60248201527f4552433732313a20746f6b656e20616c7265616479206d696e746564000000006044820152606401610695565b6001600160a01b038216600081815260036020908152604080832080546001019055848352600290915280822080546001600160a01b0319168417905551839291907fddf252ad1be2c89b69c2b068fc378daa952ba7f163c4a11628f55a4df523b3ef908290a45050565b6001811115610ae1576001600160a01b03841615611973576001600160a01b0384166000908152600360205260408120805483929061196d9084906121c2565b90915550505b6001600160a01b03831615610ae1576001600160a01b038316600090815260036020526040812080548392906119aa908490612046565b909155505050505050565b60006001600160a01b0384163b15611aab57604051630a85bd0160e11b81526001600160a01b0385169063150b7a02906119f99033908990889088906004016121d5565b6020604051808303816000875af1925050508015611a34575060408051601f3d908101601f19168201909252611a3191810190612212565b60015b611a91573d808015611a62576040519150601f19603f3d011682016040523d82523d6000602084013e611a67565b606091505b508051600003611a895760405162461bcd60e51b815260040161069590612170565b805181602001fd5b6001600160e01b031916630a85bd0160e11b14905061074e565b50600161074e565b60008072184f03e93ff9f4daa797ed6e38ed64bf6a1f0160401b8310611af25772184f03e93ff9f4daa797ed6e38ed64bf6a1f0160401b830492506040015b6d04ee2d6d415b85acef81000000008310611b1e576d04ee2d6d415b85acef8100000000830492506020015b662386f26fc100008310611b3c57662386f26fc10000830492506010015b6305f5e1008310611b54576305f5e100830492506008015b6127108310611b6857612710830492506004015b60648310611b7a576064830492506002015b600a83106105625760010192915050565b6001600160e01b031981168114610d9c57600080fd5b600060208284031215611bb357600080fd5b8135610ce581611b8b565b60005b83811015611bd9578181015183820152602001611bc1565b50506000910152565b60008151808452611bfa816020860160208601611bbe565b601f01601f19169290920160200192915050565b602081526000610ce56020830184611be2565b600060208284031215611c3357600080fd5b5035919050565b6001600160a01b0381168114610d9c57600080fd5b60008060408385031215611c6257600080fd5b8235611c6d81611c3a565b946020939093013593505050565b60008083601f840112611c8d57600080fd5b50813567ffffffffffffffff811115611ca557600080fd5b602083019150836020828501011115611cbd57600080fd5b9250929050565b60008060008060608587031215611cda57600080fd5b843567ffffffffffffffff811115611cf157600080fd5b611cfd87828801611c7b565b9095509350506020850135611d1181611c3a565b9396929550929360400135925050565b600080600060608486031215611d3657600080fd5b8335611d4181611c3a565b92506020840135611d5181611c3a565b929592945050506040919091013590565b60008060408385031215611d7557600080fd5b823591506020830135611d8781611c3a565b809150509250929050565b600060208284031215611da457600080fd5b8135610ce581611c3a565b8015158114610d9c57600080fd5b60008060408385031215611dd057600080fd5b8235611ddb81611c3a565b91506020830135611d8781611daf565b634e487b7160e01b600052604160045260246000fd5b60008060008060808587031215611e1757600080fd5b8435611e2281611c3a565b93506020850135611e3281611c3a565b925060408501359150606085013567ffffffffffffffff80821115611e5657600080fd5b818701915087601f830112611e6a57600080fd5b813581811115611e7c57611e7c611deb565b604051601f8201601f19908116603f01168101908382118183101715611ea457611ea4611deb565b816040528281528a6020848701011115611ebd57600080fd5b82602086016020830137600060208483010152809550505050505092959194509250565b60008060408385031215611ef457600080fd5b50508035926020909101359150565b60008060408385031215611f1657600080fd5b8235611f2181611c3a565b91506020830135611d8781611c3a565b60008060208385031215611f4457600080fd5b823567ffffffffffffffff811115611f5b57600080fd5b611f6785828601611c7b565b90969095509350505050565b600181811c90821680611f8757607f821691505b602082108103611fa757634e487b7160e01b600052602260045260246000fd5b50919050565b6020808252602d908201527f4552433732313a2063616c6c6572206973206e6f7420746f6b656e206f776e6560408201526c1c881bdc88185c1c1c9bdd9959609a1b606082015260800190565b60006020828403121561200c57600080fd5b8151610ce581611c3a565b60006020828403121561202957600080fd5b5051919050565b634e487b7160e01b600052601160045260246000fd5b8082018082111561056257610562612030565b6000835161206b818460208801611bbe565b83519083019061207f818360208801611bbe565b01949350505050565b8183823760009101908152919050565b81835281816020850137506000828201602090810191909152601f909101601f19169091010190565b60208152600061074e602083018486612098565b6000602082840312156120e757600080fd5b8151610ce581611daf565b60018060a01b0386168152846020820152836040820152608060608201526000612120608083018486612098565b979650505050505050565b60208082526025908201527f4552433732313a207472616e736665722066726f6d20696e636f72726563742060408201526437bbb732b960d91b606082015260800190565b60208082526032908201527f4552433732313a207472616e7366657220746f206e6f6e20455243373231526560408201527131b2b4bb32b91034b6b83632b6b2b73a32b960711b606082015260800190565b8181038181111561056257610562612030565b6001600160a01b038581168252841660208201526040810183905260806060820181905260009061220890830184611be2565b9695505050505050565b60006020828403121561222457600080fd5b8151610ce581611b8b56fea264697066735822122044156f48e8f647f311f9247d6058fcf6febd31581e8a6d68ef2385b63938feea64736f6c63430008130033",
    "linkReferences": {}
  },
  "methodIdentifiers": {
    "GRACE_PERIOD()": "c1a287e2",
    "addController(address)": "a7fc7a07",
    "approve(address,uint256)": "095ea7b3",
    "available(uint256)": "96e494e8",
    "balanceOf(address)": "70a08231",
    "baseNode()": "ddf7fcb0",
    "controllers(address)": "da8c229e",
    "ens()": "3f15457f",
    "expiries(uint256)": "b9cce328",
    "getApproved(uint256)": "081812fc",
    "getLabelId(string)": "f981f4b4",
    "isApprovedForAll(address,address)": "e985e9c5",
    "mintedDomainNamesContract()": "4b0c708f",
    "name()": "06fdde03",
    "nameExpires(uint256)": "d6e4fa86",
    "noNameCollisionsContract()": "89e39c93",
    "owner()": "8da5cb5b",
    "ownerOf(uint256)": "6352211e",
    "reclaim(uint256,address)": "28ed4f6c",
    "register(string,address,uint256)": "d393c871",
    "registerOnly(string,address,uint256)": "09b0eb4c",
    "removeController(address)": "f6a74ed7",
    "renew(uint256,uint256)": "c475abff",
    "renounceOwnership()": "715018a6",
    "safeTransferFrom(address,address,uint256)": "42842e0e",
    "safeTransferFrom(address,address,uint256,bytes)": "b88d4fde",
    "setApprovalForAll(address,bool)": "a22cb465",
    "setResolver(address)": "4e543b26",
    "supportsInterface(bytes4)": "01ffc9a7",
    "symbol()": "95d89b41",
    "tokenURI(uint256)": "c87b56dd",
    "transferFrom(address,address,uint256)": "23b872dd",
    "transferOwnership(address)": "f2fde38b",
    "updateMintedDomainNamesContract(address)": "dba98de5",
    "updateNoNameCollisionContract(address)": "81a5fd7c"
  },
  "id": 51
}