{
  "address": "0xB6332BdC1b68D59Fde6b9Ec6d36bd5E87363d3D6",
  "abi": [
    {
      "inputs": [
        {
          "internalType": "contract IFNS",
          "name": "_ens",
          "type": "address"
        },
        {
          "internalType": "bytes32",
          "name": "_baseNode",
          "type": "bytes32"
        },
        {
          "internalType": "contract INoNameCollisions",
          "name": "_noNameCollisionsContract",
          "type": "address"
        }
      ],
      "stateMutability": "nonpayable",
      "type": "constructor"
    },
    {
      "anonymous": false,
      "inputs": [
        {
          "indexed": true,
          "internalType": "address",
          "name": "owner",
          "type": "address"
        },
        {
          "indexed": true,
          "internalType": "address",
          "name": "approved",
          "type": "address"
        },
        {
          "indexed": true,
          "internalType": "uint256",
          "name": "tokenId",
          "type": "uint256"
        }
      ],
      "name": "Approval",
      "type": "event"
    },
    {
      "anonymous": false,
      "inputs": [
        {
          "indexed": true,
          "internalType": "address",
          "name": "owner",
          "type": "address"
        },
        {
          "indexed": true,
          "internalType": "address",
          "name": "operator",
          "type": "address"
        },
        {
          "indexed": false,
          "internalType": "bool",
          "name": "approved",
          "type": "bool"
        }
      ],
      "name": "ApprovalForAll",
      "type": "event"
    },
    {
      "anonymous": false,
      "inputs": [
        {
          "indexed": true,
          "internalType": "address",
          "name": "controller",
          "type": "address"
        }
      ],
      "name": "ControllerAdded",
      "type": "event"
    },
    {
      "anonymous": false,
      "inputs": [
        {
          "indexed": true,
          "internalType": "address",
          "name": "controller",
          "type": "address"
        }
      ],
      "name": "ControllerRemoved",
      "type": "event"
    },
    {
      "anonymous": false,
      "inputs": [
        {
          "indexed": true,
          "internalType": "string",
          "name": "name",
          "type": "string"
        },
        {
          "indexed": true,
          "internalType": "uint256",
          "name": "id",
          "type": "uint256"
        },
        {
          "indexed": true,
          "internalType": "address",
          "name": "owner",
          "type": "address"
        },
        {
          "indexed": false,
          "internalType": "uint256",
          "name": "expires",
          "type": "uint256"
        }
      ],
      "name": "NameRegistered",
      "type": "event"
    },
    {
      "anonymous": false,
      "inputs": [
        {
          "indexed": true,
          "internalType": "uint256",
          "name": "id",
          "type": "uint256"
        },
        {
          "indexed": false,
          "internalType": "uint256",
          "name": "expires",
          "type": "uint256"
        }
      ],
      "name": "NameRenewed",
      "type": "event"
    },
    {
      "anonymous": false,
      "inputs": [
        {
          "indexed": true,
          "internalType": "address",
          "name": "noNameCollisions",
          "type": "address"
        }
      ],
      "name": "NoNameCollisionsSet",
      "type": "event"
    },
    {
      "anonymous": false,
      "inputs": [
        {
          "indexed": true,
          "internalType": "address",
          "name": "previousOwner",
          "type": "address"
        },
        {
          "indexed": true,
          "internalType": "address",
          "name": "newOwner",
          "type": "address"
        }
      ],
      "name": "OwnershipTransferred",
      "type": "event"
    },
    {
      "anonymous": false,
      "inputs": [
        {
          "indexed": true,
          "internalType": "address",
          "name": "resolver",
          "type": "address"
        }
      ],
      "name": "ResolverSet",
      "type": "event"
    },
    {
      "anonymous": false,
      "inputs": [
        {
          "indexed": true,
          "internalType": "address",
          "name": "from",
          "type": "address"
        },
        {
          "indexed": true,
          "internalType": "address",
          "name": "to",
          "type": "address"
        },
        {
          "indexed": true,
          "internalType": "uint256",
          "name": "tokenId",
          "type": "uint256"
        }
      ],
      "name": "Transfer",
      "type": "event"
    },
    {
      "inputs": [],
      "name": "GRACE_PERIOD",
      "outputs": [
        {
          "internalType": "uint256",
          "name": "",
          "type": "uint256"
        }
      ],
      "stateMutability": "view",
      "type": "function"
    },
    {
      "inputs": [
        {
          "internalType": "address",
          "name": "controller",
          "type": "address"
        }
      ],
      "name": "addController",
      "outputs": [],
      "stateMutability": "nonpayable",
      "type": "function"
    },
    {
      "inputs": [
        {
          "internalType": "address",
          "name": "to",
          "type": "address"
        },
        {
          "internalType": "uint256",
          "name": "tokenId",
          "type": "uint256"
        }
      ],
      "name": "approve",
      "outputs": [],
      "stateMutability": "nonpayable",
      "type": "function"
    },
    {
      "inputs": [
        {
          "internalType": "uint256",
          "name": "id",
          "type": "uint256"
        }
      ],
      "name": "available",
      "outputs": [
        {
          "internalType": "bool",
          "name": "",
          "type": "bool"
        }
      ],
      "stateMutability": "view",
      "type": "function"
    },
    {
      "inputs": [
        {
          "internalType": "address",
          "name": "owner",
          "type": "address"
        }
      ],
      "name": "balanceOf",
      "outputs": [
        {
          "internalType": "uint256",
          "name": "",
          "type": "uint256"
        }
      ],
      "stateMutability": "view",
      "type": "function"
    },
    {
      "inputs": [],
      "name": "baseNode",
      "outputs": [
        {
          "internalType": "bytes32",
          "name": "",
          "type": "bytes32"
        }
      ],
      "stateMutability": "view",
      "type": "function"
    },
    {
      "inputs": [
        {
          "internalType": "address",
          "name": "",
          "type": "address"
        }
      ],
      "name": "controllers",
      "outputs": [
        {
          "internalType": "bool",
          "name": "",
          "type": "bool"
        }
      ],
      "stateMutability": "view",
      "type": "function"
    },
    {
      "inputs": [
        {
          "internalType": "uint256",
          "name": "",
          "type": "uint256"
        }
      ],
      "name": "expiries",
      "outputs": [
        {
          "internalType": "uint256",
          "name": "",
          "type": "uint256"
        }
      ],
      "stateMutability": "view",
      "type": "function"
    },
    {
      "inputs": [],
      "name": "fns",
      "outputs": [
        {
          "internalType": "contract IFNS",
          "name": "",
          "type": "address"
        }
      ],
      "stateMutability": "view",
      "type": "function"
    },
    {
      "inputs": [
        {
          "internalType": "uint256",
          "name": "tokenId",
          "type": "uint256"
        }
      ],
      "name": "getApproved",
      "outputs": [
        {
          "internalType": "address",
          "name": "",
          "type": "address"
        }
      ],
      "stateMutability": "view",
      "type": "function"
    },
    {
      "inputs": [
        {
          "internalType": "string",
          "name": "label",
          "type": "string"
        }
      ],
      "name": "getLabelId",
      "outputs": [
        {
          "internalType": "uint256",
          "name": "",
          "type": "uint256"
        }
      ],
      "stateMutability": "pure",
      "type": "function"
    },
    {
      "inputs": [
        {
          "internalType": "address",
          "name": "owner",
          "type": "address"
        },
        {
          "internalType": "address",
          "name": "operator",
          "type": "address"
        }
      ],
      "name": "isApprovedForAll",
      "outputs": [
        {
          "internalType": "bool",
          "name": "",
          "type": "bool"
        }
      ],
      "stateMutability": "view",
      "type": "function"
    },
    {
      "inputs": [],
      "name": "name",
      "outputs": [
        {
          "internalType": "string",
          "name": "",
          "type": "string"
        }
      ],
      "stateMutability": "view",
      "type": "function"
    },
    {
      "inputs": [
        {
          "internalType": "uint256",
          "name": "id",
          "type": "uint256"
        }
      ],
      "name": "nameExpires",
      "outputs": [
        {
          "internalType": "uint256",
          "name": "",
          "type": "uint256"
        }
      ],
      "stateMutability": "view",
      "type": "function"
    },
    {
      "inputs": [],
      "name": "noNameCollisionsContract",
      "outputs": [
        {
          "internalType": "contract INoNameCollisions",
          "name": "",
          "type": "address"
        }
      ],
      "stateMutability": "view",
      "type": "function"
    },
    {
      "inputs": [],
      "name": "owner",
      "outputs": [
        {
          "internalType": "address",
          "name": "",
          "type": "address"
        }
      ],
      "stateMutability": "view",
      "type": "function"
    },
    {
      "inputs": [
        {
          "internalType": "uint256",
          "name": "tokenId",
          "type": "uint256"
        }
      ],
      "name": "ownerOf",
      "outputs": [
        {
          "internalType": "address",
          "name": "",
          "type": "address"
        }
      ],
      "stateMutability": "view",
      "type": "function"
    },
    {
      "inputs": [
        {
          "internalType": "uint256",
          "name": "id",
          "type": "uint256"
        },
        {
          "internalType": "address",
          "name": "owner",
          "type": "address"
        }
      ],
      "name": "reclaim",
      "outputs": [],
      "stateMutability": "nonpayable",
      "type": "function"
    },
    {
      "inputs": [
        {
          "internalType": "string",
          "name": "label",
          "type": "string"
        },
        {
          "internalType": "address",
          "name": "owner",
          "type": "address"
        },
        {
          "internalType": "uint256",
          "name": "duration",
          "type": "uint256"
        }
      ],
      "name": "register",
      "outputs": [
        {
          "internalType": "uint256",
          "name": "",
          "type": "uint256"
        }
      ],
      "stateMutability": "nonpayable",
      "type": "function"
    },
    {
      "inputs": [
        {
          "internalType": "string",
          "name": "label",
          "type": "string"
        },
        {
          "internalType": "address",
          "name": "owner",
          "type": "address"
        },
        {
          "internalType": "uint256",
          "name": "duration",
          "type": "uint256"
        }
      ],
      "name": "registerOnly",
      "outputs": [
        {
          "internalType": "uint256",
          "name": "",
          "type": "uint256"
        }
      ],
      "stateMutability": "nonpayable",
      "type": "function"
    },
    {
      "inputs": [
        {
          "internalType": "address",
          "name": "controller",
          "type": "address"
        }
      ],
      "name": "removeController",
      "outputs": [],
      "stateMutability": "nonpayable",
      "type": "function"
    },
    {
      "inputs": [
        {
          "internalType": "uint256",
          "name": "id",
          "type": "uint256"
        },
        {
          "internalType": "uint256",
          "name": "duration",
          "type": "uint256"
        }
      ],
      "name": "renew",
      "outputs": [
        {
          "internalType": "uint256",
          "name": "",
          "type": "uint256"
        }
      ],
      "stateMutability": "nonpayable",
      "type": "function"
    },
    {
      "inputs": [],
      "name": "renounceOwnership",
      "outputs": [],
      "stateMutability": "nonpayable",
      "type": "function"
    },
    {
      "inputs": [
        {
          "internalType": "address",
          "name": "from",
          "type": "address"
        },
        {
          "internalType": "address",
          "name": "to",
          "type": "address"
        },
        {
          "internalType": "uint256",
          "name": "tokenId",
          "type": "uint256"
        }
      ],
      "name": "safeTransferFrom",
      "outputs": [],
      "stateMutability": "nonpayable",
      "type": "function"
    },
    {
      "inputs": [
        {
          "internalType": "address",
          "name": "from",
          "type": "address"
        },
        {
          "internalType": "address",
          "name": "to",
          "type": "address"
        },
        {
          "internalType": "uint256",
          "name": "tokenId",
          "type": "uint256"
        },
        {
          "internalType": "bytes",
          "name": "data",
          "type": "bytes"
        }
      ],
      "name": "safeTransferFrom",
      "outputs": [],
      "stateMutability": "nonpayable",
      "type": "function"
    },
    {
      "inputs": [
        {
          "internalType": "address",
          "name": "operator",
          "type": "address"
        },
        {
          "internalType": "bool",
          "name": "approved",
          "type": "bool"
        }
      ],
      "name": "setApprovalForAll",
      "outputs": [],
      "stateMutability": "nonpayable",
      "type": "function"
    },
    {
      "inputs": [
        {
          "internalType": "address",
          "name": "resolver",
          "type": "address"
        }
      ],
      "name": "setResolver",
      "outputs": [],
      "stateMutability": "nonpayable",
      "type": "function"
    },
    {
      "inputs": [
        {
          "internalType": "bytes4",
          "name": "interfaceID",
          "type": "bytes4"
        }
      ],
      "name": "supportsInterface",
      "outputs": [
        {
          "internalType": "bool",
          "name": "",
          "type": "bool"
        }
      ],
      "stateMutability": "pure",
      "type": "function"
    },
    {
      "inputs": [],
      "name": "symbol",
      "outputs": [
        {
          "internalType": "string",
          "name": "",
          "type": "string"
        }
      ],
      "stateMutability": "view",
      "type": "function"
    },
    {
      "inputs": [
        {
          "internalType": "uint256",
          "name": "tokenId",
          "type": "uint256"
        }
      ],
      "name": "tokenURI",
      "outputs": [
        {
          "internalType": "string",
          "name": "",
          "type": "string"
        }
      ],
      "stateMutability": "view",
      "type": "function"
    },
    {
      "inputs": [
        {
          "internalType": "address",
          "name": "from",
          "type": "address"
        },
        {
          "internalType": "address",
          "name": "to",
          "type": "address"
        },
        {
          "internalType": "uint256",
          "name": "tokenId",
          "type": "uint256"
        }
      ],
      "name": "transferFrom",
      "outputs": [],
      "stateMutability": "nonpayable",
      "type": "function"
    },
    {
      "inputs": [
        {
          "internalType": "address",
          "name": "newOwner",
          "type": "address"
        }
      ],
      "name": "transferOwnership",
      "outputs": [],
      "stateMutability": "nonpayable",
      "type": "function"
    },
    {
      "inputs": [
        {
          "internalType": "contract INoNameCollisions",
          "name": "newContract",
          "type": "address"
        }
      ],
      "name": "updateNoNameCollisionContract",
      "outputs": [],
      "stateMutability": "nonpayable",
      "type": "function"
    }
  ],
  "bytecode": {
    "object": "0x60806040523480156200001157600080fd5b506040516200274f3803806200274f833981016040819052620000349162000130565b60408051602080820183526000808352835191820190935282815290916200005d83826200021d565b5060016200006c82826200021d565b5050506200008962000083620000c160201b60201c565b620000c5565b600880546001600160a01b039485166001600160a01b031991821617909155600992909255600b8054919093169116179055620002e9565b3390565b600680546001600160a01b038381166001600160a01b0319831681179093556040519116919082907f8be0079c531659141344cd1fd0a4f28419497f9722a3daafe3b4186f6b6457e090600090a35050565b6001600160a01b03811681146200012d57600080fd5b50565b6000806000606084860312156200014657600080fd5b8351620001538162000117565b6020850151604086015191945092506200016d8162000117565b809150509250925092565b634e487b7160e01b600052604160045260246000fd5b600181811c90821680620001a357607f821691505b602082108103620001c457634e487b7160e01b600052602260045260246000fd5b50919050565b601f8211156200021857600081815260208120601f850160051c81016020861015620001f35750805b601f850160051c820191505b818110156200021457828155600101620001ff565b5050505b505050565b81516001600160401b0381111562000239576200023962000178565b62000251816200024a84546200018e565b84620001ca565b602080601f831160018114620002895760008415620002705750858301515b600019600386901b1c1916600185901b17855562000214565b600085815260208120601f198616915b82811015620002ba5788860151825594840194600190910190840162000299565b5085821015620002d95787850151600019600388901b60f8161c191681555b5050505050600190811b01905550565b61245680620002f96000396000f3fe608060405234801561001057600080fd5b50600436106101fb5760003560e01c806396e494e81161011a578063c87b56dd116100ad578063ddf7fcb01161007c578063ddf7fcb01461045c578063e985e9c514610465578063f2fde38b146104a1578063f6a74ed7146104b4578063f981f4b4146104c757600080fd5b8063c87b56dd146103f3578063d393c87114610406578063d6e4fa8614610419578063da8c229e1461043957600080fd5b8063b88d4fde116100e9578063b88d4fde146103a3578063b9cce328146103b6578063c1a287e2146103d6578063c475abff146103e057600080fd5b806396e494e814610357578063a22cb4651461036a578063a7fc7a071461037d578063b382e4c51461039057600080fd5b80634e543b261161019257806381a5fd7c1161016157806381a5fd7c1461031857806389e39c931461032b5780638da5cb5b1461033e57806395d89b411461034f57600080fd5b80634e543b26146102d75780636352211e146102ea57806370a08231146102fd578063715018a61461031057600080fd5b806309b0eb4c116101ce57806309b0eb4c1461027d57806323b872dd1461029e57806328ed4f6c146102b157806342842e0e146102c457600080fd5b806301ffc9a71461020057806306fdde0314610228578063081812fc1461023d578063095ea7b314610268575b600080fd5b61021361020e366004611d98565b6104da565b60405190151581526020015b60405180910390f35b61023061052c565b60405161021f9190611e05565b61025061024b366004611e18565b6105be565b6040516001600160a01b03909116815260200161021f565b61027b610276366004611e46565b6105e5565b005b61029061028b366004611ebb565b6106ff565b60405190815260200161021f565b61027b6102ac366004611f18565b61071a565b61027b6102bf366004611f59565b61074b565b61027b6102d2366004611f18565b6108cb565b61027b6102e5366004611f89565b6108e6565b6102506102f8366004611e18565b61098f565b61029061030b366004611f89565b6109f5565b61027b610a7b565b61027b610326366004611f89565b610a8f565b600b54610250906001600160a01b031681565b6006546001600160a01b0316610250565b610230610ae1565b610213610365366004611e18565b610af0565b61027b610378366004611fb4565b610b16565b61027b61038b366004611f89565b610b25565b600854610250906001600160a01b031681565b61027b6103b1366004611ff8565b610b79565b6102906103c4366004611e18565b60076020526000908152604090205481565b6102906276a70081565b6102906103ee3660046120d8565b610bb1565b610230610401366004611e18565b610e1e565b610290610414366004611ebb565b610e92565b610290610427366004611e18565b60009081526007602052604090205490565b610213610447366004611f89565b600a6020526000908152604090205460ff1681565b61029060095481565b6102136104733660046120fa565b6001600160a01b03918216600090815260056020908152604080832093909416825291909152205460ff1690565b61027b6104af366004611f89565b610ea2565b61027b6104c2366004611f89565b610f1b565b6102906104d5366004612128565b610f6c565b60006001600160e01b031982166301ffc9a760e01b148061050b57506001600160e01b031982166380ac58cd60e01b145b8061052657506001600160e01b03198216630a3b53db60e21b145b92915050565b60606000805461053b9061216a565b80601f01602080910402602001604051908101604052809291908181526020018280546105679061216a565b80156105b45780601f10610589576101008083540402835291602001916105b4565b820191906000526020600020905b81548152906001019060200180831161059757829003601f168201915b5050505050905090565b60006105c982610f8e565b506000908152600460205260409020546001600160a01b031690565b60006105f082610fed565b9050806001600160a01b0316836001600160a01b0316036106625760405162461bcd60e51b815260206004820152602160248201527f4552433732313a20617070726f76616c20746f2063757272656e74206f776e656044820152603960f91b60648201526084015b60405180910390fd5b336001600160a01b038216148061067e575061067e8133610473565b6106f05760405162461bcd60e51b815260206004820152603d60248201527f4552433732313a20617070726f76652063616c6c6572206973206e6f7420746f60448201527f6b656e206f776e6572206f7220617070726f76656420666f7220616c6c0000006064820152608401610659565b6106fa838361104d565b505050565b600061070f8585858560006110bb565b90505b949350505050565b61072433826114bc565b6107405760405162461bcd60e51b8152600401610659906121a4565b6106fa838383611537565b6008546009546040516302571be360e01b8152600481019190915230916001600160a01b0316906302571be390602401602060405180830381865afa158015610798573d6000803e3d6000fd5b505050506040513d601f19601f820116820180604052508101906107bc91906121f1565b6001600160a01b0316146107e25760405162461bcd60e51b81526004016106599061220e565b6107ec33836114bc565b6108495760405162461bcd60e51b815260206004820152602860248201527f426173655265676973747261723a204d757374206265206f776e6572206f7220604482015267185c1c1c9bdd995960c21b6064820152608401610659565b6008546009546040516306ab592360e01b81526004810191909152602481018490526001600160a01b038381166044830152909116906306ab5923906064016020604051808303816000875af11580156108a7573d6000803e3d6000fd5b505050506040513d601f19601f820116820180604052508101906106fa919061224f565b6106fa83838360405180602001604052806000815250610b79565b6108ee6116a8565b600854600954604051630c4b7b8560e11b815260048101919091526001600160a01b03838116602483015290911690631896f70a90604401600060405180830381600087803b15801561094057600080fd5b505af1158015610954573d6000803e3d6000fd5b50506040516001600160a01b03841692507f14dc79d338b451b8b7b20e3191752ac97cbc8b011ff3b921597b83b1222896ae9150600090a250565b60008181526007602052604081205442106109ec5760405162461bcd60e51b815260206004820152601f60248201527f426173655265676973747261723a20546f6b656e2049642045787069726564006044820152606401610659565b61052682610fed565b60006001600160a01b038216610a5f5760405162461bcd60e51b815260206004820152602960248201527f4552433732313a2061646472657373207a65726f206973206e6f7420612076616044820152683634b21037bbb732b960b91b6064820152608401610659565b506001600160a01b031660009081526003602052604090205490565b610a836116a8565b610a8d6000611702565b565b610a976116a8565b600b80546001600160a01b0319166001600160a01b0383169081179091556040517fd6b20f18242df86a2f048e5d8bad57ea21b7eab8883aa17475a078ecb113e20f90600090a250565b60606001805461053b9061216a565b6000818152600760205260408120544290610b0f906276a7009061227e565b1092915050565b610b21338383611754565b5050565b610b2d6116a8565b6001600160a01b0381166000818152600a6020526040808220805460ff19166001179055517f0a8bb31534c0ed46f380cb867bd5c803a189ced9a764e30b3a4991a9901d74749190a250565b610b8333836114bc565b610b9f5760405162461bcd60e51b8152600401610659906121a4565b610bab84848484611822565b50505050565b6008546009546040516302571be360e01b8152600481019190915260009130916001600160a01b03909116906302571be390602401602060405180830381865afa158015610c03573d6000803e3d6000fd5b505050506040513d601f19601f82011682018060405250810190610c2791906121f1565b6001600160a01b031614610c4d5760405162461bcd60e51b81526004016106599061220e565b336000908152600a602052604090205460ff16610cac5760405162461bcd60e51b815260206004820152601d60248201527f426173655265676973747261723a206f6e6c79436f6e74726f6c6c65720000006044820152606401610659565b6000838152600760205260409020544290610ccb906276a7009061227e565b1015610d195760405162461bcd60e51b815260206004820152601f60248201527f426173655265676973747261723a204e616d65206861732065787069726564006044820152606401610659565b610d266276a7008361227e565b6000848152600760205260409020546276a70090610d4590859061227e565b610d4f919061227e565b11610d9c5760405162461bcd60e51b815260206004820152601e60248201527f426173655265676973747261723a20457870697279204f766572666c6f7700006044820152606401610659565b60008381526007602052604081208054849290610dba90849061227e565b90915550506000838152600760205260409081902054905184917f9b87a00e30f1ac65d898f070f8a3488fe60517182d0a2098e1b4b93a54aa9bd691610e0291815260200190565b60405180910390a2505060009081526007602052604090205490565b6060610e2982610f8e565b6000610e4060408051602081019091526000815290565b90506000815111610e605760405180602001604052806000815250610e8b565b80610e6a84611855565b604051602001610e7b929190612291565b6040516020818303038152906040525b9392505050565b600061070f8585858560016110bb565b610eaa6116a8565b6001600160a01b038116610f0f5760405162461bcd60e51b815260206004820152602660248201527f4f776e61626c653a206e6577206f776e657220697320746865207a65726f206160448201526564647265737360d01b6064820152608401610659565b610f1881611702565b50565b610f236116a8565b6001600160a01b0381166000818152600a6020526040808220805460ff19169055517f33d83959be2573f5453b12eb9d43b3499bc57d96bd2f067ba44803c859e811139190a250565b60008282604051610f7e9291906122c0565b6040519081900390209392505050565b6000818152600260205260409020546001600160a01b0316610f185760405162461bcd60e51b8152602060048201526018602482015277115490cdcc8c4e881a5b9d985b1a59081d1bdad95b88125160421b6044820152606401610659565b6000818152600260205260408120546001600160a01b0316806105265760405162461bcd60e51b8152602060048201526018602482015277115490cdcc8c4e881a5b9d985b1a59081d1bdad95b88125160421b6044820152606401610659565b600081815260046020526040902080546001600160a01b0319166001600160a01b038416908117909155819061108282610fed565b6001600160a01b03167f8c5be1e5ebec7d5bd14f71427d1e84f3dd0314c0f7b2291e5b200ac8c7c3b92560405160405180910390a45050565b6008546009546040516302571be360e01b8152600481019190915260009130916001600160a01b03909116906302571be390602401602060405180830381865afa15801561110d573d6000803e3d6000fd5b505050506040513d601f19601f8201168201806040525081019061113191906121f1565b6001600160a01b0316146111575760405162461bcd60e51b81526004016106599061220e565b336000908152600a602052604090205460ff166111b65760405162461bcd60e51b815260206004820152601d60248201527f426173655265676973747261723a206f6e6c79436f6e74726f6c6c65720000006044820152606401610659565b600b54604051630b193e3760e11b8152879187916001600160a01b03909116906316327c6e906111ec90859085906004016122d0565b602060405180830381865afa158015611209573d6000803e3d6000fd5b505050506040513d601f19601f8201168201806040525081019061122d91906122ff565b156112a05760405162461bcd60e51b815260206004820152603e60248201527f426173655265676973747261723a20464c5220446f6d61696e20416c7265616460448201527f792045786973747320496e20436f6c6c6973696f6e20526567697374727900006064820152608401610659565b600088886040516112b29291906122c0565b604051908190039020905060006112c9874261227e565b90506112d482610af0565b61132c5760405162461bcd60e51b8152602060048201526024808201527f426173655265676973747261723a204e616d65206973206e6f7420617661696c60448201526361626c6560e01b6064820152608401610659565b6113396276a7004261227e565b6113466276a7008361227e565b116113935760405162461bcd60e51b815260206004820152601e60248201527f426173655265676973747261723a20457870697279204f766572666c6f7700006044820152606401610659565b600082815260076020908152604080832084905560029091529020546001600160a01b0316156113c6576113c6826118e8565b6113d0888361198b565b876001600160a01b0316828b8b6040516113eb9291906122c0565b604051908190038120848252907f079fce70129ed89538fa288cfc9021a02ce4b4eaf3d8d2e74acaeee6224cff1d9060200160405180910390a485156114af576008546009546040516306ab592360e01b81526004810191909152602481018490526001600160a01b038a81166044830152909116906306ab5923906064016020604051808303816000875af1158015611489573d6000803e3d6000fd5b505050506040513d601f19601f820116820180604052508101906114ad919061224f565b505b9998505050505050505050565b6000806114c88361098f565b9050806001600160a01b0316846001600160a01b031614806115035750836001600160a01b03166114f8846105be565b6001600160a01b0316145b8061071257506001600160a01b0380821660009081526005602090815260408083209388168352929052205460ff16610712565b826001600160a01b031661154a82610fed565b6001600160a01b0316146115705760405162461bcd60e51b81526004016106599061231c565b6001600160a01b0382166115d25760405162461bcd60e51b8152602060048201526024808201527f4552433732313a207472616e7366657220746f20746865207a65726f206164646044820152637265737360e01b6064820152608401610659565b6115df8383836001611b24565b826001600160a01b03166115f282610fed565b6001600160a01b0316146116185760405162461bcd60e51b81526004016106599061231c565b600081815260046020908152604080832080546001600160a01b03199081169091556001600160a01b0387811680865260038552838620805460001901905590871680865283862080546001019055868652600290945282852080549092168417909155905184937fddf252ad1be2c89b69c2b068fc378daa952ba7f163c4a11628f55a4df523b3ef91a4505050565b6006546001600160a01b03163314610a8d5760405162461bcd60e51b815260206004820181905260248201527f4f776e61626c653a2063616c6c6572206973206e6f7420746865206f776e65726044820152606401610659565b600680546001600160a01b038381166001600160a01b0319831681179093556040519116919082907f8be0079c531659141344cd1fd0a4f28419497f9722a3daafe3b4186f6b6457e090600090a35050565b816001600160a01b0316836001600160a01b0316036117b55760405162461bcd60e51b815260206004820152601960248201527f4552433732313a20617070726f766520746f2063616c6c6572000000000000006044820152606401610659565b6001600160a01b03838116600081815260056020908152604080832094871680845294825291829020805460ff191686151590811790915591519182527f17307eab39ab6107e8899845ad3d59bd9653f200f220920489ca2b5937696c31910160405180910390a3505050565b61182d848484611537565b61183984848484611bac565b610bab5760405162461bcd60e51b815260040161065990612361565b6060600061186283611caa565b600101905060008167ffffffffffffffff81111561188257611882611fe2565b6040519080825280601f01601f1916602001820160405280156118ac576020820181803683370190505b5090508181016020015b600019016f181899199a1a9b1b9c1cb0b131b232b360811b600a86061a8153600a85049450846118b657509392505050565b60006118f382610fed565b9050611903816000846001611b24565b61190c82610fed565b600083815260046020908152604080832080546001600160a01b03199081169091556001600160a01b0385168085526003845282852080546000190190558785526002909352818420805490911690555192935084927fddf252ad1be2c89b69c2b068fc378daa952ba7f163c4a11628f55a4df523b3ef908390a45050565b6001600160a01b0382166119e15760405162461bcd60e51b815260206004820181905260248201527f4552433732313a206d696e7420746f20746865207a65726f20616464726573736044820152606401610659565b6000818152600260205260409020546001600160a01b031615611a465760405162461bcd60e51b815260206004820152601c60248201527f4552433732313a20746f6b656e20616c7265616479206d696e746564000000006044820152606401610659565b611a54600083836001611b24565b6000818152600260205260409020546001600160a01b031615611ab95760405162461bcd60e51b815260206004820152601c60248201527f4552433732313a20746f6b656e20616c7265616479206d696e746564000000006044820152606401610659565b6001600160a01b038216600081815260036020908152604080832080546001019055848352600290915280822080546001600160a01b0319168417905551839291907fddf252ad1be2c89b69c2b068fc378daa952ba7f163c4a11628f55a4df523b3ef908290a45050565b6001811115610bab576001600160a01b03841615611b6a576001600160a01b03841660009081526003602052604081208054839290611b649084906123b3565b90915550505b6001600160a01b03831615610bab576001600160a01b03831660009081526003602052604081208054839290611ba190849061227e565b909155505050505050565b60006001600160a01b0384163b15611ca257604051630a85bd0160e11b81526001600160a01b0385169063150b7a0290611bf09033908990889088906004016123c6565b6020604051808303816000875af1925050508015611c2b575060408051601f3d908101601f19168201909252611c2891810190612403565b60015b611c88573d808015611c59576040519150601f19603f3d011682016040523d82523d6000602084013e611c5e565b606091505b508051600003611c805760405162461bcd60e51b815260040161065990612361565b805181602001fd5b6001600160e01b031916630a85bd0160e11b149050610712565b506001610712565b60008072184f03e93ff9f4daa797ed6e38ed64bf6a1f0160401b8310611ce95772184f03e93ff9f4daa797ed6e38ed64bf6a1f0160401b830492506040015b6d04ee2d6d415b85acef81000000008310611d15576d04ee2d6d415b85acef8100000000830492506020015b662386f26fc100008310611d3357662386f26fc10000830492506010015b6305f5e1008310611d4b576305f5e100830492506008015b6127108310611d5f57612710830492506004015b60648310611d71576064830492506002015b600a83106105265760010192915050565b6001600160e01b031981168114610f1857600080fd5b600060208284031215611daa57600080fd5b8135610e8b81611d82565b60005b83811015611dd0578181015183820152602001611db8565b50506000910152565b60008151808452611df1816020860160208601611db5565b601f01601f19169290920160200192915050565b602081526000610e8b6020830184611dd9565b600060208284031215611e2a57600080fd5b5035919050565b6001600160a01b0381168114610f1857600080fd5b60008060408385031215611e5957600080fd5b8235611e6481611e31565b946020939093013593505050565b60008083601f840112611e8457600080fd5b50813567ffffffffffffffff811115611e9c57600080fd5b602083019150836020828501011115611eb457600080fd5b9250929050565b60008060008060608587031215611ed157600080fd5b843567ffffffffffffffff811115611ee857600080fd5b611ef487828801611e72565b9095509350506020850135611f0881611e31565b9396929550929360400135925050565b600080600060608486031215611f2d57600080fd5b8335611f3881611e31565b92506020840135611f4881611e31565b929592945050506040919091013590565b60008060408385031215611f6c57600080fd5b823591506020830135611f7e81611e31565b809150509250929050565b600060208284031215611f9b57600080fd5b8135610e8b81611e31565b8015158114610f1857600080fd5b60008060408385031215611fc757600080fd5b8235611fd281611e31565b91506020830135611f7e81611fa6565b634e487b7160e01b600052604160045260246000fd5b6000806000806080858703121561200e57600080fd5b843561201981611e31565b9350602085013561202981611e31565b925060408501359150606085013567ffffffffffffffff8082111561204d57600080fd5b818701915087601f83011261206157600080fd5b81358181111561207357612073611fe2565b604051601f8201601f19908116603f0116810190838211818310171561209b5761209b611fe2565b816040528281528a60208487010111156120b457600080fd5b82602086016020830137600060208483010152809550505050505092959194509250565b600080604083850312156120eb57600080fd5b50508035926020909101359150565b6000806040838503121561210d57600080fd5b823561211881611e31565b91506020830135611f7e81611e31565b6000806020838503121561213b57600080fd5b823567ffffffffffffffff81111561215257600080fd5b61215e85828601611e72565b90969095509350505050565b600181811c9082168061217e57607f821691505b60208210810361219e57634e487b7160e01b600052602260045260246000fd5b50919050565b6020808252602d908201527f4552433732313a2063616c6c6572206973206e6f7420746f6b656e206f776e6560408201526c1c881bdc88185c1c1c9bdd9959609a1b606082015260800190565b60006020828403121561220357600080fd5b8151610e8b81611e31565b60208082526021908201527f426173655265676973747261723a2042617365204e6f6465204e6f74204c69766040820152606560f81b606082015260800190565b60006020828403121561226157600080fd5b5051919050565b634e487b7160e01b600052601160045260246000fd5b8082018082111561052657610526612268565b600083516122a3818460208801611db5565b8351908301906122b7818360208801611db5565b01949350505050565b8183823760009101908152919050565b60208152816020820152818360408301376000818301604090810191909152601f909201601f19160101919050565b60006020828403121561231157600080fd5b8151610e8b81611fa6565b60208082526025908201527f4552433732313a207472616e736665722066726f6d20696e636f72726563742060408201526437bbb732b960d91b606082015260800190565b60208082526032908201527f4552433732313a207472616e7366657220746f206e6f6e20455243373231526560408201527131b2b4bb32b91034b6b83632b6b2b73a32b960711b606082015260800190565b8181038181111561052657610526612268565b6001600160a01b03858116825284166020820152604081018390526080606082018190526000906123f990830184611dd9565b9695505050505050565b60006020828403121561241557600080fd5b8151610e8b81611d8256fea26469706673582212209792b4b1251d0cab209fb4ae724d6ef284cc66ccdcfc5e2bdf621c10a20e7c1b64736f6c63430008130033",
    "linkReferences": {}
  },
  "methodIdentifiers": {
    "GRACE_PERIOD()": "c1a287e2",
    "addController(address)": "a7fc7a07",
    "approve(address,uint256)": "095ea7b3",
    "available(uint256)": "96e494e8",
    "balanceOf(address)": "70a08231",
    "baseNode()": "ddf7fcb0",
    "controllers(address)": "da8c229e",
    "expiries(uint256)": "b9cce328",
    "fns()": "b382e4c5",
    "getApproved(uint256)": "081812fc",
    "getLabelId(string)": "f981f4b4",
    "isApprovedForAll(address,address)": "e985e9c5",
    "name()": "06fdde03",
    "nameExpires(uint256)": "d6e4fa86",
    "noNameCollisionsContract()": "89e39c93",
    "owner()": "8da5cb5b",
    "ownerOf(uint256)": "6352211e",
    "reclaim(uint256,address)": "28ed4f6c",
    "register(string,address,uint256)": "d393c871",
    "registerOnly(string,address,uint256)": "09b0eb4c",
    "removeController(address)": "f6a74ed7",
    "renew(uint256,uint256)": "c475abff",
    "renounceOwnership()": "715018a6",
    "safeTransferFrom(address,address,uint256)": "42842e0e",
    "safeTransferFrom(address,address,uint256,bytes)": "b88d4fde",
    "setApprovalForAll(address,bool)": "a22cb465",
    "setResolver(address)": "4e543b26",
    "supportsInterface(bytes4)": "01ffc9a7",
    "symbol()": "95d89b41",
    "tokenURI(uint256)": "c87b56dd",
    "transferFrom(address,address,uint256)": "23b872dd",
    "transferOwnership(address)": "f2fde38b",
    "updateNoNameCollisionContract(address)": "81a5fd7c"
  },
  "id": 64
}