{
  "address": "0x15DB10bA6f6F59F8F933083ea9CCbCbA6AC198AB",
  "abi": [
    {
      "inputs": [
        {
          "internalType": "contract IENS",
          "name": "_ens",
          "type": "address"
        },
        {
          "internalType": "bytes32",
          "name": "_baseNode",
          "type": "bytes32"
        },
        {
          "internalType": "contract INoNameCollisions",
          "name": "_noNameCollisionsContract",
          "type": "address"
        }
      ],
      "stateMutability": "nonpayable",
      "type": "constructor"
    },
    {
      "anonymous": false,
      "inputs": [
        {
          "indexed": true,
          "internalType": "address",
          "name": "owner",
          "type": "address"
        },
        {
          "indexed": true,
          "internalType": "address",
          "name": "approved",
          "type": "address"
        },
        {
          "indexed": true,
          "internalType": "uint256",
          "name": "tokenId",
          "type": "uint256"
        }
      ],
      "name": "Approval",
      "type": "event"
    },
    {
      "anonymous": false,
      "inputs": [
        {
          "indexed": true,
          "internalType": "address",
          "name": "owner",
          "type": "address"
        },
        {
          "indexed": true,
          "internalType": "address",
          "name": "operator",
          "type": "address"
        },
        {
          "indexed": false,
          "internalType": "bool",
          "name": "approved",
          "type": "bool"
        }
      ],
      "name": "ApprovalForAll",
      "type": "event"
    },
    {
      "anonymous": false,
      "inputs": [
        {
          "indexed": true,
          "internalType": "address",
          "name": "controller",
          "type": "address"
        }
      ],
      "name": "ControllerAdded",
      "type": "event"
    },
    {
      "anonymous": false,
      "inputs": [
        {
          "indexed": true,
          "internalType": "address",
          "name": "controller",
          "type": "address"
        }
      ],
      "name": "ControllerRemoved",
      "type": "event"
    },
    {
      "anonymous": false,
      "inputs": [
        {
          "indexed": true,
          "internalType": "string",
          "name": "name",
          "type": "string"
        },
        {
          "indexed": true,
          "internalType": "uint256",
          "name": "id",
          "type": "uint256"
        },
        {
          "indexed": true,
          "internalType": "address",
          "name": "owner",
          "type": "address"
        },
        {
          "indexed": false,
          "internalType": "uint256",
          "name": "expires",
          "type": "uint256"
        }
      ],
      "name": "NameRegistered",
      "type": "event"
    },
    {
      "anonymous": false,
      "inputs": [
        {
          "indexed": true,
          "internalType": "uint256",
          "name": "id",
          "type": "uint256"
        },
        {
          "indexed": false,
          "internalType": "uint256",
          "name": "expires",
          "type": "uint256"
        }
      ],
      "name": "NameRenewed",
      "type": "event"
    },
    {
      "anonymous": false,
      "inputs": [
        {
          "indexed": true,
          "internalType": "address",
          "name": "previousOwner",
          "type": "address"
        },
        {
          "indexed": true,
          "internalType": "address",
          "name": "newOwner",
          "type": "address"
        }
      ],
      "name": "OwnershipTransferred",
      "type": "event"
    },
    {
      "anonymous": false,
      "inputs": [
        {
          "indexed": true,
          "internalType": "address",
          "name": "from",
          "type": "address"
        },
        {
          "indexed": true,
          "internalType": "address",
          "name": "to",
          "type": "address"
        },
        {
          "indexed": true,
          "internalType": "uint256",
          "name": "tokenId",
          "type": "uint256"
        }
      ],
      "name": "Transfer",
      "type": "event"
    },
    {
      "inputs": [],
      "name": "GRACE_PERIOD",
      "outputs": [
        {
          "internalType": "uint256",
          "name": "",
          "type": "uint256"
        }
      ],
      "stateMutability": "view",
      "type": "function"
    },
    {
      "inputs": [
        {
          "internalType": "address",
          "name": "controller",
          "type": "address"
        }
      ],
      "name": "addController",
      "outputs": [],
      "stateMutability": "nonpayable",
      "type": "function"
    },
    {
      "inputs": [
        {
          "internalType": "address",
          "name": "to",
          "type": "address"
        },
        {
          "internalType": "uint256",
          "name": "tokenId",
          "type": "uint256"
        }
      ],
      "name": "approve",
      "outputs": [],
      "stateMutability": "nonpayable",
      "type": "function"
    },
    {
      "inputs": [
        {
          "internalType": "uint256",
          "name": "id",
          "type": "uint256"
        }
      ],
      "name": "available",
      "outputs": [
        {
          "internalType": "bool",
          "name": "",
          "type": "bool"
        }
      ],
      "stateMutability": "view",
      "type": "function"
    },
    {
      "inputs": [
        {
          "internalType": "address",
          "name": "owner",
          "type": "address"
        }
      ],
      "name": "balanceOf",
      "outputs": [
        {
          "internalType": "uint256",
          "name": "",
          "type": "uint256"
        }
      ],
      "stateMutability": "view",
      "type": "function"
    },
    {
      "inputs": [],
      "name": "baseNode",
      "outputs": [
        {
          "internalType": "bytes32",
          "name": "",
          "type": "bytes32"
        }
      ],
      "stateMutability": "view",
      "type": "function"
    },
    {
      "inputs": [
        {
          "internalType": "address",
          "name": "",
          "type": "address"
        }
      ],
      "name": "controllers",
      "outputs": [
        {
          "internalType": "bool",
          "name": "",
          "type": "bool"
        }
      ],
      "stateMutability": "view",
      "type": "function"
    },
    {
      "inputs": [],
      "name": "ens",
      "outputs": [
        {
          "internalType": "contract IENS",
          "name": "",
          "type": "address"
        }
      ],
      "stateMutability": "view",
      "type": "function"
    },
    {
      "inputs": [
        {
          "internalType": "uint256",
          "name": "",
          "type": "uint256"
        }
      ],
      "name": "expiries",
      "outputs": [
        {
          "internalType": "uint256",
          "name": "",
          "type": "uint256"
        }
      ],
      "stateMutability": "view",
      "type": "function"
    },
    {
      "inputs": [
        {
          "internalType": "uint256",
          "name": "tokenId",
          "type": "uint256"
        }
      ],
      "name": "getApproved",
      "outputs": [
        {
          "internalType": "address",
          "name": "",
          "type": "address"
        }
      ],
      "stateMutability": "view",
      "type": "function"
    },
    {
      "inputs": [
        {
          "internalType": "string",
          "name": "label",
          "type": "string"
        }
      ],
      "name": "getLabelId",
      "outputs": [
        {
          "internalType": "uint256",
          "name": "",
          "type": "uint256"
        }
      ],
      "stateMutability": "pure",
      "type": "function"
    },
    {
      "inputs": [
        {
          "internalType": "address",
          "name": "owner",
          "type": "address"
        },
        {
          "internalType": "address",
          "name": "operator",
          "type": "address"
        }
      ],
      "name": "isApprovedForAll",
      "outputs": [
        {
          "internalType": "bool",
          "name": "",
          "type": "bool"
        }
      ],
      "stateMutability": "view",
      "type": "function"
    },
    {
      "inputs": [],
      "name": "mintedDomainNamesContract",
      "outputs": [
        {
          "internalType": "contract IMintedDomainNames",
          "name": "",
          "type": "address"
        }
      ],
      "stateMutability": "view",
      "type": "function"
    },
    {
      "inputs": [],
      "name": "name",
      "outputs": [
        {
          "internalType": "string",
          "name": "",
          "type": "string"
        }
      ],
      "stateMutability": "view",
      "type": "function"
    },
    {
      "inputs": [
        {
          "internalType": "uint256",
          "name": "id",
          "type": "uint256"
        }
      ],
      "name": "nameExpires",
      "outputs": [
        {
          "internalType": "uint256",
          "name": "",
          "type": "uint256"
        }
      ],
      "stateMutability": "view",
      "type": "function"
    },
    {
      "inputs": [],
      "name": "noNameCollisionsContract",
      "outputs": [
        {
          "internalType": "contract INoNameCollisions",
          "name": "",
          "type": "address"
        }
      ],
      "stateMutability": "view",
      "type": "function"
    },
    {
      "inputs": [],
      "name": "owner",
      "outputs": [
        {
          "internalType": "address",
          "name": "",
          "type": "address"
        }
      ],
      "stateMutability": "view",
      "type": "function"
    },
    {
      "inputs": [
        {
          "internalType": "uint256",
          "name": "tokenId",
          "type": "uint256"
        }
      ],
      "name": "ownerOf",
      "outputs": [
        {
          "internalType": "address",
          "name": "",
          "type": "address"
        }
      ],
      "stateMutability": "view",
      "type": "function"
    },
    {
      "inputs": [
        {
          "internalType": "uint256",
          "name": "id",
          "type": "uint256"
        },
        {
          "internalType": "address",
          "name": "owner",
          "type": "address"
        }
      ],
      "name": "reclaim",
      "outputs": [],
      "stateMutability": "nonpayable",
      "type": "function"
    },
    {
      "inputs": [
        {
          "internalType": "string",
          "name": "label",
          "type": "string"
        },
        {
          "internalType": "address",
          "name": "owner",
          "type": "address"
        },
        {
          "internalType": "uint256",
          "name": "duration",
          "type": "uint256"
        }
      ],
      "name": "register",
      "outputs": [
        {
          "internalType": "uint256",
          "name": "",
          "type": "uint256"
        }
      ],
      "stateMutability": "nonpayable",
      "type": "function"
    },
    {
      "inputs": [
        {
          "internalType": "string",
          "name": "label",
          "type": "string"
        },
        {
          "internalType": "address",
          "name": "owner",
          "type": "address"
        },
        {
          "internalType": "uint256",
          "name": "duration",
          "type": "uint256"
        }
      ],
      "name": "registerOnly",
      "outputs": [
        {
          "internalType": "uint256",
          "name": "",
          "type": "uint256"
        }
      ],
      "stateMutability": "nonpayable",
      "type": "function"
    },
    {
      "inputs": [
        {
          "internalType": "address",
          "name": "controller",
          "type": "address"
        }
      ],
      "name": "removeController",
      "outputs": [],
      "stateMutability": "nonpayable",
      "type": "function"
    },
    {
      "inputs": [
        {
          "internalType": "uint256",
          "name": "id",
          "type": "uint256"
        },
        {
          "internalType": "uint256",
          "name": "duration",
          "type": "uint256"
        }
      ],
      "name": "renew",
      "outputs": [
        {
          "internalType": "uint256",
          "name": "",
          "type": "uint256"
        }
      ],
      "stateMutability": "nonpayable",
      "type": "function"
    },
    {
      "inputs": [],
      "name": "renounceOwnership",
      "outputs": [],
      "stateMutability": "nonpayable",
      "type": "function"
    },
    {
      "inputs": [
        {
          "internalType": "address",
          "name": "from",
          "type": "address"
        },
        {
          "internalType": "address",
          "name": "to",
          "type": "address"
        },
        {
          "internalType": "uint256",
          "name": "tokenId",
          "type": "uint256"
        }
      ],
      "name": "safeTransferFrom",
      "outputs": [],
      "stateMutability": "nonpayable",
      "type": "function"
    },
    {
      "inputs": [
        {
          "internalType": "address",
          "name": "from",
          "type": "address"
        },
        {
          "internalType": "address",
          "name": "to",
          "type": "address"
        },
        {
          "internalType": "uint256",
          "name": "tokenId",
          "type": "uint256"
        },
        {
          "internalType": "bytes",
          "name": "data",
          "type": "bytes"
        }
      ],
      "name": "safeTransferFrom",
      "outputs": [],
      "stateMutability": "nonpayable",
      "type": "function"
    },
    {
      "inputs": [
        {
          "internalType": "address",
          "name": "operator",
          "type": "address"
        },
        {
          "internalType": "bool",
          "name": "approved",
          "type": "bool"
        }
      ],
      "name": "setApprovalForAll",
      "outputs": [],
      "stateMutability": "nonpayable",
      "type": "function"
    },
    {
      "inputs": [
        {
          "internalType": "address",
          "name": "resolver",
          "type": "address"
        }
      ],
      "name": "setResolver",
      "outputs": [],
      "stateMutability": "nonpayable",
      "type": "function"
    },
    {
      "inputs": [
        {
          "internalType": "bytes4",
          "name": "interfaceID",
          "type": "bytes4"
        }
      ],
      "name": "supportsInterface",
      "outputs": [
        {
          "internalType": "bool",
          "name": "",
          "type": "bool"
        }
      ],
      "stateMutability": "pure",
      "type": "function"
    },
    {
      "inputs": [],
      "name": "symbol",
      "outputs": [
        {
          "internalType": "string",
          "name": "",
          "type": "string"
        }
      ],
      "stateMutability": "view",
      "type": "function"
    },
    {
      "inputs": [
        {
          "internalType": "uint256",
          "name": "tokenId",
          "type": "uint256"
        }
      ],
      "name": "tokenURI",
      "outputs": [
        {
          "internalType": "string",
          "name": "",
          "type": "string"
        }
      ],
      "stateMutability": "view",
      "type": "function"
    },
    {
      "inputs": [
        {
          "internalType": "address",
          "name": "from",
          "type": "address"
        },
        {
          "internalType": "address",
          "name": "to",
          "type": "address"
        },
        {
          "internalType": "uint256",
          "name": "tokenId",
          "type": "uint256"
        }
      ],
      "name": "transferFrom",
      "outputs": [],
      "stateMutability": "nonpayable",
      "type": "function"
    },
    {
      "inputs": [
        {
          "internalType": "address",
          "name": "newOwner",
          "type": "address"
        }
      ],
      "name": "transferOwnership",
      "outputs": [],
      "stateMutability": "nonpayable",
      "type": "function"
    },
    {
      "inputs": [
        {
          "internalType": "contract IMintedDomainNames",
          "name": "newContract",
          "type": "address"
        }
      ],
      "name": "updateMintedDomainNamesContract",
      "outputs": [],
      "stateMutability": "nonpayable",
      "type": "function"
    },
    {
      "inputs": [
        {
          "internalType": "contract INoNameCollisions",
          "name": "newContract",
          "type": "address"
        }
      ],
      "name": "updateNoNameCollisionContract",
      "outputs": [],
      "stateMutability": "nonpayable",
      "type": "function"
    }
  ],
  "bytecode": {
    "object": "0x60806040523480156200001157600080fd5b506040516200275938038062002759833981016040819052620000349162000130565b60408051602080820183526000808352835191820190935282815290916200005d83826200021d565b5060016200006c82826200021d565b5050506200008962000083620000c160201b60201c565b620000c5565b600880546001600160a01b039485166001600160a01b031991821617909155600992909255600b8054919093169116179055620002e9565b3390565b600680546001600160a01b038381166001600160a01b0319831681179093556040519116919082907f8be0079c531659141344cd1fd0a4f28419497f9722a3daafe3b4186f6b6457e090600090a35050565b6001600160a01b03811681146200012d57600080fd5b50565b6000806000606084860312156200014657600080fd5b8351620001538162000117565b6020850151604086015191945092506200016d8162000117565b809150509250925092565b634e487b7160e01b600052604160045260246000fd5b600181811c90821680620001a357607f821691505b602082108103620001c457634e487b7160e01b600052602260045260246000fd5b50919050565b601f8211156200021857600081815260208120601f850160051c81016020861015620001f35750805b601f850160051c820191505b818110156200021457828155600101620001ff565b5050505b505050565b81516001600160401b0381111562000239576200023962000178565b62000251816200024a84546200018e565b84620001ca565b602080601f831160018114620002895760008415620002705750858301515b600019600386901b1c1916600185901b17855562000214565b600085815260208120601f198616915b82811015620002ba5788860151825594840194600190910190840162000299565b5085821015620002d95787850151600019600388901b60f8161c191681555b5050505050600190811b01905550565b61246080620002f96000396000f3fe608060405234801561001057600080fd5b50600436106102115760003560e01c806395d89b4111610125578063d393c871116100ad578063ddf7fcb01161007c578063ddf7fcb014610498578063e985e9c5146104a1578063f2fde38b146104dd578063f6a74ed7146104f0578063f981f4b41461050357600080fd5b8063d393c8711461042f578063d6e4fa8614610442578063da8c229e14610462578063dba98de51461048557600080fd5b8063b88d4fde116100f4578063b88d4fde146103cc578063b9cce328146103df578063c1a287e2146103ff578063c475abff14610409578063c87b56dd1461041c57600080fd5b806395d89b411461038b57806396e494e814610393578063a22cb465146103a6578063a7fc7a07146103b957600080fd5b806342842e0e116101a857806370a082311161017757806370a0823114610339578063715018a61461034c57806381a5fd7c1461035457806389e39c93146103675780638da5cb5b1461037a57600080fd5b806342842e0e146102ed5780634b0c708f146103005780634e543b26146103135780636352211e1461032657600080fd5b806309b0eb4c116101e457806309b0eb4c1461029357806323b872dd146102b457806328ed4f6c146102c75780633f15457f146102da57600080fd5b806301ffc9a71461021657806306fdde031461023e578063081812fc14610253578063095ea7b31461027e575b600080fd5b610229610224366004611da2565b610516565b60405190151581526020015b60405180910390f35b610246610568565b6040516102359190611e0f565b610266610261366004611e22565b6105fa565b6040516001600160a01b039091168152602001610235565b61029161028c366004611e50565b610621565b005b6102a66102a1366004611ec5565b61073b565b604051908152602001610235565b6102916102c2366004611f22565b610756565b6102916102d5366004611f63565b610787565b600854610266906001600160a01b031681565b6102916102fb366004611f22565b610907565b600c54610266906001600160a01b031681565b610291610321366004611f93565b610922565b610266610334366004611e22565b610997565b6102a6610347366004611f93565b6109fd565b610291610a83565b610291610362366004611f93565b610a97565b600b54610266906001600160a01b031681565b6006546001600160a01b0316610266565b610246610ac1565b6102296103a1366004611e22565b610ad0565b6102916103b4366004611fbe565b610af6565b6102916103c7366004611f93565b610b05565b6102916103da366004612002565b610b59565b6102a66103ed366004611e22565b60076020526000908152604090205481565b6102a66276a70081565b6102a66104173660046120e2565b610b91565b61024661042a366004611e22565b610dfe565b6102a661043d366004611ec5565b610e72565b6102a6610450366004611e22565b60009081526007602052604090205490565b610229610470366004611f93565b600a6020526000908152604090205460ff1681565b610291610493366004611f93565b610e82565b6102a660095481565b6102296104af366004612104565b6001600160a01b03918216600090815260056020908152604080832093909416825291909152205460ff1690565b6102916104eb366004611f93565b610eac565b6102916104fe366004611f93565b610f25565b6102a6610511366004612132565b610f76565b60006001600160e01b031982166301ffc9a760e01b148061054757506001600160e01b031982166380ac58cd60e01b145b8061056257506001600160e01b03198216630a3b53db60e21b145b92915050565b60606000805461057790612174565b80601f01602080910402602001604051908101604052809291908181526020018280546105a390612174565b80156105f05780601f106105c5576101008083540402835291602001916105f0565b820191906000526020600020905b8154815290600101906020018083116105d357829003601f168201915b5050505050905090565b600061060582610f98565b506000908152600460205260409020546001600160a01b031690565b600061062c82610ff7565b9050806001600160a01b0316836001600160a01b03160361069e5760405162461bcd60e51b815260206004820152602160248201527f4552433732313a20617070726f76616c20746f2063757272656e74206f776e656044820152603960f91b60648201526084015b60405180910390fd5b336001600160a01b03821614806106ba57506106ba81336104af565b61072c5760405162461bcd60e51b815260206004820152603d60248201527f4552433732313a20617070726f76652063616c6c6572206973206e6f7420746f60448201527f6b656e206f776e6572206f7220617070726f76656420666f7220616c6c0000006064820152608401610695565b6107368383611057565b505050565b600061074b8585858560006110c5565b90505b949350505050565b61076033826114c6565b61077c5760405162461bcd60e51b8152600401610695906121ae565b610736838383611541565b6008546009546040516302571be360e01b8152600481019190915230916001600160a01b0316906302571be390602401602060405180830381865afa1580156107d4573d6000803e3d6000fd5b505050506040513d601f19601f820116820180604052508101906107f891906121fb565b6001600160a01b03161461081e5760405162461bcd60e51b815260040161069590612218565b61082833836114c6565b6108855760405162461bcd60e51b815260206004820152602860248201527f426173655265676973747261723a204d757374206265206f776e6572206f7220604482015267185c1c1c9bdd995960c21b6064820152608401610695565b6008546009546040516306ab592360e01b81526004810191909152602481018490526001600160a01b038381166044830152909116906306ab5923906064016020604051808303816000875af11580156108e3573d6000803e3d6000fd5b505050506040513d601f19601f820116820180604052508101906107369190612259565b61073683838360405180602001604052806000815250610b59565b61092a6116b2565b600854600954604051630c4b7b8560e11b815260048101919091526001600160a01b03838116602483015290911690631896f70a90604401600060405180830381600087803b15801561097c57600080fd5b505af1158015610990573d6000803e3d6000fd5b5050505050565b60008181526007602052604081205442106109f45760405162461bcd60e51b815260206004820152601f60248201527f426173655265676973747261723a20546f6b656e2049642045787069726564006044820152606401610695565b61056282610ff7565b60006001600160a01b038216610a675760405162461bcd60e51b815260206004820152602960248201527f4552433732313a2061646472657373207a65726f206973206e6f7420612076616044820152683634b21037bbb732b960b91b6064820152608401610695565b506001600160a01b031660009081526003602052604090205490565b610a8b6116b2565b610a95600061170c565b565b610a9f6116b2565b600b80546001600160a01b0319166001600160a01b0392909216919091179055565b60606001805461057790612174565b6000818152600760205260408120544290610aef906276a70090612288565b1092915050565b610b0133838361175e565b5050565b610b0d6116b2565b6001600160a01b0381166000818152600a6020526040808220805460ff19166001179055517f0a8bb31534c0ed46f380cb867bd5c803a189ced9a764e30b3a4991a9901d74749190a250565b610b6333836114c6565b610b7f5760405162461bcd60e51b8152600401610695906121ae565b610b8b8484848461182c565b50505050565b6008546009546040516302571be360e01b8152600481019190915260009130916001600160a01b03909116906302571be390602401602060405180830381865afa158015610be3573d6000803e3d6000fd5b505050506040513d601f19601f82011682018060405250810190610c0791906121fb565b6001600160a01b031614610c2d5760405162461bcd60e51b815260040161069590612218565b336000908152600a602052604090205460ff16610c8c5760405162461bcd60e51b815260206004820152601d60248201527f426173655265676973747261723a206f6e6c79436f6e74726f6c6c65720000006044820152606401610695565b6000838152600760205260409020544290610cab906276a70090612288565b1015610cf95760405162461bcd60e51b815260206004820152601f60248201527f426173655265676973747261723a204e616d65206861732065787069726564006044820152606401610695565b610d066276a70083612288565b6000848152600760205260409020546276a70090610d25908590612288565b610d2f9190612288565b11610d7c5760405162461bcd60e51b815260206004820152601e60248201527f426173655265676973747261723a20457870697279204f766572666c6f7700006044820152606401610695565b60008381526007602052604081208054849290610d9a908490612288565b90915550506000838152600760205260409081902054905184917f9b87a00e30f1ac65d898f070f8a3488fe60517182d0a2098e1b4b93a54aa9bd691610de291815260200190565b60405180910390a2505060009081526007602052604090205490565b6060610e0982610f98565b6000610e2060408051602081019091526000815290565b90506000815111610e405760405180602001604052806000815250610e6b565b80610e4a8461185f565b604051602001610e5b92919061229b565b6040516020818303038152906040525b9392505050565b600061074b8585858560016110c5565b610e8a6116b2565b600c80546001600160a01b0319166001600160a01b0392909216919091179055565b610eb46116b2565b6001600160a01b038116610f195760405162461bcd60e51b815260206004820152602660248201527f4f776e61626c653a206e6577206f776e657220697320746865207a65726f206160448201526564647265737360d01b6064820152608401610695565b610f228161170c565b50565b610f2d6116b2565b6001600160a01b0381166000818152600a6020526040808220805460ff19169055517f33d83959be2573f5453b12eb9d43b3499bc57d96bd2f067ba44803c859e811139190a250565b60008282604051610f889291906122ca565b6040519081900390209392505050565b6000818152600260205260409020546001600160a01b0316610f225760405162461bcd60e51b8152602060048201526018602482015277115490cdcc8c4e881a5b9d985b1a59081d1bdad95b88125160421b6044820152606401610695565b6000818152600260205260408120546001600160a01b0316806105625760405162461bcd60e51b8152602060048201526018602482015277115490cdcc8c4e881a5b9d985b1a59081d1bdad95b88125160421b6044820152606401610695565b600081815260046020526040902080546001600160a01b0319166001600160a01b038416908117909155819061108c82610ff7565b6001600160a01b03167f8c5be1e5ebec7d5bd14f71427d1e84f3dd0314c0f7b2291e5b200ac8c7c3b92560405160405180910390a45050565b6008546009546040516302571be360e01b8152600481019190915260009130916001600160a01b03909116906302571be390602401602060405180830381865afa158015611117573d6000803e3d6000fd5b505050506040513d601f19601f8201168201806040525081019061113b91906121fb565b6001600160a01b0316146111615760405162461bcd60e51b815260040161069590612218565b336000908152600a602052604090205460ff166111c05760405162461bcd60e51b815260206004820152601d60248201527f426173655265676973747261723a206f6e6c79436f6e74726f6c6c65720000006044820152606401610695565b600b54604051630b193e3760e11b8152879187916001600160a01b03909116906316327c6e906111f690859085906004016122da565b602060405180830381865afa158015611213573d6000803e3d6000fd5b505050506040513d601f19601f820116820180604052508101906112379190612309565b156112aa5760405162461bcd60e51b815260206004820152603e60248201527f426173655265676973747261723a20464c5220446f6d61696e20416c7265616460448201527f792045786973747320496e20436f6c6c6973696f6e20526567697374727900006064820152608401610695565b600088886040516112bc9291906122ca565b604051908190039020905060006112d38742612288565b90506112de82610ad0565b6113365760405162461bcd60e51b8152602060048201526024808201527f426173655265676973747261723a204e616d65206973206e6f7420617661696c60448201526361626c6560e01b6064820152608401610695565b6113436276a70042612288565b6113506276a70083612288565b1161139d5760405162461bcd60e51b815260206004820152601e60248201527f426173655265676973747261723a20457870697279204f766572666c6f7700006044820152606401610695565b600082815260076020908152604080832084905560029091529020546001600160a01b0316156113d0576113d0826118f2565b6113da8883611995565b8515611464576008546009546040516306ab592360e01b81526004810191909152602481018490526001600160a01b038a81166044830152909116906306ab5923906064016020604051808303816000875af115801561143e573d6000803e3d6000fd5b505050506040513d601f19601f820116820180604052508101906114629190612259565b505b876001600160a01b0316828b8b60405161147f9291906122ca565b604051908190038120848252907f079fce70129ed89538fa288cfc9021a02ce4b4eaf3d8d2e74acaeee6224cff1d9060200160405180910390a49998505050505050505050565b6000806114d283610997565b9050806001600160a01b0316846001600160a01b0316148061150d5750836001600160a01b0316611502846105fa565b6001600160a01b0316145b8061074e57506001600160a01b0380821660009081526005602090815260408083209388168352929052205460ff1661074e565b826001600160a01b031661155482610ff7565b6001600160a01b03161461157a5760405162461bcd60e51b815260040161069590612326565b6001600160a01b0382166115dc5760405162461bcd60e51b8152602060048201526024808201527f4552433732313a207472616e7366657220746f20746865207a65726f206164646044820152637265737360e01b6064820152608401610695565b6115e98383836001611b2e565b826001600160a01b03166115fc82610ff7565b6001600160a01b0316146116225760405162461bcd60e51b815260040161069590612326565b600081815260046020908152604080832080546001600160a01b03199081169091556001600160a01b0387811680865260038552838620805460001901905590871680865283862080546001019055868652600290945282852080549092168417909155905184937fddf252ad1be2c89b69c2b068fc378daa952ba7f163c4a11628f55a4df523b3ef91a4505050565b6006546001600160a01b03163314610a955760405162461bcd60e51b815260206004820181905260248201527f4f776e61626c653a2063616c6c6572206973206e6f7420746865206f776e65726044820152606401610695565b600680546001600160a01b038381166001600160a01b0319831681179093556040519116919082907f8be0079c531659141344cd1fd0a4f28419497f9722a3daafe3b4186f6b6457e090600090a35050565b816001600160a01b0316836001600160a01b0316036117bf5760405162461bcd60e51b815260206004820152601960248201527f4552433732313a20617070726f766520746f2063616c6c6572000000000000006044820152606401610695565b6001600160a01b03838116600081815260056020908152604080832094871680845294825291829020805460ff191686151590811790915591519182527f17307eab39ab6107e8899845ad3d59bd9653f200f220920489ca2b5937696c31910160405180910390a3505050565b611837848484611541565b61184384848484611bb6565b610b8b5760405162461bcd60e51b81526004016106959061236b565b6060600061186c83611cb4565b600101905060008167ffffffffffffffff81111561188c5761188c611fec565b6040519080825280601f01601f1916602001820160405280156118b6576020820181803683370190505b5090508181016020015b600019016f181899199a1a9b1b9c1cb0b131b232b360811b600a86061a8153600a85049450846118c057509392505050565b60006118fd82610ff7565b905061190d816000846001611b2e565b61191682610ff7565b600083815260046020908152604080832080546001600160a01b03199081169091556001600160a01b0385168085526003845282852080546000190190558785526002909352818420805490911690555192935084927fddf252ad1be2c89b69c2b068fc378daa952ba7f163c4a11628f55a4df523b3ef908390a45050565b6001600160a01b0382166119eb5760405162461bcd60e51b815260206004820181905260248201527f4552433732313a206d696e7420746f20746865207a65726f20616464726573736044820152606401610695565b6000818152600260205260409020546001600160a01b031615611a505760405162461bcd60e51b815260206004820152601c60248201527f4552433732313a20746f6b656e20616c7265616479206d696e746564000000006044820152606401610695565b611a5e600083836001611b2e565b6000818152600260205260409020546001600160a01b031615611ac35760405162461bcd60e51b815260206004820152601c60248201527f4552433732313a20746f6b656e20616c7265616479206d696e746564000000006044820152606401610695565b6001600160a01b038216600081815260036020908152604080832080546001019055848352600290915280822080546001600160a01b0319168417905551839291907fddf252ad1be2c89b69c2b068fc378daa952ba7f163c4a11628f55a4df523b3ef908290a45050565b6001811115610b8b576001600160a01b03841615611b74576001600160a01b03841660009081526003602052604081208054839290611b6e9084906123bd565b90915550505b6001600160a01b03831615610b8b576001600160a01b03831660009081526003602052604081208054839290611bab908490612288565b909155505050505050565b60006001600160a01b0384163b15611cac57604051630a85bd0160e11b81526001600160a01b0385169063150b7a0290611bfa9033908990889088906004016123d0565b6020604051808303816000875af1925050508015611c35575060408051601f3d908101601f19168201909252611c329181019061240d565b60015b611c92573d808015611c63576040519150601f19603f3d011682016040523d82523d6000602084013e611c68565b606091505b508051600003611c8a5760405162461bcd60e51b81526004016106959061236b565b805181602001fd5b6001600160e01b031916630a85bd0160e11b14905061074e565b50600161074e565b60008072184f03e93ff9f4daa797ed6e38ed64bf6a1f0160401b8310611cf35772184f03e93ff9f4daa797ed6e38ed64bf6a1f0160401b830492506040015b6d04ee2d6d415b85acef81000000008310611d1f576d04ee2d6d415b85acef8100000000830492506020015b662386f26fc100008310611d3d57662386f26fc10000830492506010015b6305f5e1008310611d55576305f5e100830492506008015b6127108310611d6957612710830492506004015b60648310611d7b576064830492506002015b600a83106105625760010192915050565b6001600160e01b031981168114610f2257600080fd5b600060208284031215611db457600080fd5b8135610e6b81611d8c565b60005b83811015611dda578181015183820152602001611dc2565b50506000910152565b60008151808452611dfb816020860160208601611dbf565b601f01601f19169290920160200192915050565b602081526000610e6b6020830184611de3565b600060208284031215611e3457600080fd5b5035919050565b6001600160a01b0381168114610f2257600080fd5b60008060408385031215611e6357600080fd5b8235611e6e81611e3b565b946020939093013593505050565b60008083601f840112611e8e57600080fd5b50813567ffffffffffffffff811115611ea657600080fd5b602083019150836020828501011115611ebe57600080fd5b9250929050565b60008060008060608587031215611edb57600080fd5b843567ffffffffffffffff811115611ef257600080fd5b611efe87828801611e7c565b9095509350506020850135611f1281611e3b565b9396929550929360400135925050565b600080600060608486031215611f3757600080fd5b8335611f4281611e3b565b92506020840135611f5281611e3b565b929592945050506040919091013590565b60008060408385031215611f7657600080fd5b823591506020830135611f8881611e3b565b809150509250929050565b600060208284031215611fa557600080fd5b8135610e6b81611e3b565b8015158114610f2257600080fd5b60008060408385031215611fd157600080fd5b8235611fdc81611e3b565b91506020830135611f8881611fb0565b634e487b7160e01b600052604160045260246000fd5b6000806000806080858703121561201857600080fd5b843561202381611e3b565b9350602085013561203381611e3b565b925060408501359150606085013567ffffffffffffffff8082111561205757600080fd5b818701915087601f83011261206b57600080fd5b81358181111561207d5761207d611fec565b604051601f8201601f19908116603f011681019083821181831017156120a5576120a5611fec565b816040528281528a60208487010111156120be57600080fd5b82602086016020830137600060208483010152809550505050505092959194509250565b600080604083850312156120f557600080fd5b50508035926020909101359150565b6000806040838503121561211757600080fd5b823561212281611e3b565b91506020830135611f8881611e3b565b6000806020838503121561214557600080fd5b823567ffffffffffffffff81111561215c57600080fd5b61216885828601611e7c565b90969095509350505050565b600181811c9082168061218857607f821691505b6020821081036121a857634e487b7160e01b600052602260045260246000fd5b50919050565b6020808252602d908201527f4552433732313a2063616c6c6572206973206e6f7420746f6b656e206f776e6560408201526c1c881bdc88185c1c1c9bdd9959609a1b606082015260800190565b60006020828403121561220d57600080fd5b8151610e6b81611e3b565b60208082526021908201527f426173655265676973747261723a2042617365204e6f6465204e6f74204c69766040820152606560f81b606082015260800190565b60006020828403121561226b57600080fd5b5051919050565b634e487b7160e01b600052601160045260246000fd5b8082018082111561056257610562612272565b600083516122ad818460208801611dbf565b8351908301906122c1818360208801611dbf565b01949350505050565b8183823760009101908152919050565b60208152816020820152818360408301376000818301604090810191909152601f909201601f19160101919050565b60006020828403121561231b57600080fd5b8151610e6b81611fb0565b60208082526025908201527f4552433732313a207472616e736665722066726f6d20696e636f72726563742060408201526437bbb732b960d91b606082015260800190565b60208082526032908201527f4552433732313a207472616e7366657220746f206e6f6e20455243373231526560408201527131b2b4bb32b91034b6b83632b6b2b73a32b960711b606082015260800190565b8181038181111561056257610562612272565b6001600160a01b038581168252841660208201526040810183905260806060820181905260009061240390830184611de3565b9695505050505050565b60006020828403121561241f57600080fd5b8151610e6b81611d8c56fea264697066735822122045fb1959752f49e71cc536c538945ec087e7c24459cb8cdf56c4ea286357de4864736f6c63430008130033",
    "linkReferences": {}
  },
  "methodIdentifiers": {
    "GRACE_PERIOD()": "c1a287e2",
    "addController(address)": "a7fc7a07",
    "approve(address,uint256)": "095ea7b3",
    "available(uint256)": "96e494e8",
    "balanceOf(address)": "70a08231",
    "baseNode()": "ddf7fcb0",
    "controllers(address)": "da8c229e",
    "ens()": "3f15457f",
    "expiries(uint256)": "b9cce328",
    "getApproved(uint256)": "081812fc",
    "getLabelId(string)": "f981f4b4",
    "isApprovedForAll(address,address)": "e985e9c5",
    "mintedDomainNamesContract()": "4b0c708f",
    "name()": "06fdde03",
    "nameExpires(uint256)": "d6e4fa86",
    "noNameCollisionsContract()": "89e39c93",
    "owner()": "8da5cb5b",
    "ownerOf(uint256)": "6352211e",
    "reclaim(uint256,address)": "28ed4f6c",
    "register(string,address,uint256)": "d393c871",
    "registerOnly(string,address,uint256)": "09b0eb4c",
    "removeController(address)": "f6a74ed7",
    "renew(uint256,uint256)": "c475abff",
    "renounceOwnership()": "715018a6",
    "safeTransferFrom(address,address,uint256)": "42842e0e",
    "safeTransferFrom(address,address,uint256,bytes)": "b88d4fde",
    "setApprovalForAll(address,bool)": "a22cb465",
    "setResolver(address)": "4e543b26",
    "supportsInterface(bytes4)": "01ffc9a7",
    "symbol()": "95d89b41",
    "tokenURI(uint256)": "c87b56dd",
    "transferFrom(address,address,uint256)": "23b872dd",
    "transferOwnership(address)": "f2fde38b",
    "updateMintedDomainNamesContract(address)": "dba98de5",
    "updateNoNameCollisionContract(address)": "81a5fd7c"
  },
  "id": 73
}