{
  "address": "0xd0b66Bcc2a02cfA55D4b86f4547a3aE94d785C2d",
  "abi": [
    {
      "inputs": [
        {
          "internalType": "contract BaseRegistrar",
          "name": "_base",
          "type": "address"
        },
        {
          "internalType": "contract IPriceOracle",
          "name": "_priceOracle",
          "type": "address"
        },
        {
          "internalType": "uint256",
          "name": "_minCommitmentAge",
          "type": "uint256"
        },
        {
          "internalType": "uint256",
          "name": "_maxCommitmentAge",
          "type": "uint256"
        },
        {
          "internalType": "contract ReverseRegistrar",
          "name": "_reverseRegistrar",
          "type": "address"
        },
        {
          "internalType": "contract INameWrapper",
          "name": "_nameWrapper",
          "type": "address"
        }
      ],
      "stateMutability": "nonpayable",
      "type": "constructor"
    },
    {
      "inputs": [
        {
          "internalType": "bytes32",
          "name": "commitment",
          "type": "bytes32"
        }
      ],
      "name": "CommitmentTooNew",
      "type": "error"
    },
    {
      "inputs": [
        {
          "internalType": "bytes32",
          "name": "commitment",
          "type": "bytes32"
        }
      ],
      "name": "CommitmentTooOld",
      "type": "error"
    },
    {
      "inputs": [
        {
          "internalType": "uint256",
          "name": "duration",
          "type": "uint256"
        }
      ],
      "name": "DurationTooShort",
      "type": "error"
    },
    {
      "inputs": [],
      "name": "InsufficientValue",
      "type": "error"
    },
    {
      "inputs": [],
      "name": "MaxCommitmentAgeTooHigh",
      "type": "error"
    },
    {
      "inputs": [],
      "name": "MaxCommitmentAgeTooLow",
      "type": "error"
    },
    {
      "inputs": [
        {
          "internalType": "string",
          "name": "name",
          "type": "string"
        }
      ],
      "name": "NameNotAvailable",
      "type": "error"
    },
    {
      "inputs": [],
      "name": "ResolverRequiredWhenDataSupplied",
      "type": "error"
    },
    {
      "inputs": [
        {
          "internalType": "bytes32",
          "name": "commitment",
          "type": "bytes32"
        }
      ],
      "name": "UnexpiredCommitmentExists",
      "type": "error"
    },
    {
      "anonymous": false,
      "inputs": [
        {
          "indexed": false,
          "internalType": "string",
          "name": "name",
          "type": "string"
        },
        {
          "indexed": true,
          "internalType": "bytes32",
          "name": "label",
          "type": "bytes32"
        },
        {
          "indexed": true,
          "internalType": "address",
          "name": "owner",
          "type": "address"
        },
        {
          "indexed": false,
          "internalType": "uint256",
          "name": "baseCost",
          "type": "uint256"
        },
        {
          "indexed": false,
          "internalType": "uint256",
          "name": "premium",
          "type": "uint256"
        },
        {
          "indexed": false,
          "internalType": "uint256",
          "name": "expires",
          "type": "uint256"
        }
      ],
      "name": "NameRegistered",
      "type": "event"
    },
    {
      "anonymous": false,
      "inputs": [
        {
          "indexed": false,
          "internalType": "string",
          "name": "name",
          "type": "string"
        },
        {
          "indexed": true,
          "internalType": "bytes32",
          "name": "label",
          "type": "bytes32"
        },
        {
          "indexed": false,
          "internalType": "uint256",
          "name": "cost",
          "type": "uint256"
        },
        {
          "indexed": false,
          "internalType": "uint256",
          "name": "expires",
          "type": "uint256"
        }
      ],
      "name": "NameRenewed",
      "type": "event"
    },
    {
      "anonymous": false,
      "inputs": [
        {
          "indexed": true,
          "internalType": "address",
          "name": "oracle",
          "type": "address"
        }
      ],
      "name": "NewPriceOracle",
      "type": "event"
    },
    {
      "anonymous": false,
      "inputs": [
        {
          "indexed": true,
          "internalType": "address",
          "name": "previousOwner",
          "type": "address"
        },
        {
          "indexed": true,
          "internalType": "address",
          "name": "newOwner",
          "type": "address"
        }
      ],
      "name": "OwnershipTransferred",
      "type": "event"
    },
    {
      "inputs": [],
      "name": "MIN_REGISTRATION_DURATION",
      "outputs": [
        {
          "internalType": "uint256",
          "name": "",
          "type": "uint256"
        }
      ],
      "stateMutability": "view",
      "type": "function"
    },
    {
      "inputs": [
        {
          "internalType": "string",
          "name": "name",
          "type": "string"
        }
      ],
      "name": "available",
      "outputs": [
        {
          "internalType": "bool",
          "name": "",
          "type": "bool"
        }
      ],
      "stateMutability": "view",
      "type": "function"
    },
    {
      "inputs": [
        {
          "internalType": "bytes32",
          "name": "commitment",
          "type": "bytes32"
        }
      ],
      "name": "commit",
      "outputs": [],
      "stateMutability": "nonpayable",
      "type": "function"
    },
    {
      "inputs": [
        {
          "internalType": "bytes32",
          "name": "",
          "type": "bytes32"
        }
      ],
      "name": "commitments",
      "outputs": [
        {
          "internalType": "uint256",
          "name": "",
          "type": "uint256"
        }
      ],
      "stateMutability": "view",
      "type": "function"
    },
    {
      "inputs": [
        {
          "internalType": "string",
          "name": "name",
          "type": "string"
        },
        {
          "internalType": "address",
          "name": "owner",
          "type": "address"
        },
        {
          "internalType": "uint256",
          "name": "duration",
          "type": "uint256"
        },
        {
          "internalType": "bytes32",
          "name": "secret",
          "type": "bytes32"
        },
        {
          "internalType": "address",
          "name": "resolver",
          "type": "address"
        },
        {
          "internalType": "bytes[]",
          "name": "data",
          "type": "bytes[]"
        },
        {
          "internalType": "bool",
          "name": "reverseRecord",
          "type": "bool"
        },
        {
          "internalType": "uint16",
          "name": "ownerControlledFuses",
          "type": "uint16"
        }
      ],
      "name": "makeCommitment",
      "outputs": [
        {
          "internalType": "bytes32",
          "name": "",
          "type": "bytes32"
        }
      ],
      "stateMutability": "pure",
      "type": "function"
    },
    {
      "inputs": [],
      "name": "maxCommitmentAge",
      "outputs": [
        {
          "internalType": "uint256",
          "name": "",
          "type": "uint256"
        }
      ],
      "stateMutability": "view",
      "type": "function"
    },
    {
      "inputs": [],
      "name": "minCommitmentAge",
      "outputs": [
        {
          "internalType": "uint256",
          "name": "",
          "type": "uint256"
        }
      ],
      "stateMutability": "view",
      "type": "function"
    },
    {
      "inputs": [],
      "name": "nameWrapper",
      "outputs": [
        {
          "internalType": "contract INameWrapper",
          "name": "",
          "type": "address"
        }
      ],
      "stateMutability": "view",
      "type": "function"
    },
    {
      "inputs": [],
      "name": "owner",
      "outputs": [
        {
          "internalType": "address",
          "name": "",
          "type": "address"
        }
      ],
      "stateMutability": "view",
      "type": "function"
    },
    {
      "inputs": [],
      "name": "priceOracle",
      "outputs": [
        {
          "internalType": "contract IPriceOracle",
          "name": "",
          "type": "address"
        }
      ],
      "stateMutability": "view",
      "type": "function"
    },
    {
      "inputs": [
        {
          "internalType": "address",
          "name": "_token",
          "type": "address"
        },
        {
          "internalType": "address",
          "name": "_to",
          "type": "address"
        },
        {
          "internalType": "uint256",
          "name": "_amount",
          "type": "uint256"
        }
      ],
      "name": "recoverFunds",
      "outputs": [],
      "stateMutability": "nonpayable",
      "type": "function"
    },
    {
      "inputs": [
        {
          "internalType": "string",
          "name": "name",
          "type": "string"
        },
        {
          "internalType": "address",
          "name": "owner",
          "type": "address"
        },
        {
          "internalType": "uint256",
          "name": "duration",
          "type": "uint256"
        },
        {
          "internalType": "bytes32",
          "name": "secret",
          "type": "bytes32"
        },
        {
          "internalType": "address",
          "name": "resolver",
          "type": "address"
        },
        {
          "internalType": "bytes[]",
          "name": "data",
          "type": "bytes[]"
        },
        {
          "internalType": "bool",
          "name": "reverseRecord",
          "type": "bool"
        },
        {
          "internalType": "uint16",
          "name": "ownerControlledFuses",
          "type": "uint16"
        }
      ],
      "name": "register",
      "outputs": [],
      "stateMutability": "payable",
      "type": "function"
    },
    {
      "inputs": [
        {
          "internalType": "string",
          "name": "name",
          "type": "string"
        },
        {
          "internalType": "uint256",
          "name": "duration",
          "type": "uint256"
        }
      ],
      "name": "renew",
      "outputs": [],
      "stateMutability": "payable",
      "type": "function"
    },
    {
      "inputs": [],
      "name": "renounceOwnership",
      "outputs": [],
      "stateMutability": "nonpayable",
      "type": "function"
    },
    {
      "inputs": [
        {
          "internalType": "string",
          "name": "name",
          "type": "string"
        },
        {
          "internalType": "uint256",
          "name": "duration",
          "type": "uint256"
        }
      ],
      "name": "rentPrice",
      "outputs": [
        {
          "components": [
            {
              "internalType": "uint256",
              "name": "base",
              "type": "uint256"
            },
            {
              "internalType": "uint256",
              "name": "premium",
              "type": "uint256"
            }
          ],
          "internalType": "struct IPriceOracle.Price",
          "name": "price",
          "type": "tuple"
        }
      ],
      "stateMutability": "view",
      "type": "function"
    },
    {
      "inputs": [],
      "name": "reverseRegistrar",
      "outputs": [
        {
          "internalType": "contract ReverseRegistrar",
          "name": "",
          "type": "address"
        }
      ],
      "stateMutability": "view",
      "type": "function"
    },
    {
      "inputs": [
        {
          "internalType": "contract IPriceOracle",
          "name": "_priceOracle",
          "type": "address"
        }
      ],
      "name": "setPriceOracle",
      "outputs": [],
      "stateMutability": "nonpayable",
      "type": "function"
    },
    {
      "inputs": [
        {
          "internalType": "bytes4",
          "name": "interfaceID",
          "type": "bytes4"
        }
      ],
      "name": "supportsInterface",
      "outputs": [
        {
          "internalType": "bool",
          "name": "",
          "type": "bool"
        }
      ],
      "stateMutability": "pure",
      "type": "function"
    },
    {
      "inputs": [
        {
          "internalType": "address",
          "name": "newOwner",
          "type": "address"
        }
      ],
      "name": "transferOwnership",
      "outputs": [],
      "stateMutability": "nonpayable",
      "type": "function"
    },
    {
      "inputs": [
        {
          "internalType": "string",
          "name": "name",
          "type": "string"
        }
      ],
      "name": "valid",
      "outputs": [
        {
          "internalType": "bool",
          "name": "",
          "type": "bool"
        }
      ],
      "stateMutability": "pure",
      "type": "function"
    },
    {
      "inputs": [],
      "name": "withdraw",
      "outputs": [],
      "stateMutability": "nonpayable",
      "type": "function"
    }
  ],
  "bytecode": {
    "object": "0x6101206040523480156200001257600080fd5b5060405162001d9338038062001d9383398101604081905262000035916200012b565b6200004033620000c2565b83831162000061576040516307cb550760e31b815260040160405180910390fd5b428311156200008357604051630b4319e560e21b815260040160405180910390fd5b6001600160a01b03958616608052600180546001600160a01b0319169587169590951790945560a09290925260c052821660e0521661010052620001a8565b600080546001600160a01b038381166001600160a01b0319831681178455604051919092169283917f8be0079c531659141344cd1fd0a4f28419497f9722a3daafe3b4186f6b6457e09190a35050565b6001600160a01b03811681146200012857600080fd5b50565b60008060008060008060c087890312156200014557600080fd5b8651620001528162000112565b6020880151909650620001658162000112565b8095505060408701519350606087015192506080870151620001878162000112565b60a08801519092506200019a8162000112565b809150509295509295509295565b60805160a05160c05160e05161010051611b756200021e600039600081816103800152818161075c0152610aff01526000818161025b015261102c0152600081816103e701528181610cc40152610eb701526000818161030e0152610e590152600081816109740152610c330152611b756000f3fe60806040526004361061012a5760003560e01c806383e7f6ff116100ab578063a8e5fbc01161006f578063a8e5fbc01461036e578063acf1a841146103a2578063aeb8ce9b146103b5578063ce1e09c0146103d5578063f14fcbc814610409578063f2fde38b1461042957600080fd5b806383e7f6ff146102aa5780638a95b09f146102e55780638d839ffe146102fc5780638da5cb5b146103305780639791c0971461034e57600080fd5b806365a69dcf116100f257806365a69dcf146101f3578063715018a61461022157806374694a2b146102365780638086985314610249578063839df9451461027d57600080fd5b806301ffc9a71461012f5780632630c12f146101645780633ccfd60b1461019c578063530e784f146101b35780635d3590d5146101d3575b600080fd5b34801561013b57600080fd5b5061014f61014a3660046111e1565b610449565b60405190151581526020015b60405180910390f35b34801561017057600080fd5b50600154610184906001600160a01b031681565b6040516001600160a01b03909116815260200161015b565b3480156101a857600080fd5b506101b1610480565b005b3480156101bf57600080fd5b506101b16101ce366004611220565b6104bd565b3480156101df57600080fd5b506101b16101ee36600461123d565b61050f565b3480156101ff57600080fd5b5061021361020e3660046113b4565b610590565b60405190815260200161015b565b34801561022d57600080fd5b506101b1610615565b6101b16102443660046114bf565b610629565b34801561025557600080fd5b506101847f000000000000000000000000000000000000000000000000000000000000000081565b34801561028957600080fd5b5061021361029836600461158e565b60026020526000908152604090205481565b3480156102b657600080fd5b506102ca6102c53660046115a7565b61092c565b6040805182518152602092830151928101929092520161015b565b3480156102f157600080fd5b506102136224ea0081565b34801561030857600080fd5b506102137f000000000000000000000000000000000000000000000000000000000000000081565b34801561033c57600080fd5b506000546001600160a01b0316610184565b34801561035a57600080fd5b5061014f6103693660046115ec565b610a46565b34801561037a57600080fd5b506101847f000000000000000000000000000000000000000000000000000000000000000081565b6101b16103b0366004611621565b610a5b565b3480156103c157600080fd5b5061014f6103d03660046115ec565b610c03565b3480156103e157600080fd5b506102137f000000000000000000000000000000000000000000000000000000000000000081565b34801561041557600080fd5b506101b161042436600461158e565b610cad565b34801561043557600080fd5b506101b1610444366004611220565b610d22565b60006001600160e01b031982166301ffc9a760e01b148061047a57506001600160e01b0319821663612e8c0960e01b145b92915050565b600080546040516001600160a01b03909116914780156108fc02929091818181858888f193505050501580156104ba573d6000803e3d6000fd5b50565b6104c5610d98565b600180546001600160a01b0319166001600160a01b0383169081179091556040517ff261845a790fe29bbd6631e2ca4a5bdc83e6eed7c3271d9590d97287e00e912390600090a250565b610517610d98565b60405163a9059cbb60e01b81526001600160a01b0383811660048301526024820183905284169063a9059cbb906044016020604051808303816000875af1158015610566573d6000803e3d6000fd5b505050506040513d601f19601f8201168201806040525081019061058a919061166d565b50505050565b885160208a012060009084158015906105b057506001600160a01b038716155b156105ce576040516334fd817160e21b815260040160405180910390fd5b808a8a8a8a8a8a8a8a6040516020016105ef99989796959493929190611745565b604051602081830303815290604052805190602001209150509998505050505050505050565b61061d610d98565b6106276000610df2565b565b600061066c8b8b8080601f0160208091040260200160405190810160405280939291908181526020018383808284376000920191909152508c925061092c915050565b6020810151815191925061067f916117bf565b34101561069f5760405163044044a560e21b815260040160405180910390fd5b6107428b8b8080601f016020809104026020016040519081016040528093929190818152602001838380828437600081840152601f19601f820116905080830192505050505050508961073d8e8e8080601f016020809104026020016040519081016040528093929190818152602001838380828437600081840152601f19601f820116905080830192505050505050508d8d8d8d8d8d8d8d610590565b610e42565b604051635200a4c160e11b81526000906001600160a01b037f0000000000000000000000000000000000000000000000000000000000000000169063a40149829061079b908f908f908f908f908e908b906004016117d2565b6020604051808303816000875af11580156107ba573d6000803e3d6000fd5b505050506040513d601f19601f820116820180604052508101906107de919061181d565b9050841561080957610809878d8d6040516107fa929190611836565b60405180910390208888610f60565b8315610852576108528c8c8080601f0160208091040260200160405190810160405280939291908181526020018383808284376000920191909152508b925033915061102a9050565b896001600160a01b03168c8c60405161086c929190611836565b60405180910390207f69e37f151eb98a09618ddaa80c8cfaf1ce5996867c489f45b555b412271ebf278e8e86600001518760200151876040516108b3959493929190611846565b60405180910390a3602082015182516108cc91906117bf565b34111561091e576020820151825133916108fc916108ea91906117bf565b6108f49034611877565b6040518115909202916000818181858888f1935050505015801561091c573d6000803e3d6000fd5b505b505050505050505050505050565b604080518082019091526000808252602082015282516020840120600154604051636b727d4360e11b8152600481018390526001600160a01b03918216916350e9a7159187917f0000000000000000000000000000000000000000000000000000000000000000169063d6e4fa8690602401602060405180830381865afa1580156109bb573d6000803e3d6000fd5b505050506040513d601f19601f820116820180604052508101906109df919061181d565b866040518463ffffffff1660e01b81526004016109fe939291906118da565b6040805180830381865afa158015610a1a573d6000803e3d6000fd5b505050506040513d601f19601f82011682018060405250810190610a3e91906118ff565b949350505050565b60006003610a53836110de565b101592915050565b60008383604051610a6d929190611836565b604080519182900382206020601f870181900481028401810190925285835292508291600091610aba9190889088908190840183828082843760009201919091525088925061092c915050565b8051909150341015610adf5760405163044044a560e21b815260040160405180910390fd5b60405163c475abff60e01b815260048101839052602481018590526000907f00000000000000000000000000000000000000000000000000000000000000006001600160a01b03169063c475abff906044016020604051808303816000875af1158015610b50573d6000803e3d6000fd5b505050506040513d601f19601f82011682018060405250810190610b74919061181d565b8251909150341115610bbc57815133906108fc90610b929034611877565b6040518115909202916000818181858888f19350505050158015610bba573d6000803e3d6000fd5b505b837f3da24c024582931cfaf8267d8ed24d13a82a8068d5bd337d30ec45cea4e506ae88883485604051610bf2949392919061194e565b60405180910390a250505050505050565b80516020820120600090610c1683610a46565b8015610ca657506040516312dc929d60e31b8152600481018290527f00000000000000000000000000000000000000000000000000000000000000006001600160a01b0316906396e494e890602401602060405180830381865afa158015610c82573d6000803e3d6000fd5b505050506040513d601f19601f82011682018060405250810190610ca6919061166d565b9392505050565b6000818152600260205260409020544290610ce9907f0000000000000000000000000000000000000000000000000000000000000000906117bf565b10610d0f57604051630a059d7160e01b8152600481018290526024015b60405180910390fd5b6000908152600260205260409020429055565b610d2a610d98565b6001600160a01b038116610d8f5760405162461bcd60e51b815260206004820152602660248201527f4f776e61626c653a206e6577206f776e657220697320746865207a65726f206160448201526564647265737360d01b6064820152608401610d06565b6104ba81610df2565b6000546001600160a01b031633146106275760405162461bcd60e51b815260206004820181905260248201527f4f776e61626c653a2063616c6c6572206973206e6f7420746865206f776e65726044820152606401610d06565b600080546001600160a01b038381166001600160a01b0319831681178455604051919092169283917f8be0079c531659141344cd1fd0a4f28419497f9722a3daafe3b4186f6b6457e09190a35050565b6000818152600260205260409020544290610e7e907f0000000000000000000000000000000000000000000000000000000000000000906117bf565b1115610ea057604051635320bcf960e01b815260048101829052602401610d06565b6000818152600260205260409020544290610edc907f0000000000000000000000000000000000000000000000000000000000000000906117bf565b11610efd5760405163cb7690d760e01b815260048101829052602401610d06565b610f0683610c03565b610f2557826040516308eee0fd60e31b8152600401610d069190611975565b6000818152600260205260408120556224ea00821015610f5b57604051639a71997b60e01b815260048101839052602401610d06565b505050565b604080517ffd9ed02f44147ba87d942b154c98562d831e3a24daea862ee12868ac20f7bcc36020808301919091528183018690528251808303840181526060830193849052805191012063e32954eb60e01b90925285906001600160a01b0382169063e32954eb90610fda90859088908890606401611988565b6000604051808303816000875af1158015610ff9573d6000803e3d6000fd5b505050506040513d6000823e601f3d908101601f1916820160405261102191908101906119ab565b50505050505050565b7f00000000000000000000000000000000000000000000000000000000000000006001600160a01b0316637a806d6b3383858760405160200161106d9190611aaa565b6040516020818303038152906040526040518563ffffffff1660e01b815260040161109b9493929190611ad2565b6020604051808303816000875af11580156110ba573d6000803e3d6000fd5b505050506040513d601f19601f8201168201806040525081019061058a919061181d565b8051600090819081905b808210156111d857600085838151811061110457611104611b10565b01602001516001600160f81b0319169050600160ff1b8110156111335761112c6001846117bf565b92506111c5565b600760fd1b6001600160f81b0319821610156111545761112c6002846117bf565b600f60fc1b6001600160f81b0319821610156111755761112c6003846117bf565b601f60fb1b6001600160f81b0319821610156111965761112c6004846117bf565b603f60fa1b6001600160f81b0319821610156111b75761112c6005846117bf565b6111c26006846117bf565b92505b50826111d081611b26565b9350506110e8565b50909392505050565b6000602082840312156111f357600080fd5b81356001600160e01b031981168114610ca657600080fd5b6001600160a01b03811681146104ba57600080fd5b60006020828403121561123257600080fd5b8135610ca68161120b565b60008060006060848603121561125257600080fd5b833561125d8161120b565b9250602084013561126d8161120b565b929592945050506040919091013590565b634e487b7160e01b600052604160045260246000fd5b604051601f8201601f1916810167ffffffffffffffff811182821017156112bd576112bd61127e565b604052919050565b600067ffffffffffffffff8211156112df576112df61127e565b50601f01601f191660200190565b600082601f8301126112fe57600080fd5b813561131161130c826112c5565b611294565b81815284602083860101111561132657600080fd5b816020850160208301376000918101602001919091529392505050565b60008083601f84011261135557600080fd5b50813567ffffffffffffffff81111561136d57600080fd5b6020830191508360208260051b850101111561138857600080fd5b9250929050565b80151581146104ba57600080fd5b803561ffff811681146113af57600080fd5b919050565b60008060008060008060008060006101008a8c0312156113d357600080fd5b893567ffffffffffffffff808211156113eb57600080fd5b6113f78d838e016112ed565b9a5060208c013591506114098261120b565b90985060408b0135975060608b0135965060808b0135906114298261120b565b90955060a08b0135908082111561143f57600080fd5b5061144c8c828d01611343565b90955093505060c08a01356114608161138f565b915061146e60e08b0161139d565b90509295985092959850929598565b60008083601f84011261148f57600080fd5b50813567ffffffffffffffff8111156114a757600080fd5b60208301915083602082850101111561138857600080fd5b6000806000806000806000806000806101008b8d0312156114df57600080fd5b8a3567ffffffffffffffff808211156114f757600080fd5b6115038e838f0161147d565b909c509a5060208d013591506115188261120b565b90985060408c0135975060608c0135965060808c0135906115388261120b565b90955060a08c0135908082111561154e57600080fd5b5061155b8d828e01611343565b90955093505060c08b013561156f8161138f565b915061157d60e08c0161139d565b90509295989b9194979a5092959850565b6000602082840312156115a057600080fd5b5035919050565b600080604083850312156115ba57600080fd5b823567ffffffffffffffff8111156115d157600080fd5b6115dd858286016112ed565b95602094909401359450505050565b6000602082840312156115fe57600080fd5b813567ffffffffffffffff81111561161557600080fd5b610a3e848285016112ed565b60008060006040848603121561163657600080fd5b833567ffffffffffffffff81111561164d57600080fd5b6116598682870161147d565b909790965060209590950135949350505050565b60006020828403121561167f57600080fd5b8151610ca68161138f565b81835281816020850137506000828201602090810191909152601f909101601f19169091010190565b81835260006020808501808196508560051b810191508460005b878110156117385782840389528135601e198836030181126116ee57600080fd5b8701858101903567ffffffffffffffff81111561170a57600080fd5b80360382131561171957600080fd5b61172486828461168a565b9a87019a95505050908401906001016116cd565b5091979650505050505050565b8981526001600160a01b03898116602083015260408201899052606082018890528616608082015261010060a0820181905260009061178783820187896116b3565b94151560c0840152505061ffff9190911660e090910152979650505050505050565b634e487b7160e01b600052601160045260246000fd5b8082018082111561047a5761047a6117a9565b60a0815260006117e660a08301888a61168a565b6001600160a01b03968716602084015260408301959095525091909316606082015261ffff90921660809092019190915292915050565b60006020828403121561182f57600080fd5b5051919050565b8183823760009101908152919050565b60808152600061185a60808301878961168a565b602083019590955250604081019290925260609091015292915050565b8181038181111561047a5761047a6117a9565b60005b838110156118a557818101518382015260200161188d565b50506000910152565b600081518084526118c681602086016020860161188a565b601f01601f19169290920160200192915050565b6060815260006118ed60608301866118ae565b60208301949094525060400152919050565b60006040828403121561191157600080fd5b6040516040810181811067ffffffffffffffff821117156119345761193461127e565b604052825181526020928301519281019290925250919050565b60608152600061196260608301868861168a565b6020830194909452506040015292915050565b602081526000610ca660208301846118ae565b8381526040602082015260006119a26040830184866116b3565b95945050505050565b600060208083850312156119be57600080fd5b825167ffffffffffffffff808211156119d657600080fd5b818501915085601f8301126119ea57600080fd5b8151818111156119fc576119fc61127e565b8060051b611a0b858201611294565b9182528381018501918581019089841115611a2557600080fd5b86860192505b83831015611a9d57825185811115611a435760008081fd5b8601603f81018b13611a555760008081fd5b878101516040611a6761130c836112c5565b8281528d82848601011115611a7c5760008081fd5b611a8b838c830184870161188a565b85525050509186019190860190611a2b565b9998505050505050505050565b60008251611abc81846020870161188a565b6305ccae8d60e31b920191825250600401919050565b6001600160a01b038581168252848116602083015283166040820152608060608201819052600090611b06908301846118ae565b9695505050505050565b634e487b7160e01b600052603260045260246000fd5b600060018201611b3857611b386117a9565b506001019056fea26469706673582212208c8393b20c63323998812631907318e35f203f543a4fee8b15bc1155196c04c264736f6c63430008130033",
    "linkReferences": {}
  },
  "methodIdentifiers": {
    "MIN_REGISTRATION_DURATION()": "8a95b09f",
    "available(string)": "aeb8ce9b",
    "commit(bytes32)": "f14fcbc8",
    "commitments(bytes32)": "839df945",
    "makeCommitment(string,address,uint256,bytes32,address,bytes[],bool,uint16)": "65a69dcf",
    "maxCommitmentAge()": "ce1e09c0",
    "minCommitmentAge()": "8d839ffe",
    "nameWrapper()": "a8e5fbc0",
    "owner()": "8da5cb5b",
    "priceOracle()": "2630c12f",
    "recoverFunds(address,address,uint256)": "5d3590d5",
    "register(string,address,uint256,bytes32,address,bytes[],bool,uint16)": "74694a2b",
    "renew(string,uint256)": "acf1a841",
    "renounceOwnership()": "715018a6",
    "rentPrice(string,uint256)": "83e7f6ff",
    "reverseRegistrar()": "80869853",
    "setPriceOracle(address)": "530e784f",
    "supportsInterface(bytes4)": "01ffc9a7",
    "transferOwnership(address)": "f2fde38b",
    "valid(string)": "9791c097",
    "withdraw()": "3ccfd60b"
  },
  "id": 76
}