{
  "address": "0xbba7676bFb325ea52b6e36D67C877ceaF2A31A23",
  "abi": [
    {
      "inputs": [
        {
          "internalType": "contract BaseRegistrar",
          "name": "_base",
          "type": "address"
        },
        {
          "internalType": "contract IPriceOracle",
          "name": "_priceOracle",
          "type": "address"
        },
        {
          "internalType": "uint256",
          "name": "_minCommitmentAge",
          "type": "uint256"
        },
        {
          "internalType": "uint256",
          "name": "_maxCommitmentAge",
          "type": "uint256"
        },
        {
          "internalType": "contract ReverseRegistrar",
          "name": "_reverseRegistrar",
          "type": "address"
        },
        {
          "internalType": "contract INameWrapper",
          "name": "_nameWrapper",
          "type": "address"
        }
      ],
      "stateMutability": "nonpayable",
      "type": "constructor"
    },
    {
      "inputs": [
        {
          "internalType": "bytes32",
          "name": "commitment",
          "type": "bytes32"
        }
      ],
      "name": "CommitmentTooNew",
      "type": "error"
    },
    {
      "inputs": [
        {
          "internalType": "bytes32",
          "name": "commitment",
          "type": "bytes32"
        }
      ],
      "name": "CommitmentTooOld",
      "type": "error"
    },
    {
      "inputs": [
        {
          "internalType": "uint256",
          "name": "duration",
          "type": "uint256"
        }
      ],
      "name": "DurationTooShort",
      "type": "error"
    },
    {
      "inputs": [],
      "name": "InsufficientValue",
      "type": "error"
    },
    {
      "inputs": [],
      "name": "MaxCommitmentAgeTooHigh",
      "type": "error"
    },
    {
      "inputs": [],
      "name": "MaxCommitmentAgeTooLow",
      "type": "error"
    },
    {
      "inputs": [
        {
          "internalType": "string",
          "name": "name",
          "type": "string"
        }
      ],
      "name": "NameNotAvailable",
      "type": "error"
    },
    {
      "inputs": [],
      "name": "ResolverRequiredWhenDataSupplied",
      "type": "error"
    },
    {
      "inputs": [
        {
          "internalType": "bytes32",
          "name": "commitment",
          "type": "bytes32"
        }
      ],
      "name": "UnexpiredCommitmentExists",
      "type": "error"
    },
    {
      "anonymous": false,
      "inputs": [
        {
          "indexed": false,
          "internalType": "string",
          "name": "name",
          "type": "string"
        },
        {
          "indexed": true,
          "internalType": "bytes32",
          "name": "label",
          "type": "bytes32"
        },
        {
          "indexed": true,
          "internalType": "address",
          "name": "owner",
          "type": "address"
        },
        {
          "indexed": false,
          "internalType": "uint256",
          "name": "baseCost",
          "type": "uint256"
        },
        {
          "indexed": false,
          "internalType": "uint256",
          "name": "premium",
          "type": "uint256"
        },
        {
          "indexed": false,
          "internalType": "uint256",
          "name": "expires",
          "type": "uint256"
        }
      ],
      "name": "NameRegistered",
      "type": "event"
    },
    {
      "anonymous": false,
      "inputs": [
        {
          "indexed": false,
          "internalType": "string",
          "name": "name",
          "type": "string"
        },
        {
          "indexed": true,
          "internalType": "bytes32",
          "name": "label",
          "type": "bytes32"
        },
        {
          "indexed": false,
          "internalType": "uint256",
          "name": "cost",
          "type": "uint256"
        },
        {
          "indexed": false,
          "internalType": "uint256",
          "name": "expires",
          "type": "uint256"
        }
      ],
      "name": "NameRenewed",
      "type": "event"
    },
    {
      "anonymous": false,
      "inputs": [
        {
          "indexed": true,
          "internalType": "address",
          "name": "oracle",
          "type": "address"
        }
      ],
      "name": "NewPriceOracle",
      "type": "event"
    },
    {
      "anonymous": false,
      "inputs": [
        {
          "indexed": true,
          "internalType": "address",
          "name": "previousOwner",
          "type": "address"
        },
        {
          "indexed": true,
          "internalType": "address",
          "name": "newOwner",
          "type": "address"
        }
      ],
      "name": "OwnershipTransferred",
      "type": "event"
    },
    {
      "inputs": [],
      "name": "MIN_REGISTRATION_DURATION",
      "outputs": [
        {
          "internalType": "uint256",
          "name": "",
          "type": "uint256"
        }
      ],
      "stateMutability": "view",
      "type": "function"
    },
    {
      "inputs": [
        {
          "internalType": "string",
          "name": "name",
          "type": "string"
        }
      ],
      "name": "available",
      "outputs": [
        {
          "internalType": "bool",
          "name": "",
          "type": "bool"
        }
      ],
      "stateMutability": "view",
      "type": "function"
    },
    {
      "inputs": [
        {
          "internalType": "bytes32",
          "name": "commitment",
          "type": "bytes32"
        }
      ],
      "name": "commit",
      "outputs": [],
      "stateMutability": "nonpayable",
      "type": "function"
    },
    {
      "inputs": [
        {
          "internalType": "bytes32",
          "name": "",
          "type": "bytes32"
        }
      ],
      "name": "commitments",
      "outputs": [
        {
          "internalType": "uint256",
          "name": "",
          "type": "uint256"
        }
      ],
      "stateMutability": "view",
      "type": "function"
    },
    {
      "inputs": [
        {
          "internalType": "string",
          "name": "name",
          "type": "string"
        },
        {
          "internalType": "address",
          "name": "owner",
          "type": "address"
        },
        {
          "internalType": "uint256",
          "name": "duration",
          "type": "uint256"
        },
        {
          "internalType": "bytes32",
          "name": "secret",
          "type": "bytes32"
        },
        {
          "internalType": "address",
          "name": "resolver",
          "type": "address"
        },
        {
          "internalType": "bytes[]",
          "name": "data",
          "type": "bytes[]"
        },
        {
          "internalType": "bool",
          "name": "reverseRecord",
          "type": "bool"
        },
        {
          "internalType": "uint16",
          "name": "ownerControlledFuses",
          "type": "uint16"
        }
      ],
      "name": "makeCommitment",
      "outputs": [
        {
          "internalType": "bytes32",
          "name": "",
          "type": "bytes32"
        }
      ],
      "stateMutability": "pure",
      "type": "function"
    },
    {
      "inputs": [],
      "name": "maxCommitmentAge",
      "outputs": [
        {
          "internalType": "uint256",
          "name": "",
          "type": "uint256"
        }
      ],
      "stateMutability": "view",
      "type": "function"
    },
    {
      "inputs": [],
      "name": "minCommitmentAge",
      "outputs": [
        {
          "internalType": "uint256",
          "name": "",
          "type": "uint256"
        }
      ],
      "stateMutability": "view",
      "type": "function"
    },
    {
      "inputs": [],
      "name": "nameWrapper",
      "outputs": [
        {
          "internalType": "contract INameWrapper",
          "name": "",
          "type": "address"
        }
      ],
      "stateMutability": "view",
      "type": "function"
    },
    {
      "inputs": [],
      "name": "owner",
      "outputs": [
        {
          "internalType": "address",
          "name": "",
          "type": "address"
        }
      ],
      "stateMutability": "view",
      "type": "function"
    },
    {
      "inputs": [],
      "name": "priceOracle",
      "outputs": [
        {
          "internalType": "contract IPriceOracle",
          "name": "",
          "type": "address"
        }
      ],
      "stateMutability": "view",
      "type": "function"
    },
    {
      "inputs": [
        {
          "internalType": "address",
          "name": "_token",
          "type": "address"
        },
        {
          "internalType": "address",
          "name": "_to",
          "type": "address"
        },
        {
          "internalType": "uint256",
          "name": "_amount",
          "type": "uint256"
        }
      ],
      "name": "recoverFunds",
      "outputs": [],
      "stateMutability": "nonpayable",
      "type": "function"
    },
    {
      "inputs": [
        {
          "internalType": "string",
          "name": "name",
          "type": "string"
        },
        {
          "internalType": "address",
          "name": "owner",
          "type": "address"
        },
        {
          "internalType": "uint256",
          "name": "duration",
          "type": "uint256"
        },
        {
          "internalType": "bytes32",
          "name": "secret",
          "type": "bytes32"
        },
        {
          "internalType": "address",
          "name": "resolver",
          "type": "address"
        },
        {
          "internalType": "bytes[]",
          "name": "data",
          "type": "bytes[]"
        },
        {
          "internalType": "bool",
          "name": "reverseRecord",
          "type": "bool"
        },
        {
          "internalType": "uint16",
          "name": "ownerControlledFuses",
          "type": "uint16"
        }
      ],
      "name": "register",
      "outputs": [],
      "stateMutability": "payable",
      "type": "function"
    },
    {
      "inputs": [
        {
          "internalType": "string",
          "name": "name",
          "type": "string"
        },
        {
          "internalType": "uint256",
          "name": "duration",
          "type": "uint256"
        }
      ],
      "name": "renew",
      "outputs": [],
      "stateMutability": "payable",
      "type": "function"
    },
    {
      "inputs": [],
      "name": "renounceOwnership",
      "outputs": [],
      "stateMutability": "nonpayable",
      "type": "function"
    },
    {
      "inputs": [
        {
          "internalType": "string",
          "name": "name",
          "type": "string"
        },
        {
          "internalType": "uint256",
          "name": "duration",
          "type": "uint256"
        }
      ],
      "name": "rentPrice",
      "outputs": [
        {
          "components": [
            {
              "internalType": "uint256",
              "name": "base",
              "type": "uint256"
            },
            {
              "internalType": "uint256",
              "name": "premium",
              "type": "uint256"
            }
          ],
          "internalType": "struct IPriceOracle.Price",
          "name": "price",
          "type": "tuple"
        }
      ],
      "stateMutability": "view",
      "type": "function"
    },
    {
      "inputs": [],
      "name": "reverseRegistrar",
      "outputs": [
        {
          "internalType": "contract ReverseRegistrar",
          "name": "",
          "type": "address"
        }
      ],
      "stateMutability": "view",
      "type": "function"
    },
    {
      "inputs": [
        {
          "internalType": "contract IPriceOracle",
          "name": "_priceOracle",
          "type": "address"
        }
      ],
      "name": "setPriceOracle",
      "outputs": [],
      "stateMutability": "nonpayable",
      "type": "function"
    },
    {
      "inputs": [
        {
          "internalType": "bytes4",
          "name": "interfaceID",
          "type": "bytes4"
        }
      ],
      "name": "supportsInterface",
      "outputs": [
        {
          "internalType": "bool",
          "name": "",
          "type": "bool"
        }
      ],
      "stateMutability": "pure",
      "type": "function"
    },
    {
      "inputs": [
        {
          "internalType": "address",
          "name": "newOwner",
          "type": "address"
        }
      ],
      "name": "transferOwnership",
      "outputs": [],
      "stateMutability": "nonpayable",
      "type": "function"
    },
    {
      "inputs": [
        {
          "internalType": "string",
          "name": "name",
          "type": "string"
        }
      ],
      "name": "valid",
      "outputs": [
        {
          "internalType": "bool",
          "name": "",
          "type": "bool"
        }
      ],
      "stateMutability": "pure",
      "type": "function"
    },
    {
      "inputs": [],
      "name": "withdraw",
      "outputs": [],
      "stateMutability": "nonpayable",
      "type": "function"
    }
  ],
  "bytecode": {
    "object": "0x6101206040523480156200001257600080fd5b50604051620020cf380380620020cf833981016040819052620000359162000215565b620000403362000140565b838311620000a05760408051808201909152601d81527f726576657274204d6178436f6d6d69746d656e74416765546f6f4c6f770000006020820152620000879062000190565b6040516307cb550760e31b815260040160405180910390fd5b42831115620001015760408051808201909152601e81527f726576657274204d6178436f6d6d69746d656e74416765546f6f4869676800006020820152620000e89062000190565b604051630b4319e560e21b815260040160405180910390fd5b6001600160a01b03958616608052600180546001600160a01b0319169587169590951790945560a09290925260c052821660e0521661010052620002e2565b600080546001600160a01b038381166001600160a01b0319831681178455604051919092169283917f8be0079c531659141344cd1fd0a4f28419497f9722a3daafe3b4186f6b6457e09190a35050565b620001db81604051602401620001a7919062000292565b60408051601f198184030181529190526020810180516001600160e01b0390811663104c13eb60e21b17909152620001de16565b50565b80516a636f6e736f6c652e6c6f67602083016000808483855afa5050505050565b6001600160a01b0381168114620001db57600080fd5b60008060008060008060c087890312156200022f57600080fd5b86516200023c81620001ff565b60208801519096506200024f81620001ff565b80955050604087015193506060870151925060808701516200027181620001ff565b60a08801519092506200028481620001ff565b809150509295509295509295565b600060208083528351808285015260005b81811015620002c157858101830151858201604001528201620002a3565b506000604082860101526040601f19601f8301168501019250505092915050565b60805160a05160c05160e05161010051611d776200035860003960008181610380015281816107950152610b5801526000818161025b01526111e10152600081816103e701528181610d1d0152610fb201526000818161030e0152610f160152600081816109ad0152610c8c0152611d776000f3fe60806040526004361061012a5760003560e01c806383e7f6ff116100ab578063a8e5fbc01161006f578063a8e5fbc01461036e578063acf1a841146103a2578063aeb8ce9b146103b5578063ce1e09c0146103d5578063f14fcbc814610409578063f2fde38b1461042957600080fd5b806383e7f6ff146102aa5780638a95b09f146102e55780638d839ffe146102fc5780638da5cb5b146103305780639791c0971461034e57600080fd5b806365a69dcf116100f257806365a69dcf146101f3578063715018a61461022157806374694a2b146102365780638086985314610249578063839df9451461027d57600080fd5b806301ffc9a71461012f5780632630c12f146101645780633ccfd60b1461019c578063530e784f146101b35780635d3590d5146101d3575b600080fd5b34801561013b57600080fd5b5061014f61014a3660046113b7565b610449565b60405190151581526020015b60405180910390f35b34801561017057600080fd5b50600154610184906001600160a01b031681565b6040516001600160a01b03909116815260200161015b565b3480156101a857600080fd5b506101b1610480565b005b3480156101bf57600080fd5b506101b16101ce3660046113f6565b6104bd565b3480156101df57600080fd5b506101b16101ee366004611413565b61050f565b3480156101ff57600080fd5b5061021361020e36600461158a565b610590565b60405190815260200161015b565b34801561022d57600080fd5b506101b1610615565b6101b1610244366004611695565b610629565b34801561025557600080fd5b506101847f000000000000000000000000000000000000000000000000000000000000000081565b34801561028957600080fd5b50610213610298366004611764565b60026020526000908152604090205481565b3480156102b657600080fd5b506102ca6102c536600461177d565b610965565b6040805182518152602092830151928101929092520161015b565b3480156102f157600080fd5b506102136224ea0081565b34801561030857600080fd5b506102137f000000000000000000000000000000000000000000000000000000000000000081565b34801561033c57600080fd5b506000546001600160a01b0316610184565b34801561035a57600080fd5b5061014f6103693660046117c2565b610a7f565b34801561037a57600080fd5b506101847f000000000000000000000000000000000000000000000000000000000000000081565b6101b16103b03660046117f7565b610a94565b3480156103c157600080fd5b5061014f6103d03660046117c2565b610c5c565b3480156103e157600080fd5b506102137f000000000000000000000000000000000000000000000000000000000000000081565b34801561041557600080fd5b506101b1610424366004611764565b610d06565b34801561043557600080fd5b506101b16104443660046113f6565b610d9c565b60006001600160e01b031982166301ffc9a760e01b148061047a57506001600160e01b0319821663612e8c0960e01b145b92915050565b600080546040516001600160a01b03909116914780156108fc02929091818181858888f193505050501580156104ba573d6000803e3d6000fd5b50565b6104c5610e12565b600180546001600160a01b0319166001600160a01b0383169081179091556040517ff261845a790fe29bbd6631e2ca4a5bdc83e6eed7c3271d9590d97287e00e912390600090a250565b610517610e12565b60405163a9059cbb60e01b81526001600160a01b0383811660048301526024820183905284169063a9059cbb906044016020604051808303816000875af1158015610566573d6000803e3d6000fd5b505050506040513d601f19601f8201168201806040525081019061058a9190611843565b50505050565b885160208a012060009084158015906105b057506001600160a01b038716155b156105ce576040516334fd817160e21b815260040160405180910390fd5b808a8a8a8a8a8a8a8a6040516020016105ef9998979695949392919061191b565b604051602081830303815290604052805190602001209150509998505050505050505050565b61061d610e12565b6106276000610e6c565b565b600061066c8b8b8080601f0160208091040260200160405190810160405280939291908181526020018383808284376000920191909152508c9250610965915050565b6020810151815191925061067f91611995565b3410156106d8576106bf6040518060400160405280601881526020017772657665727420496e73756666696369656e7456616c756560401b815250610ebc565b60405163044044a560e21b815260040160405180910390fd5b61077b8b8b8080601f016020809104026020016040519081016040528093929190818152602001838380828437600081840152601f19601f82011690508083019250505050505050896107768e8e8080601f016020809104026020016040519081016040528093929190818152602001838380828437600081840152601f19601f820116905080830192505050505050508d8d8d8d8d8d8d8d610590565b610eff565b604051635200a4c160e11b81526000906001600160a01b037f0000000000000000000000000000000000000000000000000000000000000000169063a4014982906107d4908f908f908f908f908e908b906004016119a8565b6020604051808303816000875af11580156107f3573d6000803e3d6000fd5b505050506040513d601f19601f8201168201806040525081019061081791906119f3565b9050841561084257610842878d8d604051610833929190611a0c565b60405180910390208888611115565b831561088b5761088b8c8c8080601f0160208091040260200160405190810160405280939291908181526020018383808284376000920191909152508b92503391506111df9050565b896001600160a01b03168c8c6040516108a5929190611a0c565b60405180910390207f69e37f151eb98a09618ddaa80c8cfaf1ce5996867c489f45b555b412271ebf278e8e86600001518760200151876040516108ec959493929190611a1c565b60405180910390a3602082015182516109059190611995565b341115610957576020820151825133916108fc916109239190611995565b61092d9034611a4d565b6040518115909202916000818181858888f19350505050158015610955573d6000803e3d6000fd5b505b505050505050505050505050565b604080518082019091526000808252602082015282516020840120600154604051636b727d4360e11b8152600481018390526001600160a01b03918216916350e9a7159187917f0000000000000000000000000000000000000000000000000000000000000000169063d6e4fa8690602401602060405180830381865afa1580156109f4573d6000803e3d6000fd5b505050506040513d601f19601f82011682018060405250810190610a1891906119f3565b866040518463ffffffff1660e01b8152600401610a3793929190611ab0565b6040805180830381865afa158015610a53573d6000803e3d6000fd5b505050506040513d601f19601f82011682018060405250810190610a779190611ad5565b949350505050565b60006003610a8c83611293565b101592915050565b60008383604051610aa6929190611a0c565b604080519182900382206020601f870181900481028401810190925285835292508291600091610af391908890889081908401838280828437600092019190915250889250610965915050565b8051909150341015610b38576106bf6040518060400160405280601881526020017772657665727420496e73756666696369656e7456616c756560401b815250610ebc565b60405163c475abff60e01b815260048101839052602481018590526000907f00000000000000000000000000000000000000000000000000000000000000006001600160a01b03169063c475abff906044016020604051808303816000875af1158015610ba9573d6000803e3d6000fd5b505050506040513d601f19601f82011682018060405250810190610bcd91906119f3565b8251909150341115610c1557815133906108fc90610beb9034611a4d565b6040518115909202916000818181858888f19350505050158015610c13573d6000803e3d6000fd5b505b837f3da24c024582931cfaf8267d8ed24d13a82a8068d5bd337d30ec45cea4e506ae88883485604051610c4b9493929190611b24565b60405180910390a250505050505050565b80516020820120600090610c6f83610a7f565b8015610cff57506040516312dc929d60e31b8152600481018290527f00000000000000000000000000000000000000000000000000000000000000006001600160a01b0316906396e494e890602401602060405180830381865afa158015610cdb573d6000803e3d6000fd5b505050506040513d601f19601f82011682018060405250810190610cff9190611843565b9392505050565b6000818152600260205260409020544290610d42907f000000000000000000000000000000000000000000000000000000000000000090611995565b10610d8957610d686040518060600160405280602c8152602001611d16602c9139610ebc565b604051630a059d7160e01b8152600481018290526024015b60405180910390fd5b6000908152600260205260409020429055565b610da4610e12565b6001600160a01b038116610e095760405162461bcd60e51b815260206004820152602660248201527f4f776e61626c653a206e6577206f776e657220697320746865207a65726f206160448201526564647265737360d01b6064820152608401610d80565b6104ba81610e6c565b6000546001600160a01b031633146106275760405162461bcd60e51b815260206004820181905260248201527f4f776e61626c653a2063616c6c6572206973206e6f7420746865206f776e65726044820152606401610d80565b600080546001600160a01b038381166001600160a01b0319831681178455604051919092169283917f8be0079c531659141344cd1fd0a4f28419497f9722a3daafe3b4186f6b6457e09190a35050565b6104ba81604051602401610ed09190611b4b565b60408051601f198184030181529190526020810180516001600160e01b031663104c13eb60e21b179052611396565b6000818152600260205260409020544290610f3b907f000000000000000000000000000000000000000000000000000000000000000090611995565b1115610f9b57610f7f6040518060400160405280601781526020017f72657665727420436f6d6d69746d656e74546f6f4e6577000000000000000000815250610ebc565b604051635320bcf960e01b815260048101829052602401610d80565b6000818152600260205260409020544290610fd7907f000000000000000000000000000000000000000000000000000000000000000090611995565b116110365761101a6040518060400160405280601781526020017f72657665727420436f6d6d69746d656e74546f6f4f6c64000000000000000000815250610ebc565b60405163cb7690d760e01b815260048101829052602401610d80565b61103f83610c5c565b61109c576110816040518060400160405280601781526020017f726576657274204e616d654e6f74417661696c61626c65000000000000000000815250610ebc565b826040516308eee0fd60e31b8152600401610d809190611b4b565b6000818152600260205260408120556224ea00821015611110576110f46040518060400160405280601781526020017f726576657274204475726174696f6e546f6f53686f7274000000000000000000815250610ebc565b604051639a71997b60e01b815260048101839052602401610d80565b505050565b604080517ffd9ed02f44147ba87d942b154c98562d831e3a24daea862ee12868ac20f7bcc36020808301919091528183018690528251808303840181526060830193849052805191012063e32954eb60e01b90925285906001600160a01b0382169063e32954eb9061118f90859088908890606401611b5e565b6000604051808303816000875af11580156111ae573d6000803e3d6000fd5b505050506040513d6000823e601f3d908101601f191682016040526111d69190810190611b81565b50505050505050565b7f00000000000000000000000000000000000000000000000000000000000000006001600160a01b0316637a806d6b338385876040516020016112229190611c80565b6040516020818303038152906040526040518563ffffffff1660e01b81526004016112509493929190611ca8565b6020604051808303816000875af115801561126f573d6000803e3d6000fd5b505050506040513d601f19601f8201168201806040525081019061058a91906119f3565b8051600090819081905b8082101561138d5760008583815181106112b9576112b9611ce6565b01602001516001600160f81b0319169050600160ff1b8110156112e8576112e1600184611995565b925061137a565b600760fd1b6001600160f81b031982161015611309576112e1600284611995565b600f60fc1b6001600160f81b03198216101561132a576112e1600384611995565b601f60fb1b6001600160f81b03198216101561134b576112e1600484611995565b603f60fa1b6001600160f81b03198216101561136c576112e1600584611995565b611377600684611995565b92505b508261138581611cfc565b93505061129d565b50909392505050565b80516a636f6e736f6c652e6c6f67602083016000808483855afa5050505050565b6000602082840312156113c957600080fd5b81356001600160e01b031981168114610cff57600080fd5b6001600160a01b03811681146104ba57600080fd5b60006020828403121561140857600080fd5b8135610cff816113e1565b60008060006060848603121561142857600080fd5b8335611433816113e1565b92506020840135611443816113e1565b929592945050506040919091013590565b634e487b7160e01b600052604160045260246000fd5b604051601f8201601f1916810167ffffffffffffffff8111828210171561149357611493611454565b604052919050565b600067ffffffffffffffff8211156114b5576114b5611454565b50601f01601f191660200190565b600082601f8301126114d457600080fd5b81356114e76114e28261149b565b61146a565b8181528460208386010111156114fc57600080fd5b816020850160208301376000918101602001919091529392505050565b60008083601f84011261152b57600080fd5b50813567ffffffffffffffff81111561154357600080fd5b6020830191508360208260051b850101111561155e57600080fd5b9250929050565b80151581146104ba57600080fd5b803561ffff8116811461158557600080fd5b919050565b60008060008060008060008060006101008a8c0312156115a957600080fd5b893567ffffffffffffffff808211156115c157600080fd5b6115cd8d838e016114c3565b9a5060208c013591506115df826113e1565b90985060408b0135975060608b0135965060808b0135906115ff826113e1565b90955060a08b0135908082111561161557600080fd5b506116228c828d01611519565b90955093505060c08a013561163681611565565b915061164460e08b01611573565b90509295985092959850929598565b60008083601f84011261166557600080fd5b50813567ffffffffffffffff81111561167d57600080fd5b60208301915083602082850101111561155e57600080fd5b6000806000806000806000806000806101008b8d0312156116b557600080fd5b8a3567ffffffffffffffff808211156116cd57600080fd5b6116d98e838f01611653565b909c509a5060208d013591506116ee826113e1565b90985060408c0135975060608c0135965060808c01359061170e826113e1565b90955060a08c0135908082111561172457600080fd5b506117318d828e01611519565b90955093505060c08b013561174581611565565b915061175360e08c01611573565b90509295989b9194979a5092959850565b60006020828403121561177657600080fd5b5035919050565b6000806040838503121561179057600080fd5b823567ffffffffffffffff8111156117a757600080fd5b6117b3858286016114c3565b95602094909401359450505050565b6000602082840312156117d457600080fd5b813567ffffffffffffffff8111156117eb57600080fd5b610a77848285016114c3565b60008060006040848603121561180c57600080fd5b833567ffffffffffffffff81111561182357600080fd5b61182f86828701611653565b909790965060209590950135949350505050565b60006020828403121561185557600080fd5b8151610cff81611565565b81835281816020850137506000828201602090810191909152601f909101601f19169091010190565b81835260006020808501808196508560051b810191508460005b8781101561190e5782840389528135601e198836030181126118c457600080fd5b8701858101903567ffffffffffffffff8111156118e057600080fd5b8036038213156118ef57600080fd5b6118fa868284611860565b9a87019a95505050908401906001016118a3565b5091979650505050505050565b8981526001600160a01b03898116602083015260408201899052606082018890528616608082015261010060a0820181905260009061195d8382018789611889565b94151560c0840152505061ffff9190911660e090910152979650505050505050565b634e487b7160e01b600052601160045260246000fd5b8082018082111561047a5761047a61197f565b60a0815260006119bc60a08301888a611860565b6001600160a01b03968716602084015260408301959095525091909316606082015261ffff90921660809092019190915292915050565b600060208284031215611a0557600080fd5b5051919050565b8183823760009101908152919050565b608081526000611a30608083018789611860565b602083019590955250604081019290925260609091015292915050565b8181038181111561047a5761047a61197f565b60005b83811015611a7b578181015183820152602001611a63565b50506000910152565b60008151808452611a9c816020860160208601611a60565b601f01601f19169290920160200192915050565b606081526000611ac36060830186611a84565b60208301949094525060400152919050565b600060408284031215611ae757600080fd5b6040516040810181811067ffffffffffffffff82111715611b0a57611b0a611454565b604052825181526020928301519281019290925250919050565b606081526000611b38606083018688611860565b6020830194909452506040015292915050565b602081526000610cff6020830184611a84565b838152604060208201526000611b78604083018486611889565b95945050505050565b60006020808385031215611b9457600080fd5b825167ffffffffffffffff80821115611bac57600080fd5b818501915085601f830112611bc057600080fd5b815181811115611bd257611bd2611454565b8060051b611be185820161146a565b9182528381018501918581019089841115611bfb57600080fd5b86860192505b83831015611c7357825185811115611c195760008081fd5b8601603f81018b13611c2b5760008081fd5b878101516040611c3d6114e28361149b565b8281528d82848601011115611c525760008081fd5b611c61838c8301848701611a60565b85525050509186019190860190611c01565b9998505050505050505050565b60008251611c92818460208701611a60565b631733363960e11b920191825250600401919050565b6001600160a01b038581168252848116602083015283166040820152608060608201819052600090611cdc90830184611a84565b9695505050505050565b634e487b7160e01b600052603260045260246000fd5b600060018201611d0e57611d0e61197f565b506001019056fe72657665727420556e65787069726564436f6d6d69746d656e7445786973747328636f6d6d69746d656e7429a2646970667358221220457f2b95f949e626f3af69c8f424f870f11743e013a2a8903d4cd712a95cca6064736f6c63430008130033",
    "linkReferences": {}
  },
  "methodIdentifiers": {
    "MIN_REGISTRATION_DURATION()": "8a95b09f",
    "available(string)": "aeb8ce9b",
    "commit(bytes32)": "f14fcbc8",
    "commitments(bytes32)": "839df945",
    "makeCommitment(string,address,uint256,bytes32,address,bytes[],bool,uint16)": "65a69dcf",
    "maxCommitmentAge()": "ce1e09c0",
    "minCommitmentAge()": "8d839ffe",
    "nameWrapper()": "a8e5fbc0",
    "owner()": "8da5cb5b",
    "priceOracle()": "2630c12f",
    "recoverFunds(address,address,uint256)": "5d3590d5",
    "register(string,address,uint256,bytes32,address,bytes[],bool,uint16)": "74694a2b",
    "renew(string,uint256)": "acf1a841",
    "renounceOwnership()": "715018a6",
    "rentPrice(string,uint256)": "83e7f6ff",
    "reverseRegistrar()": "80869853",
    "setPriceOracle(address)": "530e784f",
    "supportsInterface(bytes4)": "01ffc9a7",
    "transferOwnership(address)": "f2fde38b",
    "valid(string)": "9791c097",
    "withdraw()": "3ccfd60b"
  },
  "id": 67
}