{
  "address": "0x1FB8b22bA70196E6fB2B8cC29B945F97F93Fc038",
  "abi": [
    {
      "inputs": [
        {
          "internalType": "contract INameWrapper",
          "name": "_nameWrapper",
          "type": "address"
        }
      ],
      "stateMutability": "nonpayable",
      "type": "constructor"
    },
    {
      "inputs": [
        {
          "internalType": "address",
          "name": "owner",
          "type": "address"
        },
        {
          "internalType": "uint256",
          "name": "id",
          "type": "uint256"
        },
        {
          "internalType": "uint32",
          "name": "fuses",
          "type": "uint32"
        },
        {
          "internalType": "uint64",
          "name": "expiry",
          "type": "uint64"
        },
        {
          "internalType": "string",
          "name": "label",
          "type": "string"
        }
      ],
      "name": "add",
      "outputs": [],
      "stateMutability": "nonpayable",
      "type": "function"
    },
    {
      "inputs": [
        {
          "internalType": "address",
          "name": "oldOwner",
          "type": "address"
        },
        {
          "internalType": "address",
          "name": "owner",
          "type": "address"
        },
        {
          "internalType": "uint256",
          "name": "id",
          "type": "uint256"
        },
        {
          "internalType": "uint32",
          "name": "fuses",
          "type": "uint32"
        },
        {
          "internalType": "uint64",
          "name": "expiry",
          "type": "uint64"
        }
      ],
      "name": "addFromTransfer",
      "outputs": [],
      "stateMutability": "nonpayable",
      "type": "function"
    },
    {
      "inputs": [
        {
          "internalType": "address",
          "name": "owner",
          "type": "address"
        },
        {
          "internalType": "uint256",
          "name": "id",
          "type": "uint256"
        },
        {
          "internalType": "uint32",
          "name": "fuses",
          "type": "uint32"
        },
        {
          "internalType": "uint64",
          "name": "expiry",
          "type": "uint64"
        },
        {
          "internalType": "uint256",
          "name": "parentNodeTokenId",
          "type": "uint256"
        },
        {
          "internalType": "string",
          "name": "label",
          "type": "string"
        }
      ],
      "name": "addSubdomain",
      "outputs": [],
      "stateMutability": "nonpayable",
      "type": "function"
    },
    {
      "inputs": [
        {
          "internalType": "address",
          "name": "owner",
          "type": "address"
        }
      ],
      "name": "getAll",
      "outputs": [
        {
          "components": [
            {
              "internalType": "uint256",
              "name": "id",
              "type": "uint256"
            },
            {
              "internalType": "uint32",
              "name": "fuses",
              "type": "uint32"
            },
            {
              "internalType": "uint64",
              "name": "expiry",
              "type": "uint64"
            },
            {
              "internalType": "string",
              "name": "label",
              "type": "string"
            }
          ],
          "internalType": "struct IMintedDomainNames.Data[]",
          "name": "data",
          "type": "tuple[]"
        },
        {
          "internalType": "uint256",
          "name": "length",
          "type": "uint256"
        }
      ],
      "stateMutability": "view",
      "type": "function"
    },
    {
      "inputs": [
        {
          "internalType": "address",
          "name": "owner",
          "type": "address"
        }
      ],
      "name": "getLength",
      "outputs": [
        {
          "internalType": "uint256",
          "name": "",
          "type": "uint256"
        }
      ],
      "stateMutability": "view",
      "type": "function"
    },
    {
      "inputs": [
        {
          "internalType": "address",
          "name": "",
          "type": "address"
        },
        {
          "internalType": "uint256",
          "name": "",
          "type": "uint256"
        }
      ],
      "name": "mintedDomainNames",
      "outputs": [
        {
          "internalType": "uint256",
          "name": "id",
          "type": "uint256"
        },
        {
          "internalType": "uint32",
          "name": "fuses",
          "type": "uint32"
        },
        {
          "internalType": "uint64",
          "name": "expiry",
          "type": "uint64"
        },
        {
          "internalType": "string",
          "name": "label",
          "type": "string"
        }
      ],
      "stateMutability": "view",
      "type": "function"
    },
    {
      "inputs": [
        {
          "internalType": "uint256",
          "name": "",
          "type": "uint256"
        }
      ],
      "name": "tokenIdToName",
      "outputs": [
        {
          "internalType": "string",
          "name": "",
          "type": "string"
        }
      ],
      "stateMutability": "view",
      "type": "function"
    }
  ],
  "bytecode": {
    "object": "0x60a060405234801561001057600080fd5b5060405161128b38038061128b83398101604081905261002f91610040565b6001600160a01b0316608052610070565b60006020828403121561005257600080fd5b81516001600160a01b038116811461006957600080fd5b9392505050565b6080516111e46100a76000396000818161016c015281816101b00152818161049d01528181610783015261099401526111e46000f3fe608060405234801561001057600080fd5b506004361061007d5760003560e01c8063da2bfdb11161005b578063da2bfdb1146100d6578063eb077342146100f6578063ed9536ab14610117578063fe611a071461012a57600080fd5b806344226bfd14610082578063656fb27214610097578063a9e59e4c146100c3575b600080fd5b610095610090366004610b48565b610161565b005b6100aa6100a5366004610bc8565b6103ad565b6040516100ba9493929190610c3a565b60405180910390f35b6100956100d1366004610c78565b610492565b6100e96100e4366004610cda565b61061f565b6040516100ba9190610cf3565b610109610104366004610d0d565b6106b9565b6040516100ba929190610d2a565b610095610125366004610dc9565b610989565b610153610138366004610d0d565b6001600160a01b031660009081526001602052604090205490565b6040519081526020016100ba565b336001600160a01b037f0000000000000000000000000000000000000000000000000000000000000000161461019657600080fd5b6040516359525f6760e11b81526000906001600160a01b037f0000000000000000000000000000000000000000000000000000000000000000169063b2a4bece906101e79086908690600401610e53565b6040805180830381865afa158015610203573d6000803e3d6000fd5b505050506040513d601f19601f820116820180604052508101906102279190610e82565b91505080861461028c5760405162461bcd60e51b815260206004820152602660248201527f4d696e746564446f6d61696e4e616d65733a2069642026206c6162656c206d696044820152650e6dac2e8c6d60d31b606482015260840160405180910390fd5b60008681526020819052604090206102a5838583610f45565b5060016000886001600160a01b03166001600160a01b0316815260200190815260200160002060405180608001604052808881526020018763ffffffff168152602001866001600160401b0316815260200185858080601f0160208091040260200160405190810160405280939291908181526020018383808284376000920182905250939094525050835460018181018655948252602091829020845160039092020190815590830151938101805460408501516001600160401b0316640100000000026001600160601b031990911663ffffffff909616959095179490941790935550606081015190919060028201906103a19082611005565b50505050505050505050565b600160205281600052604060002081815481106103c957600080fd5b600091825260209091206003909102018054600182015460028301805492955063ffffffff821694506401000000009091046001600160401b0316929161040f90610ebc565b80601f016020809104026020016040519081016040528092919081815260200182805461043b90610ebc565b80156104885780601f1061045d57610100808354040283529160200191610488565b820191906000526020600020905b81548152906001019060200180831161046b57829003601f168201915b5050505050905084565b336001600160a01b037f000000000000000000000000000000000000000000000000000000000000000016146104c757600080fd5b6001600160a01b0384166000908152600160209081526040808320815160808101835287815263ffffffff8716818501526001600160401b03861681840152878552928490529220805460608301919061052090610ebc565b80601f016020809104026020016040519081016040528092919081815260200182805461054c90610ebc565b80156105995780601f1061056e57610100808354040283529160200191610599565b820191906000526020600020905b81548152906001019060200180831161057c57829003601f168201915b5050509190925250508154600181810184556000938452602093849020835160039093020191825592820151928101805460408401516001600160401b0316640100000000026001600160601b031990911663ffffffff9095169490941793909317909255606081015190919060028201906106159082611005565b5050505050505050565b6000602081905290815260409020805461063890610ebc565b80601f016020809104026020016040519081016040528092919081815260200182805461066490610ebc565b80156106b15780601f10610686576101008083540402835291602001916106b1565b820191906000526020600020905b81548152906001019060200180831161069457829003601f168201915b505050505081565b6001600160a01b038116600090815260016020526040812054606091906001600160401b038111156106ed576106ed610ea6565b60405190808252806020026020018201604052801561073e57816020015b604080516080810182526000808252602080830182905292820152606080820152825260001990920191018161070b5790505b50915060005b6001600160a01b038416600090815260016020526040902054811015610983576001600160a01b038085166000818152600160205260409020805491927f00000000000000000000000000000000000000000000000000000000000000001691636352211e9190859081106107bb576107bb6110c4565b9060005260206000209060030201600001546040518263ffffffff1660e01b81526004016107eb91815260200190565b602060405180830381865afa158015610808573d6000803e3d6000fd5b505050506040513d601f19601f8201168201806040525081019061082c91906110da565b6001600160a01b031603610973576001600160a01b0384166000908152600160205260409020805482908110610864576108646110c4565b60009182526020918290206040805160808101825260039390930290910180548352600181015463ffffffff8116948401949094526401000000009093046001600160401b0316908201526002820180549192916060840191906108c790610ebc565b80601f01602080910402602001604051908101604052809291908181526020018280546108f390610ebc565b80156109405780601f1061091557610100808354040283529160200191610940565b820191906000526020600020905b81548152906001019060200180831161092357829003601f168201915b50505050508152505083838151811061095b5761095b6110c4565b602002602001018190525081610970906110f7565b91505b61097c816110f7565b9050610744565b50915091565b336001600160a01b037f000000000000000000000000000000000000000000000000000000000000000016146109be57600080fd5b60008381526020818152604080832090516109df928692869290910161111e565b60408051601f198184030181529181526000898152602081905220909150610a078282611005565b506001600160a01b038816600090815260016020818152604080842081516080810183528c815263ffffffff808d168286019081526001600160401b03808e16958401958652606084018a81528554808a018755958a529690982083516003909502019384555195830180549451909716640100000000026001600160601b031990941695169490941791909117909355519091906002820190610aab9082611005565b5050505050505050505050565b6001600160a01b0381168114610acd57600080fd5b50565b803563ffffffff81168114610ae457600080fd5b919050565b80356001600160401b0381168114610ae457600080fd5b60008083601f840112610b1257600080fd5b5081356001600160401b03811115610b2957600080fd5b602083019150836020828501011115610b4157600080fd5b9250929050565b60008060008060008060a08789031215610b6157600080fd5b8635610b6c81610ab8565b955060208701359450610b8160408801610ad0565b9350610b8f60608801610ae9565b925060808701356001600160401b03811115610baa57600080fd5b610bb689828a01610b00565b979a9699509497509295939492505050565b60008060408385031215610bdb57600080fd5b8235610be681610ab8565b946020939093013593505050565b6000815180845260005b81811015610c1a57602081850181015186830182015201610bfe565b506000602082860101526020601f19601f83011685010191505092915050565b84815263ffffffff841660208201526001600160401b0383166040820152608060608201526000610c6e6080830184610bf4565b9695505050505050565b600080600080600060a08688031215610c9057600080fd5b8535610c9b81610ab8565b94506020860135610cab81610ab8565b935060408601359250610cc060608701610ad0565b9150610cce60808701610ae9565b90509295509295909350565b600060208284031215610cec57600080fd5b5035919050565b602081526000610d066020830184610bf4565b9392505050565b600060208284031215610d1f57600080fd5b8135610d0681610ab8565b60006040808301818452808651808352606092508286019150828160051b8701016020808a0160005b84811015610db457898403605f190186528151805185528381015163ffffffff1684860152888101516001600160401b0316898601528701516080888601819052610da081870183610bf4565b978501979550505090820190600101610d53565b50509690960196909652509295945050505050565b600080600080600080600060c0888a031215610de457600080fd5b8735610def81610ab8565b965060208801359550610e0460408901610ad0565b9450610e1260608901610ae9565b93506080880135925060a08801356001600160401b03811115610e3457600080fd5b610e408a828b01610b00565b989b979a50959850939692959293505050565b60208152816020820152818360408301376000818301604090810191909152601f909201601f19160101919050565b60008060408385031215610e9557600080fd5b505080516020909101519092909150565b634e487b7160e01b600052604160045260246000fd5b600181811c90821680610ed057607f821691505b602082108103610ef057634e487b7160e01b600052602260045260246000fd5b50919050565b601f821115610f4057600081815260208120601f850160051c81016020861015610f1d5750805b601f850160051c820191505b81811015610f3c57828155600101610f29565b5050505b505050565b6001600160401b03831115610f5c57610f5c610ea6565b610f7083610f6a8354610ebc565b83610ef6565b6000601f841160018114610fa45760008515610f8c5750838201355b600019600387901b1c1916600186901b178355610ffe565b600083815260209020601f19861690835b82811015610fd55786850135825560209485019460019092019101610fb5565b5086821015610ff25760001960f88860031b161c19848701351681555b505060018560011b0183555b5050505050565b81516001600160401b0381111561101e5761101e610ea6565b6110328161102c8454610ebc565b84610ef6565b602080601f831160018114611067576000841561104f5750858301515b600019600386901b1c1916600185901b178555610f3c565b600085815260208120601f198616915b8281101561109657888601518255948401946001909101908401611077565b50858210156110b45787850151600019600388901b60f8161c191681555b5050505050600190811b01905550565b634e487b7160e01b600052603260045260246000fd5b6000602082840312156110ec57600080fd5b8151610d0681610ab8565b60006001820161111757634e487b7160e01b600052601160045260246000fd5b5060010190565b828482376000838201601760f91b815260016000855461113d81610ebc565b8184168015611153576001811461116c5761119f565b60ff19831686860152811515820286018501935061119f565b8860005260208060002060005b84811015611194578154898201890152908701908201611179565b505050848287010193505b5091999850505050505050505056fea26469706673582212200821f50cf0c0337a893b259d764fdf1ad6bcf7c39d337df8be650b818c76d6ff64736f6c63430008120033",
    "linkReferences": {}
  },
  "methodIdentifiers": {
    "add(address,uint256,uint32,uint64,string)": "44226bfd",
    "addFromTransfer(address,address,uint256,uint32,uint64)": "a9e59e4c",
    "addSubdomain(address,uint256,uint32,uint64,uint256,string)": "ed9536ab",
    "getAll(address)": "eb077342",
    "getLength(address)": "fe611a07",
    "mintedDomainNames(address,uint256)": "656fb272",
    "tokenIdToName(uint256)": "da2bfdb1"
  },
  "id": 66
}