{
  "address": "0xA5cEcbd8Bb51E57905a385841E8D3d3d07B5E0Ae",
  "abi": [
    {
      "inputs": [
        {
          "internalType": "contract INameWrapper",
          "name": "_nameWrapper",
          "type": "address"
        }
      ],
      "stateMutability": "nonpayable",
      "type": "constructor"
    },
    {
      "inputs": [
        {
          "internalType": "address",
          "name": "owner",
          "type": "address"
        },
        {
          "internalType": "uint256",
          "name": "id",
          "type": "uint256"
        },
        {
          "internalType": "uint32",
          "name": "fuses",
          "type": "uint32"
        },
        {
          "internalType": "uint64",
          "name": "expiry",
          "type": "uint64"
        },
        {
          "internalType": "string",
          "name": "label",
          "type": "string"
        }
      ],
      "name": "add",
      "outputs": [],
      "stateMutability": "nonpayable",
      "type": "function"
    },
    {
      "inputs": [
        {
          "internalType": "address",
          "name": "oldOwner",
          "type": "address"
        },
        {
          "internalType": "address",
          "name": "owner",
          "type": "address"
        },
        {
          "internalType": "uint256",
          "name": "id",
          "type": "uint256"
        },
        {
          "internalType": "uint32",
          "name": "fuses",
          "type": "uint32"
        },
        {
          "internalType": "uint64",
          "name": "expiry",
          "type": "uint64"
        }
      ],
      "name": "addFromTransfer",
      "outputs": [],
      "stateMutability": "nonpayable",
      "type": "function"
    },
    {
      "inputs": [
        {
          "internalType": "address",
          "name": "owner",
          "type": "address"
        }
      ],
      "name": "getAll",
      "outputs": [
        {
          "components": [
            {
              "internalType": "uint256",
              "name": "id",
              "type": "uint256"
            },
            {
              "internalType": "uint32",
              "name": "fuses",
              "type": "uint32"
            },
            {
              "internalType": "uint64",
              "name": "expiry",
              "type": "uint64"
            },
            {
              "internalType": "string",
              "name": "label",
              "type": "string"
            }
          ],
          "internalType": "struct IMintedDomainNames.Data[]",
          "name": "data",
          "type": "tuple[]"
        },
        {
          "internalType": "uint256",
          "name": "length",
          "type": "uint256"
        }
      ],
      "stateMutability": "view",
      "type": "function"
    },
    {
      "inputs": [
        {
          "internalType": "address",
          "name": "owner",
          "type": "address"
        }
      ],
      "name": "getLength",
      "outputs": [
        {
          "internalType": "uint256",
          "name": "",
          "type": "uint256"
        }
      ],
      "stateMutability": "view",
      "type": "function"
    }
  ],
  "bytecode": {
    "object": "0x60a060405234801561001057600080fd5b5060405161101238038061101283398101604081905261002f91610040565b6001600160a01b0316608052610070565b60006020828403121561005257600080fd5b81516001600160a01b038116811461006957600080fd5b9392505050565b608051610f7361009f6000396000818160e501528181610129015281816103a501526106ca0152610f736000f3fe608060405234801561001057600080fd5b506004361061004c5760003560e01c806344226bfd14610051578063a9e59e4c14610066578063eb07734214610079578063fe611a07146100a3575b600080fd5b61006461005f3660046109cd565b6100da565b005b610064610074366004610a7c565b61039a565b61008c610087366004610ade565b6105ff565b60405161009a929190610b48565b60405180910390f35b6100cc6100b1366004610ade565b6001600160a01b031660009081526001602052604090205490565b60405190815260200161009a565b336001600160a01b037f0000000000000000000000000000000000000000000000000000000000000000161461010f57600080fd5b6040516359525f6760e11b81526000906001600160a01b037f0000000000000000000000000000000000000000000000000000000000000000169063b2a4bece906101609086908690600401610be8565b6040805180830381865afa15801561017c573d6000803e3d6000fd5b505050506040513d601f19601f820116820180604052508101906101a09190610c17565b9150508086146102055760405162461bcd60e51b815260206004820152602660248201527f4d696e746564446f6d61696e4e616d65733a2069642026206c6162656c206d696044820152650e6dac2e8c6d60d31b606482015260840160405180910390fd5b6102336040518060600160405280603d8152602001610f01603d913988888767ffffffffffffffff166108d1565b61027283838080601f01602080910402602001604051908101604052809392919081815260200183838082843760009201919091525061092092505050565b600086815260208190526040902061028b838583610cda565b5060016000886001600160a01b03166001600160a01b0316815260200190815260200160002060405180608001604052808881526020018763ffffffff1681526020018667ffffffffffffffff16815260200185858080601f01602080910402602001604051908101604052809392919081815260200183838082843760009201829052509390945250508354600181810186559482526020918290208451600390920201908155908301519381018054604085015167ffffffffffffffff16640100000000026bffffffffffffffffffffffff1990911663ffffffff9096169590951794909417909355506060810151909190600282019061038e9082610d9b565b50505050505050505050565b336001600160a01b037f000000000000000000000000000000000000000000000000000000000000000016146103cf57600080fd5b6103ff6040518060400160405280600f81526020016e30b232233937b6aa3930b739b332b960891b815250610920565b600083815260208190526040902080546104a0919061041d90610c51565b80601f016020809104026020016040519081016040528092919081815260200182805461044990610c51565b80156104965780601f1061046b57610100808354040283529160200191610496565b820191906000526020600020905b81548152906001019060200180831161047957829003601f168201915b5050505050610920565b6001600160a01b0384166000908152600160209081526040808320815160808101835287815263ffffffff87168185015267ffffffffffffffff86168184015287855292849052922080546060830191906104fa90610c51565b80601f016020809104026020016040519081016040528092919081815260200182805461052690610c51565b80156105735780601f1061054857610100808354040283529160200191610573565b820191906000526020600020905b81548152906001019060200180831161055657829003601f168201915b50505091909252505081546001818101845560009384526020938490208351600390930201918255928201519281018054604084015167ffffffffffffffff16640100000000026bffffffffffffffffffffffff1990911663ffffffff9095169490941793909317909255606081015190919060028201906105f59082610d9b565b5050505050505050565b6001600160a01b0381166000908152600160205260408120546060919067ffffffffffffffff81111561063457610634610c3b565b60405190808252806020026020018201604052801561068557816020015b60408051608081018252600080825260208083018290529282015260608082015282526000199092019101816106525790505b50915060005b6001600160a01b0384166000908152600160205260409020548110156108cb576001600160a01b038085166000818152600160205260409020805491927f00000000000000000000000000000000000000000000000000000000000000001691636352211e91908590811061070257610702610e5b565b9060005260206000209060030201600001546040518263ffffffff1660e01b815260040161073291815260200190565b602060405180830381865afa15801561074f573d6000803e3d6000fd5b505050506040513d601f19601f820116820180604052508101906107739190610e71565b6001600160a01b0316036108bb576001600160a01b03841660009081526001602052604090208054829081106107ab576107ab610e5b565b60009182526020918290206040805160808101825260039390930290910180548352600181015463ffffffff81169484019490945264010000000090930467ffffffffffffffff169082015260028201805491929160608401919061080f90610c51565b80601f016020809104026020016040519081016040528092919081815260200182805461083b90610c51565b80156108885780601f1061085d57610100808354040283529160200191610888565b820191906000526020600020905b81548152906001019060200180831161086b57829003601f168201915b5050505050815250508383815181106108a3576108a3610e5b565b6020026020010181905250816108b890610e8e565b91505b6108c481610e8e565b905061068b565b50915091565b61091a848484846040516024016108eb9493929190610eb5565b60408051601f198184030181529190526020810180516001600160e01b031663daa394bd60e01b179052610966565b50505050565b610963816040516024016109349190610eed565b60408051601f198184030181529190526020810180516001600160e01b031663104c13eb60e21b179052610966565b50565b80516a636f6e736f6c652e6c6f67602083016000808483855afa5050505050565b6001600160a01b038116811461096357600080fd5b803563ffffffff811681146109b057600080fd5b919050565b803567ffffffffffffffff811681146109b057600080fd5b60008060008060008060a087890312156109e657600080fd5b86356109f181610987565b955060208701359450610a066040880161099c565b9350610a14606088016109b5565b9250608087013567ffffffffffffffff80821115610a3157600080fd5b818901915089601f830112610a4557600080fd5b813581811115610a5457600080fd5b8a6020828501011115610a6657600080fd5b6020830194508093505050509295509295509295565b600080600080600060a08688031215610a9457600080fd5b8535610a9f81610987565b94506020860135610aaf81610987565b935060408601359250610ac46060870161099c565b9150610ad2608087016109b5565b90509295509295909350565b600060208284031215610af057600080fd5b8135610afb81610987565b9392505050565b6000815180845260005b81811015610b2857602081850181015186830182015201610b0c565b506000602082860101526020601f19601f83011685010191505092915050565b60006040808301818452808651808352606092508286019150828160051b8701016020808a0160005b84811015610bd357898403605f190186528151805185528381015163ffffffff16848601528881015167ffffffffffffffff16898601528701516080888601819052610bbf81870183610b02565b978501979550505090820190600101610b71565b50509690960196909652509295945050505050565b60208152816020820152818360408301376000818301604090810191909152601f909201601f19160101919050565b60008060408385031215610c2a57600080fd5b505080516020909101519092909150565b634e487b7160e01b600052604160045260246000fd5b600181811c90821680610c6557607f821691505b602082108103610c8557634e487b7160e01b600052602260045260246000fd5b50919050565b601f821115610cd557600081815260208120601f850160051c81016020861015610cb25750805b601f850160051c820191505b81811015610cd157828155600101610cbe565b5050505b505050565b67ffffffffffffffff831115610cf257610cf2610c3b565b610d0683610d008354610c51565b83610c8b565b6000601f841160018114610d3a5760008515610d225750838201355b600019600387901b1c1916600186901b178355610d94565b600083815260209020601f19861690835b82811015610d6b5786850135825560209485019460019092019101610d4b565b5086821015610d885760001960f88860031b161c19848701351681555b505060018560011b0183555b5050505050565b815167ffffffffffffffff811115610db557610db5610c3b565b610dc981610dc38454610c51565b84610c8b565b602080601f831160018114610dfe5760008415610de65750858301515b600019600386901b1c1916600185901b178555610cd1565b600085815260208120601f198616915b82811015610e2d57888601518255948401946001909101908401610e0e565b5085821015610e4b5787850151600019600388901b60f8161c191681555b5050505050600190811b01905550565b634e487b7160e01b600052603260045260246000fd5b600060208284031215610e8357600080fd5b8151610afb81610987565b600060018201610eae57634e487b7160e01b600052601160045260246000fd5b5060010190565b608081526000610ec86080830187610b02565b6001600160a01b03959095166020830152506040810192909252606090910152919050565b602081526000610afb6020830184610b0256fe4d696e746564446f6d61696e4e616d65733a3a616464286f776e65723a25732c2069643a25732c206578706972793a25732c206c6162656c3a2e2e2e29a2646970667358221220c0171caf50659a664070493d919d322e576c2fff3f9634ea563729523bc686e164736f6c63430008130033",
    "linkReferences": {}
  },
  "methodIdentifiers": {
    "add(address,uint256,uint32,uint64,string)": "44226bfd",
    "addFromTransfer(address,address,uint256,uint32,uint64)": "a9e59e4c",
    "getAll(address)": "eb077342",
    "getLength(address)": "fe611a07"
  },
  "id": 83
}