{
  "address": "0x68470b26610348472dE725E307b10D61EF6368b8",
  "abi": [
    {
      "inputs": [
        {
          "internalType": "contract IENS",
          "name": "_ens",
          "type": "address"
        },
        {
          "internalType": "contract INameWrapper",
          "name": "wrapperAddress",
          "type": "address"
        },
        {
          "internalType": "address",
          "name": "_trustedETHController",
          "type": "address"
        },
        {
          "internalType": "address",
          "name": "_trustedReverseRegistrar",
          "type": "address"
        }
      ],
      "stateMutability": "nonpayable",
      "type": "constructor"
    },
    {
      "anonymous": false,
      "inputs": [
        {
          "indexed": true,
          "internalType": "bytes32",
          "name": "node",
          "type": "bytes32"
        },
        {
          "indexed": true,
          "internalType": "uint256",
          "name": "contentType",
          "type": "uint256"
        }
      ],
      "name": "ABIChanged",
      "type": "event"
    },
    {
      "anonymous": false,
      "inputs": [
        {
          "indexed": true,
          "internalType": "bytes32",
          "name": "node",
          "type": "bytes32"
        },
        {
          "indexed": false,
          "internalType": "address",
          "name": "a",
          "type": "address"
        }
      ],
      "name": "AddrChanged",
      "type": "event"
    },
    {
      "anonymous": false,
      "inputs": [
        {
          "indexed": true,
          "internalType": "bytes32",
          "name": "node",
          "type": "bytes32"
        },
        {
          "indexed": false,
          "internalType": "uint256",
          "name": "coinType",
          "type": "uint256"
        },
        {
          "indexed": false,
          "internalType": "bytes",
          "name": "newAddress",
          "type": "bytes"
        }
      ],
      "name": "AddressChanged",
      "type": "event"
    },
    {
      "anonymous": false,
      "inputs": [
        {
          "indexed": true,
          "internalType": "address",
          "name": "owner",
          "type": "address"
        },
        {
          "indexed": true,
          "internalType": "address",
          "name": "operator",
          "type": "address"
        },
        {
          "indexed": false,
          "internalType": "bool",
          "name": "approved",
          "type": "bool"
        }
      ],
      "name": "ApprovalForAll",
      "type": "event"
    },
    {
      "anonymous": false,
      "inputs": [
        {
          "indexed": false,
          "internalType": "address",
          "name": "owner",
          "type": "address"
        },
        {
          "indexed": true,
          "internalType": "bytes32",
          "name": "node",
          "type": "bytes32"
        },
        {
          "indexed": true,
          "internalType": "address",
          "name": "delegate",
          "type": "address"
        },
        {
          "indexed": true,
          "internalType": "bool",
          "name": "approved",
          "type": "bool"
        }
      ],
      "name": "Approved",
      "type": "event"
    },
    {
      "anonymous": false,
      "inputs": [
        {
          "indexed": true,
          "internalType": "bytes32",
          "name": "node",
          "type": "bytes32"
        },
        {
          "indexed": false,
          "internalType": "bytes",
          "name": "hash",
          "type": "bytes"
        }
      ],
      "name": "ContenthashChanged",
      "type": "event"
    },
    {
      "anonymous": false,
      "inputs": [
        {
          "indexed": true,
          "internalType": "bytes32",
          "name": "node",
          "type": "bytes32"
        },
        {
          "indexed": true,
          "internalType": "bytes4",
          "name": "interfaceID",
          "type": "bytes4"
        },
        {
          "indexed": false,
          "internalType": "address",
          "name": "implementer",
          "type": "address"
        }
      ],
      "name": "InterfaceChanged",
      "type": "event"
    },
    {
      "anonymous": false,
      "inputs": [
        {
          "indexed": true,
          "internalType": "bytes32",
          "name": "node",
          "type": "bytes32"
        },
        {
          "indexed": false,
          "internalType": "string",
          "name": "name",
          "type": "string"
        }
      ],
      "name": "NameChanged",
      "type": "event"
    },
    {
      "anonymous": false,
      "inputs": [
        {
          "indexed": true,
          "internalType": "bytes32",
          "name": "node",
          "type": "bytes32"
        },
        {
          "indexed": false,
          "internalType": "bytes32",
          "name": "x",
          "type": "bytes32"
        },
        {
          "indexed": false,
          "internalType": "bytes32",
          "name": "y",
          "type": "bytes32"
        }
      ],
      "name": "PubkeyChanged",
      "type": "event"
    },
    {
      "anonymous": false,
      "inputs": [
        {
          "indexed": true,
          "internalType": "bytes32",
          "name": "node",
          "type": "bytes32"
        },
        {
          "indexed": true,
          "internalType": "string",
          "name": "indexedKey",
          "type": "string"
        },
        {
          "indexed": false,
          "internalType": "string",
          "name": "key",
          "type": "string"
        },
        {
          "indexed": false,
          "internalType": "string",
          "name": "value",
          "type": "string"
        }
      ],
      "name": "TextChanged",
      "type": "event"
    },
    {
      "anonymous": false,
      "inputs": [
        {
          "indexed": true,
          "internalType": "bytes32",
          "name": "node",
          "type": "bytes32"
        },
        {
          "indexed": false,
          "internalType": "uint64",
          "name": "newVersion",
          "type": "uint64"
        }
      ],
      "name": "VersionChanged",
      "type": "event"
    },
    {
      "inputs": [
        {
          "internalType": "bytes32",
          "name": "node",
          "type": "bytes32"
        },
        {
          "internalType": "uint256",
          "name": "contentTypes",
          "type": "uint256"
        }
      ],
      "name": "ABI",
      "outputs": [
        {
          "internalType": "uint256",
          "name": "",
          "type": "uint256"
        },
        {
          "internalType": "bytes",
          "name": "",
          "type": "bytes"
        }
      ],
      "stateMutability": "view",
      "type": "function"
    },
    {
      "inputs": [
        {
          "internalType": "bytes32",
          "name": "node",
          "type": "bytes32"
        }
      ],
      "name": "addr",
      "outputs": [
        {
          "internalType": "address payable",
          "name": "",
          "type": "address"
        }
      ],
      "stateMutability": "view",
      "type": "function"
    },
    {
      "inputs": [
        {
          "internalType": "bytes32",
          "name": "node",
          "type": "bytes32"
        },
        {
          "internalType": "uint256",
          "name": "coinType",
          "type": "uint256"
        }
      ],
      "name": "addr",
      "outputs": [
        {
          "internalType": "bytes",
          "name": "",
          "type": "bytes"
        }
      ],
      "stateMutability": "view",
      "type": "function"
    },
    {
      "inputs": [
        {
          "internalType": "bytes32",
          "name": "node",
          "type": "bytes32"
        },
        {
          "internalType": "address",
          "name": "delegate",
          "type": "address"
        },
        {
          "internalType": "bool",
          "name": "approved",
          "type": "bool"
        }
      ],
      "name": "approve",
      "outputs": [],
      "stateMutability": "nonpayable",
      "type": "function"
    },
    {
      "inputs": [
        {
          "internalType": "bytes32",
          "name": "node",
          "type": "bytes32"
        }
      ],
      "name": "clearRecords",
      "outputs": [],
      "stateMutability": "nonpayable",
      "type": "function"
    },
    {
      "inputs": [
        {
          "internalType": "bytes32",
          "name": "node",
          "type": "bytes32"
        }
      ],
      "name": "contenthash",
      "outputs": [
        {
          "internalType": "bytes",
          "name": "",
          "type": "bytes"
        }
      ],
      "stateMutability": "view",
      "type": "function"
    },
    {
      "inputs": [
        {
          "internalType": "bytes32",
          "name": "node",
          "type": "bytes32"
        },
        {
          "internalType": "bytes4",
          "name": "interfaceID",
          "type": "bytes4"
        }
      ],
      "name": "interfaceImplementer",
      "outputs": [
        {
          "internalType": "address",
          "name": "",
          "type": "address"
        }
      ],
      "stateMutability": "view",
      "type": "function"
    },
    {
      "inputs": [
        {
          "internalType": "address",
          "name": "owner",
          "type": "address"
        },
        {
          "internalType": "bytes32",
          "name": "node",
          "type": "bytes32"
        },
        {
          "internalType": "address",
          "name": "delegate",
          "type": "address"
        }
      ],
      "name": "isApprovedFor",
      "outputs": [
        {
          "internalType": "bool",
          "name": "",
          "type": "bool"
        }
      ],
      "stateMutability": "view",
      "type": "function"
    },
    {
      "inputs": [
        {
          "internalType": "address",
          "name": "account",
          "type": "address"
        },
        {
          "internalType": "address",
          "name": "operator",
          "type": "address"
        }
      ],
      "name": "isApprovedForAll",
      "outputs": [
        {
          "internalType": "bool",
          "name": "",
          "type": "bool"
        }
      ],
      "stateMutability": "view",
      "type": "function"
    },
    {
      "inputs": [
        {
          "internalType": "bytes[]",
          "name": "data",
          "type": "bytes[]"
        }
      ],
      "name": "multicall",
      "outputs": [
        {
          "internalType": "bytes[]",
          "name": "results",
          "type": "bytes[]"
        }
      ],
      "stateMutability": "nonpayable",
      "type": "function"
    },
    {
      "inputs": [
        {
          "internalType": "bytes32",
          "name": "nodehash",
          "type": "bytes32"
        },
        {
          "internalType": "bytes[]",
          "name": "data",
          "type": "bytes[]"
        }
      ],
      "name": "multicallWithNodeCheck",
      "outputs": [
        {
          "internalType": "bytes[]",
          "name": "results",
          "type": "bytes[]"
        }
      ],
      "stateMutability": "nonpayable",
      "type": "function"
    },
    {
      "inputs": [
        {
          "internalType": "bytes32",
          "name": "node",
          "type": "bytes32"
        }
      ],
      "name": "name",
      "outputs": [
        {
          "internalType": "string",
          "name": "",
          "type": "string"
        }
      ],
      "stateMutability": "view",
      "type": "function"
    },
    {
      "inputs": [
        {
          "internalType": "bytes32",
          "name": "node",
          "type": "bytes32"
        }
      ],
      "name": "pubkey",
      "outputs": [
        {
          "internalType": "bytes32",
          "name": "x",
          "type": "bytes32"
        },
        {
          "internalType": "bytes32",
          "name": "y",
          "type": "bytes32"
        }
      ],
      "stateMutability": "view",
      "type": "function"
    },
    {
      "inputs": [
        {
          "internalType": "bytes32",
          "name": "",
          "type": "bytes32"
        }
      ],
      "name": "recordVersions",
      "outputs": [
        {
          "internalType": "uint64",
          "name": "",
          "type": "uint64"
        }
      ],
      "stateMutability": "view",
      "type": "function"
    },
    {
      "inputs": [
        {
          "internalType": "bytes",
          "name": "",
          "type": "bytes"
        },
        {
          "internalType": "bytes",
          "name": "data",
          "type": "bytes"
        }
      ],
      "name": "resolve",
      "outputs": [
        {
          "internalType": "bytes",
          "name": "",
          "type": "bytes"
        }
      ],
      "stateMutability": "view",
      "type": "function"
    },
    {
      "inputs": [
        {
          "internalType": "bytes32",
          "name": "node",
          "type": "bytes32"
        },
        {
          "internalType": "uint256",
          "name": "contentType",
          "type": "uint256"
        },
        {
          "internalType": "bytes",
          "name": "data",
          "type": "bytes"
        }
      ],
      "name": "setABI",
      "outputs": [],
      "stateMutability": "nonpayable",
      "type": "function"
    },
    {
      "inputs": [
        {
          "internalType": "bytes32",
          "name": "node",
          "type": "bytes32"
        },
        {
          "internalType": "uint256",
          "name": "coinType",
          "type": "uint256"
        },
        {
          "internalType": "bytes",
          "name": "a",
          "type": "bytes"
        }
      ],
      "name": "setAddr",
      "outputs": [],
      "stateMutability": "nonpayable",
      "type": "function"
    },
    {
      "inputs": [
        {
          "internalType": "bytes32",
          "name": "node",
          "type": "bytes32"
        },
        {
          "internalType": "address",
          "name": "a",
          "type": "address"
        }
      ],
      "name": "setAddr",
      "outputs": [],
      "stateMutability": "nonpayable",
      "type": "function"
    },
    {
      "inputs": [
        {
          "internalType": "address",
          "name": "operator",
          "type": "address"
        },
        {
          "internalType": "bool",
          "name": "approved",
          "type": "bool"
        }
      ],
      "name": "setApprovalForAll",
      "outputs": [],
      "stateMutability": "nonpayable",
      "type": "function"
    },
    {
      "inputs": [
        {
          "internalType": "bytes32",
          "name": "node",
          "type": "bytes32"
        },
        {
          "internalType": "bytes",
          "name": "hash",
          "type": "bytes"
        }
      ],
      "name": "setContenthash",
      "outputs": [],
      "stateMutability": "nonpayable",
      "type": "function"
    },
    {
      "inputs": [
        {
          "internalType": "bytes32",
          "name": "node",
          "type": "bytes32"
        },
        {
          "internalType": "bytes4",
          "name": "interfaceID",
          "type": "bytes4"
        },
        {
          "internalType": "address",
          "name": "implementer",
          "type": "address"
        }
      ],
      "name": "setInterface",
      "outputs": [],
      "stateMutability": "nonpayable",
      "type": "function"
    },
    {
      "inputs": [
        {
          "internalType": "bytes32",
          "name": "node",
          "type": "bytes32"
        },
        {
          "internalType": "string",
          "name": "newName",
          "type": "string"
        }
      ],
      "name": "setName",
      "outputs": [],
      "stateMutability": "nonpayable",
      "type": "function"
    },
    {
      "inputs": [
        {
          "internalType": "bytes32",
          "name": "node",
          "type": "bytes32"
        },
        {
          "internalType": "bytes32",
          "name": "x",
          "type": "bytes32"
        },
        {
          "internalType": "bytes32",
          "name": "y",
          "type": "bytes32"
        }
      ],
      "name": "setPubkey",
      "outputs": [],
      "stateMutability": "nonpayable",
      "type": "function"
    },
    {
      "inputs": [
        {
          "internalType": "bytes32",
          "name": "node",
          "type": "bytes32"
        },
        {
          "internalType": "string",
          "name": "key",
          "type": "string"
        },
        {
          "internalType": "string",
          "name": "value",
          "type": "string"
        }
      ],
      "name": "setText",
      "outputs": [],
      "stateMutability": "nonpayable",
      "type": "function"
    },
    {
      "inputs": [
        {
          "internalType": "bytes4",
          "name": "interfaceID",
          "type": "bytes4"
        }
      ],
      "name": "supportsInterface",
      "outputs": [
        {
          "internalType": "bool",
          "name": "",
          "type": "bool"
        }
      ],
      "stateMutability": "view",
      "type": "function"
    },
    {
      "inputs": [
        {
          "internalType": "bytes32",
          "name": "node",
          "type": "bytes32"
        },
        {
          "internalType": "string",
          "name": "key",
          "type": "string"
        }
      ],
      "name": "text",
      "outputs": [
        {
          "internalType": "string",
          "name": "",
          "type": "string"
        }
      ],
      "stateMutability": "view",
      "type": "function"
    }
  ],
  "bytecode": {
    "object": "0x6101006040523480156200001257600080fd5b50604051620023d5380380620023d5833981016040819052620000359162000071565b6001600160a01b0393841660805291831660a052821660c0521660e052620000d9565b6001600160a01b03811681146200006e57600080fd5b50565b600080600080608085870312156200008857600080fd5b8451620000958162000058565b6020860151909450620000a88162000058565b6040860151909350620000bb8162000058565b6060860151909250620000ce8162000058565b939692955090935050565b60805160a05160c05160e0516122bb6200011a60003960006112f9015260006112c70152600081816113b801526114050152600061134101526122bb6000f3fe608060405234801561001057600080fd5b506004361061018e5760003560e01c80639061b923116100de578063c869023311610097578063e32954eb11610071578063e32954eb14610430578063e59d895d14610443578063e985e9c514610456578063f1cb7e061461049257600080fd5b8063c869023314610384578063d5fa2b00146103dc578063d700ff33146103ef57600080fd5b80639061b923146102d4578063a22cb465146102e7578063a4b91a01146102fa578063a9784b3e1461030d578063ac9650d814610351578063bc1c58d11461037157600080fd5b80633603d7581161014b578063623195b011610125578063623195b014610288578063691f34311461029b57806377372213146102ae5780638b95dd71146102c157600080fd5b80633603d758146102425780633b3b57de1461025557806359d1d43c1461026857600080fd5b806301ffc9a71461019357806310f13a8c146101bb578063124a319c146101d05780632203ab56146101fb57806329cd62ea1461021c578063304e6ade1461022f575b600080fd5b6101a66101a136600461185a565b6104a5565b60405190151581526020015b60405180910390f35b6101ce6101c93660046118b6565b6104b6565b005b6101e36101de36600461192f565b610582565b6040516001600160a01b0390911681526020016101b2565b61020e61020936600461195b565b6107d3565b6040516101b29291906119cd565b6101ce61022a3660046119e6565b610909565b6101ce61023d366004611a12565b6109a3565b6101ce610250366004611a5d565b610a1e565b6101e3610263366004611a5d565b610abf565b61027b610276366004611a12565b610af1565b6040516101b29190611a76565b6101ce610296366004611a89565b610bd0565b61027b6102a9366004611a5d565b610c6c565b6101ce6102bc366004611a12565b610d2a565b6101ce6102cf366004611b7d565b610da5565b61027b6102e2366004611bcc565b610e84565b6101ce6102f5366004611c57565b610efd565b6101ce610308366004611c83565b610fd8565b6101a661031b366004611cc1565b6001600160a01b039283166000908152600960209081526040808320948352938152838220929094168152925290205460ff1690565b61036461035f366004611d47565b6110a5565b6040516101b29190611d88565b61027b61037f366004611a5d565b6110b3565b6103c7610392366004611a5d565b600081815260208181526040808320546001600160401b03168352600682528083209383529290522080546001909101549091565b604080519283526020830191909152016101b2565b6101ce6103ea366004611dea565b6110ec565b6104186103fd366004611a5d565b6000602081905290815260409020546001600160401b031681565b6040516001600160401b0390911681526020016101b2565b61036461043e366004611e1a565b611113565b6101ce610451366004611e58565b611128565b6101a6610464366004611e8d565b6001600160a01b03918216600090815260086020908152604080832093909416825291909152205460ff1690565b61027b6104a036600461195b565b6111ce565b60006104b082611295565b92915050565b846104c0816112ba565b6104c957600080fd5b600086815260208181526040808320546001600160401b0316835260078252808320898452909152908190209051849184916105089089908990611ebb565b90815260200160405180910390209182610523929190611f53565b508484604051610534929190611ebb565b6040518091039020867f448bc014f1536726cf8d54ff3d6481ed3cbc683c2591ca204274009afa09b1a187878787604051610572949392919061203b565b60405180910390a3505050505050565b600082815260208181526040808320546001600160401b031683526004825280832085845282528083206001600160e01b0319851684529091528120546001600160a01b031680156105d55790506104b0565b60006105e085610abf565b90506001600160a01b0381166105fb576000925050506104b0565b6040516301ffc9a760e01b602482015260009081906001600160a01b0384169060440160408051601f198184030181529181526020820180516001600160e01b03166301ffc9a760e01b17905251610653919061206d565b600060405180830381855afa9150503d806000811461068e576040519150601f19603f3d011682016040523d82523d6000602084013e610693565b606091505b50915091508115806106a6575060208151105b806106d0575080601f815181106106bf576106bf612089565b01602001516001600160f81b031916155b156106e25760009450505050506104b0565b6040516001600160e01b0319871660248201526001600160a01b0384169060440160408051601f198184030181529181526020820180516001600160e01b03166301ffc9a760e01b17905251610738919061206d565b600060405180830381855afa9150503d8060008114610773576040519150601f19603f3d011682016040523d82523d6000602084013e610778565b606091505b50909250905081158061078c575060208151105b806107b6575080601f815181106107a5576107a5612089565b01602001516001600160f81b031916155b156107c85760009450505050506104b0565b509095945050505050565b600082815260208181526040808320546001600160401b03168352600180835281842086855290925282206060915b8481116108e9578085161580159061083257506000818152602083905260408120805461082e90611ecb565b9050115b156108e1578082600083815260200190815260200160002080805461085690611ecb565b80601f016020809104026020016040519081016040528092919081815260200182805461088290611ecb565b80156108cf5780601f106108a4576101008083540402835291602001916108cf565b820191906000526020600020905b8154815290600101906020018083116108b257829003601f168201915b50505050509050935093505050610902565b60011b610802565b5060006040518060200160405280600081525092509250505b9250929050565b82610913816112ba565b61091c57600080fd5b60408051808201825284815260208082018581526000888152808352848120546001600160401b031681526006835284812089825283528490209251835551600190920191909155815185815290810184905285917f1d6f5e03d3f63eb58751986629a5439baee5079ff04f345becb66e23eb154e4691015b60405180910390a250505050565b826109ad816112ba565b6109b657600080fd5b600084815260208181526040808320546001600160401b031683526003825280832087845290915290206109eb838583611f53565b50837fe379c1624ed7e714cc0937528a32359d69d5281337765313dba4e081b72d7578848460405161099592919061209f565b80610a28816112ba565b610a3157600080fd5b600082815260208190526040812080546001600160401b031691610a54836120c9565b82546101009290920a6001600160401b03818102199093169183160217909155600084815260208181526040918290205491519190921681528492507fc6621ccb8f3f5a04bb6502154b2caf6adf5983fe76dfef1cfc9c42e3579db444910160405180910390a25050565b600080610acd83603c6111ce565b90508051600003610ae15750600092915050565b610aea816114ef565b9392505050565b600083815260208181526040808320546001600160401b031683526007825280832086845290915290819020905160609190610b309085908590611ebb565b90815260200160405180910390208054610b4990611ecb565b80601f0160208091040260200160405190810160405280929190818152602001828054610b7590611ecb565b8015610bc25780601f10610b9757610100808354040283529160200191610bc2565b820191906000526020600020905b815481529060010190602001808311610ba557829003601f168201915b505050505090509392505050565b83610bda816112ba565b610be357600080fd5b83610bef6001826120ef565b1615610bfa57600080fd5b600085815260208181526040808320546001600160401b031683526001825280832088845282528083208784529091529020610c37838583611f53565b50604051849086907faa121bbeef5f32f5961a2a28966e769023910fc9479059ee3495d4c1a696efe390600090a35050505050565b600081815260208181526040808320546001600160401b03168352600582528083208484529091529020805460609190610ca590611ecb565b80601f0160208091040260200160405190810160405280929190818152602001828054610cd190611ecb565b8015610d1e5780601f10610cf357610100808354040283529160200191610d1e565b820191906000526020600020905b815481529060010190602001808311610d0157829003601f168201915b50505050509050919050565b82610d34816112ba565b610d3d57600080fd5b600084815260208181526040808320546001600160401b03168352600582528083208784529091529020610d72838583611f53565b50837fb7d29e911041e8d9b843369e890bcb72c9388692ba48b65ac54e7214c4c348f7848460405161099592919061209f565b82610daf816112ba565b610db857600080fd5b837f65412581168e88a1e60c6459d7f44ae83ad0832e670826c05a4e2476b57af7528484604051610dea9291906119cd565b60405180910390a2603c8303610e4157837f52d7d861f09ab3d26239d492e8968629f95e9e318cf0b73bfddc441522a15fd2610e25846114ef565b6040516001600160a01b03909116815260200160405180910390a25b600084815260208181526040808320546001600160401b031683526002825280832087845282528083208684529091529020610e7d8382612102565b5050505050565b6060600080306001600160a01b031684604051610ea1919061206d565b600060405180830381855afa9150503d8060008114610edc576040519150601f19603f3d011682016040523d82523d6000602084013e610ee1565b606091505b50915091508115610ef55791506104b09050565b805160208201fd5b6001600160a01b0382163303610f6c5760405162461bcd60e51b815260206004820152602960248201527f455243313135353a2073657474696e6720617070726f76616c20737461747573604482015268103337b91039b2b63360b91b60648201526084015b60405180910390fd5b3360008181526008602090815260408083206001600160a01b03871680855290835292819020805460ff191686151590811790915590519081529192917f17307eab39ab6107e8899845ad3d59bd9653f200f220920489ca2b5937696c31910160405180910390a35050565b6001600160a01b03821633036110305760405162461bcd60e51b815260206004820181905260248201527f53657474696e672064656c65676174652073746174757320666f722073656c666044820152606401610f63565b33600081815260096020908152604080832087845282528083206001600160a01b03871680855290835292819020805460ff191686151590811790915590519384529286917ff0ddb3b04746704017f9aa8bd728fcc2c1d11675041205350018915f5e4750a0910160405180910390a4505050565b6060610aea6000848461150e565b600081815260208181526040808320546001600160401b03168352600382528083208484529091529020805460609190610ca590611ecb565b816110f6816112ba565b6110ff57600080fd5b61110e83603c6102cf856116dd565b505050565b606061112084848461150e565b949350505050565b82611132816112ba565b61113b57600080fd5b600084815260208181526040808320546001600160401b031683526004825280832087845282528083206001600160e01b031987168085529083529281902080546001600160a01b0319166001600160a01b038716908117909155905190815286917f7c69f06bea0bdef565b709e93a147836b0063ba2dd89f02d0b7e8d931e6a6daa910160405180910390a350505050565b600082815260208181526040808320546001600160401b03168352600282528083208584528252808320848452909152902080546060919061120f90611ecb565b80601f016020809104026020016040519081016040528092919081815260200182805461123b90611ecb565b80156112885780601f1061125d57610100808354040283529160200191611288565b820191906000526020600020905b81548152906001019060200180831161126b57829003601f168201915b5050505050905092915050565b60006001600160e01b03198216631674750f60e21b14806104b057506104b08261170d565b6000336001600160a01b037f000000000000000000000000000000000000000000000000000000000000000016148061131b5750336001600160a01b037f000000000000000000000000000000000000000000000000000000000000000016145b1561132857506001919050565b6040516302571be360e01b8152600481018390526000907f00000000000000000000000000000000000000000000000000000000000000006001600160a01b0316906302571be390602401602060405180830381865afa158015611390573d6000803e3d6000fd5b505050506040513d601f19601f820116820180604052508101906113b491906121c1565b90507f00000000000000000000000000000000000000000000000000000000000000006001600160a01b0316816001600160a01b03160361147b576040516331a9108f60e11b8152600481018490527f00000000000000000000000000000000000000000000000000000000000000006001600160a01b031690636352211e90602401602060405180830381865afa158015611454573d6000803e3d6000fd5b505050506040513d601f19601f8201168201806040525081019061147891906121c1565b90505b6001600160a01b0381163314806114b557506001600160a01b038116600090815260086020908152604080832033845290915290205460ff165b80610aea57506001600160a01b0381166000908152600960209081526040808320868452825280832033845290915290205460ff16610aea565b600081516014146114ff57600080fd5b5060200151600160601b900490565b6060816001600160401b0381111561152857611528611adb565b60405190808252806020026020018201604052801561155b57816020015b60608152602001906001900390816115465790505b50905060005b828110156116d557841561161d57600084848381811061158357611583612089565b905060200281019061159591906121de565b6115a491602491600491612224565b6115ad9161224e565b905085811461161b5760405162461bcd60e51b815260206004820152603460248201527f6d756c746963616c6c3a20416c6c207265636f726473206d7573742068617665604482015273040c240dac2e8c6d0d2dcce40dcc2dacad0c2e6d60631b6064820152608401610f63565b505b6000803086868581811061163357611633612089565b905060200281019061164591906121de565b604051611653929190611ebb565b600060405180830381855af49150503d806000811461168e576040519150601f19603f3d011682016040523d82523d6000602084013e611693565b606091505b5091509150816116a257600080fd5b808484815181106116b5576116b5612089565b6020026020010181905250505080806116cd9061226c565b915050611561565b509392505050565b604080516014808252818301909252606091602082018180368337505050600160601b9290920260208301525090565b60006001600160e01b0319821663c869023360e01b14806104b057506104b08260006001600160e01b0319821663691f343160e01b14806104b057506104b08260006001600160e01b031982166304928c6760e21b14806104b057506104b08260006001600160e01b0319821663bc1c58d160e01b14806104b057506104b08260006001600160e01b03198216631d9dabef60e11b14806117be57506001600160e01b031982166378e5bf0360e11b145b806104b057506104b08260006001600160e01b03198216631101d5ab60e11b14806104b057506104b08260006001600160e01b0319821663d700ff3360e01b14806104b057506104b08260006001600160e01b03198216634fbf043360e01b14806104b057506301ffc9a760e01b6001600160e01b03198316146104b0565b80356001600160e01b03198116811461185557600080fd5b919050565b60006020828403121561186c57600080fd5b610aea8261183d565b60008083601f84011261188757600080fd5b5081356001600160401b0381111561189e57600080fd5b60208301915083602082850101111561090257600080fd5b6000806000806000606086880312156118ce57600080fd5b8535945060208601356001600160401b03808211156118ec57600080fd5b6118f889838a01611875565b9096509450604088013591508082111561191157600080fd5b5061191e88828901611875565b969995985093965092949392505050565b6000806040838503121561194257600080fd5b823591506119526020840161183d565b90509250929050565b6000806040838503121561196e57600080fd5b50508035926020909101359150565b60005b83811015611998578181015183820152602001611980565b50506000910152565b600081518084526119b981602086016020860161197d565b601f01601f19169290920160200192915050565b82815260406020820152600061112060408301846119a1565b6000806000606084860312156119fb57600080fd5b505081359360208301359350604090920135919050565b600080600060408486031215611a2757600080fd5b8335925060208401356001600160401b03811115611a4457600080fd5b611a5086828701611875565b9497909650939450505050565b600060208284031215611a6f57600080fd5b5035919050565b602081526000610aea60208301846119a1565b60008060008060608587031215611a9f57600080fd5b843593506020850135925060408501356001600160401b03811115611ac357600080fd5b611acf87828801611875565b95989497509550505050565b634e487b7160e01b600052604160045260246000fd5b600082601f830112611b0257600080fd5b81356001600160401b0380821115611b1c57611b1c611adb565b604051601f8301601f19908116603f01168101908282118183101715611b4457611b44611adb565b81604052838152866020858801011115611b5d57600080fd5b836020870160208301376000602085830101528094505050505092915050565b600080600060608486031215611b9257600080fd5b833592506020840135915060408401356001600160401b03811115611bb657600080fd5b611bc286828701611af1565b9150509250925092565b60008060408385031215611bdf57600080fd5b82356001600160401b0380821115611bf657600080fd5b611c0286838701611af1565b93506020850135915080821115611c1857600080fd5b50611c2585828601611af1565b9150509250929050565b6001600160a01b0381168114611c4457600080fd5b50565b8035801515811461185557600080fd5b60008060408385031215611c6a57600080fd5b8235611c7581611c2f565b915061195260208401611c47565b600080600060608486031215611c9857600080fd5b833592506020840135611caa81611c2f565b9150611cb860408501611c47565b90509250925092565b600080600060608486031215611cd657600080fd5b8335611ce181611c2f565b9250602084013591506040840135611cf881611c2f565b809150509250925092565b60008083601f840112611d1557600080fd5b5081356001600160401b03811115611d2c57600080fd5b6020830191508360208260051b850101111561090257600080fd5b60008060208385031215611d5a57600080fd5b82356001600160401b03811115611d7057600080fd5b611d7c85828601611d03565b90969095509350505050565b6000602080830181845280855180835260408601915060408160051b870101925083870160005b82811015611ddd57603f19888603018452611dcb8583516119a1565b94509285019290850190600101611daf565b5092979650505050505050565b60008060408385031215611dfd57600080fd5b823591506020830135611e0f81611c2f565b809150509250929050565b600080600060408486031215611e2f57600080fd5b8335925060208401356001600160401b03811115611e4c57600080fd5b611a5086828701611d03565b600080600060608486031215611e6d57600080fd5b83359250611e7d6020850161183d565b91506040840135611cf881611c2f565b60008060408385031215611ea057600080fd5b8235611eab81611c2f565b91506020830135611e0f81611c2f565b8183823760009101908152919050565b600181811c90821680611edf57607f821691505b602082108103611eff57634e487b7160e01b600052602260045260246000fd5b50919050565b601f82111561110e57600081815260208120601f850160051c81016020861015611f2c5750805b601f850160051c820191505b81811015611f4b57828155600101611f38565b505050505050565b6001600160401b03831115611f6a57611f6a611adb565b611f7e83611f788354611ecb565b83611f05565b6000601f841160018114611fb25760008515611f9a5750838201355b600019600387901b1c1916600186901b178355610e7d565b600083815260209020601f19861690835b82811015611fe35786850135825560209485019460019092019101611fc3565b50868210156120005760001960f88860031b161c19848701351681555b505060018560011b0183555050505050565b81835281816020850137506000828201602090810191909152601f909101601f19169091010190565b60408152600061204f604083018688612012565b8281036020840152612062818587612012565b979650505050505050565b6000825161207f81846020870161197d565b9190910192915050565b634e487b7160e01b600052603260045260246000fd5b602081526000611120602083018486612012565b634e487b7160e01b600052601160045260246000fd5b60006001600160401b038083168181036120e5576120e56120b3565b6001019392505050565b818103818111156104b0576104b06120b3565b81516001600160401b0381111561211b5761211b611adb565b61212f816121298454611ecb565b84611f05565b602080601f831160018114612164576000841561214c5750858301515b600019600386901b1c1916600185901b178555611f4b565b600085815260208120601f198616915b8281101561219357888601518255948401946001909101908401612174565b50858210156121b15787850151600019600388901b60f8161c191681555b5050505050600190811b01905550565b6000602082840312156121d357600080fd5b8151610aea81611c2f565b6000808335601e198436030181126121f557600080fd5b8301803591506001600160401b0382111561220f57600080fd5b60200191503681900382131561090257600080fd5b6000808585111561223457600080fd5b8386111561224157600080fd5b5050820193919092039150565b803560208310156104b057600019602084900360031b1b1692915050565b60006001820161227e5761227e6120b3565b506001019056fea2646970667358221220f194a7435e8fde1f2606118b0fbd8b54a5a326d2ea741df69f447dc4b59e3ed364736f6c63430008130033",
    "linkReferences": {}
  },
  "methodIdentifiers": {
    "ABI(bytes32,uint256)": "2203ab56",
    "addr(bytes32)": "3b3b57de",
    "addr(bytes32,uint256)": "f1cb7e06",
    "approve(bytes32,address,bool)": "a4b91a01",
    "clearRecords(bytes32)": "3603d758",
    "contenthash(bytes32)": "bc1c58d1",
    "interfaceImplementer(bytes32,bytes4)": "124a319c",
    "isApprovedFor(address,bytes32,address)": "a9784b3e",
    "isApprovedForAll(address,address)": "e985e9c5",
    "multicall(bytes[])": "ac9650d8",
    "multicallWithNodeCheck(bytes32,bytes[])": "e32954eb",
    "name(bytes32)": "691f3431",
    "pubkey(bytes32)": "c8690233",
    "recordVersions(bytes32)": "d700ff33",
    "resolve(bytes,bytes)": "9061b923",
    "setABI(bytes32,uint256,bytes)": "623195b0",
    "setAddr(bytes32,address)": "d5fa2b00",
    "setAddr(bytes32,uint256,bytes)": "8b95dd71",
    "setApprovalForAll(address,bool)": "a22cb465",
    "setContenthash(bytes32,bytes)": "304e6ade",
    "setInterface(bytes32,bytes4,address)": "e59d895d",
    "setName(bytes32,string)": "77372213",
    "setPubkey(bytes32,bytes32,bytes32)": "29cd62ea",
    "setText(bytes32,string,string)": "10f13a8c",
    "supportsInterface(bytes4)": "01ffc9a7",
    "text(bytes32,string)": "59d1d43c"
  },
  "id": 52
}