{
  "address": "0xCD4CC38FAc6332887141d4880078eD001fC6E2A9",
  "abi": [
    {
      "inputs": [
        {
          "internalType": "contract IENS",
          "name": "ensAddr",
          "type": "address"
        }
      ],
      "stateMutability": "nonpayable",
      "type": "constructor"
    },
    {
      "anonymous": false,
      "inputs": [
        {
          "indexed": true,
          "internalType": "address",
          "name": "controller",
          "type": "address"
        },
        {
          "indexed": false,
          "internalType": "bool",
          "name": "active",
          "type": "bool"
        }
      ],
      "name": "ControllerChanged",
      "type": "event"
    },
    {
      "anonymous": false,
      "inputs": [
        {
          "indexed": true,
          "internalType": "contract NameResolver",
          "name": "resolver",
          "type": "address"
        }
      ],
      "name": "DefaultResolverChanged",
      "type": "event"
    },
    {
      "anonymous": false,
      "inputs": [
        {
          "indexed": true,
          "internalType": "address",
          "name": "previousOwner",
          "type": "address"
        },
        {
          "indexed": true,
          "internalType": "address",
          "name": "newOwner",
          "type": "address"
        }
      ],
      "name": "OwnershipTransferred",
      "type": "event"
    },
    {
      "anonymous": false,
      "inputs": [
        {
          "indexed": true,
          "internalType": "address",
          "name": "addr",
          "type": "address"
        },
        {
          "indexed": true,
          "internalType": "bytes32",
          "name": "node",
          "type": "bytes32"
        }
      ],
      "name": "ReverseClaimed",
      "type": "event"
    },
    {
      "inputs": [
        {
          "internalType": "address",
          "name": "owner",
          "type": "address"
        }
      ],
      "name": "claim",
      "outputs": [
        {
          "internalType": "bytes32",
          "name": "",
          "type": "bytes32"
        }
      ],
      "stateMutability": "nonpayable",
      "type": "function"
    },
    {
      "inputs": [
        {
          "internalType": "address",
          "name": "addr",
          "type": "address"
        },
        {
          "internalType": "address",
          "name": "owner",
          "type": "address"
        },
        {
          "internalType": "address",
          "name": "resolver",
          "type": "address"
        }
      ],
      "name": "claimForAddr",
      "outputs": [
        {
          "internalType": "bytes32",
          "name": "",
          "type": "bytes32"
        }
      ],
      "stateMutability": "nonpayable",
      "type": "function"
    },
    {
      "inputs": [
        {
          "internalType": "address",
          "name": "owner",
          "type": "address"
        },
        {
          "internalType": "address",
          "name": "resolver",
          "type": "address"
        }
      ],
      "name": "claimWithResolver",
      "outputs": [
        {
          "internalType": "bytes32",
          "name": "",
          "type": "bytes32"
        }
      ],
      "stateMutability": "nonpayable",
      "type": "function"
    },
    {
      "inputs": [
        {
          "internalType": "address",
          "name": "",
          "type": "address"
        }
      ],
      "name": "controllers",
      "outputs": [
        {
          "internalType": "bool",
          "name": "",
          "type": "bool"
        }
      ],
      "stateMutability": "view",
      "type": "function"
    },
    {
      "inputs": [],
      "name": "defaultResolver",
      "outputs": [
        {
          "internalType": "contract NameResolver",
          "name": "",
          "type": "address"
        }
      ],
      "stateMutability": "view",
      "type": "function"
    },
    {
      "inputs": [],
      "name": "ens",
      "outputs": [
        {
          "internalType": "contract IENS",
          "name": "",
          "type": "address"
        }
      ],
      "stateMutability": "view",
      "type": "function"
    },
    {
      "inputs": [
        {
          "internalType": "address",
          "name": "addr",
          "type": "address"
        }
      ],
      "name": "node",
      "outputs": [
        {
          "internalType": "bytes32",
          "name": "",
          "type": "bytes32"
        }
      ],
      "stateMutability": "pure",
      "type": "function"
    },
    {
      "inputs": [],
      "name": "owner",
      "outputs": [
        {
          "internalType": "address",
          "name": "",
          "type": "address"
        }
      ],
      "stateMutability": "view",
      "type": "function"
    },
    {
      "inputs": [],
      "name": "renounceOwnership",
      "outputs": [],
      "stateMutability": "nonpayable",
      "type": "function"
    },
    {
      "inputs": [
        {
          "internalType": "address",
          "name": "controller",
          "type": "address"
        },
        {
          "internalType": "bool",
          "name": "active",
          "type": "bool"
        }
      ],
      "name": "setController",
      "outputs": [],
      "stateMutability": "nonpayable",
      "type": "function"
    },
    {
      "inputs": [
        {
          "internalType": "address",
          "name": "resolver",
          "type": "address"
        }
      ],
      "name": "setDefaultResolver",
      "outputs": [],
      "stateMutability": "nonpayable",
      "type": "function"
    },
    {
      "inputs": [
        {
          "internalType": "string",
          "name": "name",
          "type": "string"
        }
      ],
      "name": "setName",
      "outputs": [
        {
          "internalType": "bytes32",
          "name": "",
          "type": "bytes32"
        }
      ],
      "stateMutability": "nonpayable",
      "type": "function"
    },
    {
      "inputs": [
        {
          "internalType": "address",
          "name": "addr",
          "type": "address"
        },
        {
          "internalType": "address",
          "name": "owner",
          "type": "address"
        },
        {
          "internalType": "address",
          "name": "resolver",
          "type": "address"
        },
        {
          "internalType": "string",
          "name": "name",
          "type": "string"
        }
      ],
      "name": "setNameForAddr",
      "outputs": [
        {
          "internalType": "bytes32",
          "name": "",
          "type": "bytes32"
        }
      ],
      "stateMutability": "nonpayable",
      "type": "function"
    },
    {
      "inputs": [
        {
          "internalType": "address",
          "name": "newOwner",
          "type": "address"
        }
      ],
      "name": "transferOwnership",
      "outputs": [],
      "stateMutability": "nonpayable",
      "type": "function"
    }
  ],
  "bytecode": {
    "object": "0x60a06040523480156200001157600080fd5b5060405162001002380380620010028339810160408190526200003491620001c4565b6200003f336200015b565b6001600160a01b03811660808190526040516302571be360e01b81527f91d1777781884d03a6757a803996e38de2a42967fb37eeaca72729271025a9e26004820152600091906302571be390602401602060405180830381865afa158015620000ac573d6000803e3d6000fd5b505050506040513d601f19601f82011682018060405250810190620000d29190620001c4565b90506001600160a01b038116156200015357604051630f41a04d60e11b81523360048201526001600160a01b03821690631e83409a906024016020604051808303816000875af11580156200012b573d6000803e3d6000fd5b505050506040513d601f19601f82011682018060405250810190620001519190620001eb565b505b505062000205565b600080546001600160a01b038381166001600160a01b0319831681178455604051919092169283917f8be0079c531659141344cd1fd0a4f28419497f9722a3daafe3b4186f6b6457e09190a35050565b6001600160a01b0381168114620001c157600080fd5b50565b600060208284031215620001d757600080fd5b8151620001e481620001ab565b9392505050565b600060208284031215620001fe57600080fd5b5051919050565b608051610dd36200022f6000396000818161012d015281816102d701526105690152610dd36000f3fe608060405234801561001057600080fd5b50600436106100ea5760003560e01c80638da5cb5b1161008c578063c66485b211610066578063c66485b2146101e1578063da8c229e146101f4578063e0dba60f14610227578063f2fde38b1461023a57600080fd5b80638da5cb5b146101aa578063bffbe61c146101bb578063c47f0027146101ce57600080fd5b806365669631116100c85780636566963114610167578063715018a61461017a5780637a806d6b14610184578063828eab0e1461019757600080fd5b80630f5a5466146100ef5780631e83409a146101155780633f15457f14610128575b600080fd5b6101026100fd366004610abf565b61024d565b6040519081526020015b60405180910390f35b610102610123366004610af8565b610261565b61014f7f000000000000000000000000000000000000000000000000000000000000000081565b6040516001600160a01b03909116815260200161010c565b610102610175366004610b15565b610283565b6101826105d0565b005b610102610192366004610c03565b6105e4565b60025461014f906001600160a01b031681565b6000546001600160a01b031661014f565b6101026101c9366004610af8565b61065f565b6101026101dc366004610c78565b6106ba565b6101826101ef366004610af8565b6106d7565b610217610202366004610af8565b60016020526000908152604090205460ff1681565b604051901515815260200161010c565b610182610235366004610cc3565b610798565b610182610248366004610af8565b6107ff565b600061025a338484610283565b9392505050565b60025460009061027d90339084906001600160a01b0316610283565b92915050565b6000836001600160a01b0381163314806102ac57503360009081526001602052604090205460ff165b80610342575060405163e985e9c560e01b81526001600160a01b0382811660048301523360248301527f0000000000000000000000000000000000000000000000000000000000000000169063e985e9c590604401602060405180830381865afa15801561031e573d6000803e3d6000fd5b505050506040513d601f19601f820116820180604052508101906103429190610cf1565b80610351575061035181610878565b6103ee5760405162461bcd60e51b815260206004820152605b60248201527f526576657273655265676973747261723a2043616c6c6572206973206e6f742060448201527f6120636f6e74726f6c6c6572206f7220617574686f726973656420627920616460648201527f6472657373206f7220746865206164647265737320697473656c660000000000608482015260a4015b60405180910390fd5b60006103f9866108f1565b604080517f91d1777781884d03a6757a803996e38de2a42967fb37eeaca72729271025a9e260208201529081018290529091506000906060016040516020818303038152906040528051906020012090506104886040518060400160405280601981526020017f636c61696d466f72416464723a3a726576657273654e6f646500000000000000815250610957565b6104918161099a565b6104cf6040518060400160405280601781526020017f636c61696d466f72416464723a3a6c6162656c48617368000000000000000000815250610957565b6104d88261099a565b60405181906001600160a01b038916907f6ada868dd3058cf77a48a74489fd7963688e5464b2b0fa957ace976243270e9290600090a36040516305ef2c7f60e41b81527f91d1777781884d03a6757a803996e38de2a42967fb37eeaca72729271025a9e26004820152602481018390526001600160a01b0387811660448301528681166064830152600060848301527f00000000000000000000000000000000000000000000000000000000000000001690635ef2c7f09060a401600060405180830381600087803b1580156105ad57600080fd5b505af11580156105c1573d6000803e3d6000fd5b50929998505050505050505050565b6105d86109df565b6105e26000610a39565b565b6000806105f2868686610283565b604051637737221360e01b81529091506001600160a01b038516906377372213906106239084908790600401610d54565b600060405180830381600087803b15801561063d57600080fd5b505af1158015610651573d6000803e3d6000fd5b509298975050505050505050565b60007f91d1777781884d03a6757a803996e38de2a42967fb37eeaca72729271025a9e261068b836108f1565b604080516020810193909352820152606001604051602081830303815290604052805190602001209050919050565b60025460009061027d90339081906001600160a01b0316856105e4565b6106df6109df565b6001600160a01b03811661074e5760405162461bcd60e51b815260206004820152603060248201527f526576657273655265676973747261723a205265736f6c76657220616464726560448201526f07373206d757374206e6f7420626520360841b60648201526084016103e5565b600280546001600160a01b0319166001600160a01b0383169081179091556040517feae17a84d9eb83d8c8eb317f9e7d64857bc363fa51674d996c023f4340c577cf90600090a250565b6107a06109df565b6001600160a01b038216600081815260016020908152604091829020805460ff191685151590811790915591519182527f4c97694570a07277810af7e5669ffd5f6a2d6b74b6e9a274b8b870fd5114cf87910160405180910390a25050565b6108076109df565b6001600160a01b03811661086c5760405162461bcd60e51b815260206004820152602660248201527f4f776e61626c653a206e6577206f776e657220697320746865207a65726f206160448201526564647265737360d01b60648201526084016103e5565b61087581610a39565b50565b6000816001600160a01b0316638da5cb5b6040518163ffffffff1660e01b8152600401602060405180830381865afa9250505080156108d4575060408051601f3d908101601f191682019092526108d191810190610d6d565b60015b6108e057506000919050565b6001600160a01b0316331492915050565b600060285b801561094b57600019016f181899199a1a9b1b9c1cb0b131b232b360811b600f84161a8153601090920491600019016f181899199a1a9b1b9c1cb0b131b232b360811b600f84161a81536010830492506108f6565b50506028600020919050565b6108758160405160240161096b9190610d8a565b60408051601f198184030181529190526020810180516001600160e01b031663104c13eb60e21b179052610a89565b610875816040516024016109b091815260200190565b60408051601f198184030181529190526020810180516001600160e01b03166327b7cf8560e01b179052610a89565b6000546001600160a01b031633146105e25760405162461bcd60e51b815260206004820181905260248201527f4f776e61626c653a2063616c6c6572206973206e6f7420746865206f776e657260448201526064016103e5565b600080546001600160a01b038381166001600160a01b0319831681178455604051919092169283917f8be0079c531659141344cd1fd0a4f28419497f9722a3daafe3b4186f6b6457e09190a35050565b80516a636f6e736f6c652e6c6f67602083016000808483855afa5050505050565b6001600160a01b038116811461087557600080fd5b60008060408385031215610ad257600080fd5b8235610add81610aaa565b91506020830135610aed81610aaa565b809150509250929050565b600060208284031215610b0a57600080fd5b813561025a81610aaa565b600080600060608486031215610b2a57600080fd5b8335610b3581610aaa565b92506020840135610b4581610aaa565b91506040840135610b5581610aaa565b809150509250925092565b634e487b7160e01b600052604160045260246000fd5b600082601f830112610b8757600080fd5b813567ffffffffffffffff80821115610ba257610ba2610b60565b604051601f8301601f19908116603f01168101908282118183101715610bca57610bca610b60565b81604052838152866020858801011115610be357600080fd5b836020870160208301376000602085830101528094505050505092915050565b60008060008060808587031215610c1957600080fd5b8435610c2481610aaa565b93506020850135610c3481610aaa565b92506040850135610c4481610aaa565b9150606085013567ffffffffffffffff811115610c6057600080fd5b610c6c87828801610b76565b91505092959194509250565b600060208284031215610c8a57600080fd5b813567ffffffffffffffff811115610ca157600080fd5b610cad84828501610b76565b949350505050565b801515811461087557600080fd5b60008060408385031215610cd657600080fd5b8235610ce181610aaa565b91506020830135610aed81610cb5565b600060208284031215610d0357600080fd5b815161025a81610cb5565b6000815180845260005b81811015610d3457602081850181015186830182015201610d18565b506000602082860101526020601f19601f83011685010191505092915050565b828152604060208201526000610cad6040830184610d0e565b600060208284031215610d7f57600080fd5b815161025a81610aaa565b60208152600061025a6020830184610d0e56fea2646970667358221220157f86b3db3c2ad0f4c68d35fd5a5f3d2857dcf4400ac76b311d966b1b1f122664736f6c63430008130033",
    "linkReferences": {}
  },
  "methodIdentifiers": {
    "claim(address)": "1e83409a",
    "claimForAddr(address,address,address)": "65669631",
    "claimWithResolver(address,address)": "0f5a5466",
    "controllers(address)": "da8c229e",
    "defaultResolver()": "828eab0e",
    "ens()": "3f15457f",
    "node(address)": "bffbe61c",
    "owner()": "8da5cb5b",
    "renounceOwnership()": "715018a6",
    "setController(address,bool)": "e0dba60f",
    "setDefaultResolver(address)": "c66485b2",
    "setName(string)": "c47f0027",
    "setNameForAddr(address,address,address,string)": "7a806d6b",
    "transferOwnership(address)": "f2fde38b"
  },
  "id": 93
}