{
  "abi": [
    {
      "inputs": [
        {
          "internalType": "contract INameWrapper",
          "name": "_nameWrapper",
          "type": "address"
        }
      ],
      "stateMutability": "nonpayable",
      "type": "constructor"
    },
    {
      "inputs": [
        {
          "internalType": "uint256",
          "name": "parentTokenId",
          "type": "uint256"
        },
        {
          "internalType": "uint256",
          "name": "subdomainId",
          "type": "uint256"
        },
        {
          "internalType": "address",
          "name": "subdomainOwner",
          "type": "address"
        },
        {
          "internalType": "string",
          "name": "subdomainLabel",
          "type": "string"
        }
      ],
      "name": "add",
      "outputs": [],
      "stateMutability": "nonpayable",
      "type": "function"
    },
    {
      "inputs": [
        {
          "internalType": "uint256",
          "name": "parentTokenId",
          "type": "uint256"
        }
      ],
      "name": "getAll",
      "outputs": [
        {
          "components": [
            {
              "internalType": "uint256",
              "name": "id",
              "type": "uint256"
            },
            {
              "internalType": "address",
              "name": "owner",
              "type": "address"
            },
            {
              "internalType": "string",
              "name": "label",
              "type": "string"
            }
          ],
          "internalType": "struct ISubdomainTracker.Data[]",
          "name": "data",
          "type": "tuple[]"
        },
        {
          "internalType": "uint256",
          "name": "length",
          "type": "uint256"
        }
      ],
      "stateMutability": "view",
      "type": "function"
    },
    {
      "inputs": [
        {
          "internalType": "uint256",
          "name": "",
          "type": "uint256"
        },
        {
          "internalType": "uint256",
          "name": "",
          "type": "uint256"
        }
      ],
      "name": "subdomains",
      "outputs": [
        {
          "internalType": "uint256",
          "name": "id",
          "type": "uint256"
        },
        {
          "internalType": "address",
          "name": "owner",
          "type": "address"
        },
        {
          "internalType": "string",
          "name": "label",
          "type": "string"
        }
      ],
      "stateMutability": "view",
      "type": "function"
    }
  ],
  "bytecode": {
    "object": "0x60a060405234801561001057600080fd5b50604051610a95380380610a9583398101604081905261002f91610040565b6001600160a01b0316608052610070565b60006020828403121561005257600080fd5b81516001600160a01b038116811461006957600080fd5b9392505050565b6080516109fc6100996000396000818161014d0152818161032e015261051e01526109fc6000f3fe608060405234801561001057600080fd5b50600436106100415760003560e01c80633c077a48146100465780639789da0014610070578063e1ab925c14610092575b600080fd5b610059610054366004610616565b6100a7565b604051610067929190610675565b60405180910390f35b61008361007e366004610703565b61043d565b60405161006793929190610725565b6100a56100a0366004610770565b610513565b005b6000818152602081905260408120546060919067ffffffffffffffff8111156100d2576100d2610806565b60405190808252806020026020018201604052801561011f57816020015b604080516060808201835260008083526020830152918101919091528152602001906001900390816100f05790505b50915060005b60008481526020819052604090205481101561043757600084815260208190526040812080547f00000000000000000000000000000000000000000000000000000000000000006001600160a01b031691636352211e918590811061018c5761018c61081c565b9060005260206000209060030201600001546040518263ffffffff1660e01b81526004016101bc91815260200190565b602060405180830381865afa1580156101d9573d6000803e3d6000fd5b505050506040513d601f19601f820116820180604052508101906101fd9190610832565b6001600160a01b03161461042757600084815260208190526040902080548290811061022b5761022b61081c565b9060005260206000209060030201604051806060016040529081600082015481526020016001820160009054906101000a90046001600160a01b03166001600160a01b03166001600160a01b0316815260200160028201805461028d90610856565b80601f01602080910402602001604051908101604052809291908181526020018280546102b990610856565b80156103065780601f106102db57610100808354040283529160200191610306565b820191906000526020600020905b8154815290600101906020018083116102e957829003601f168201915b5050505050815250508383815181106103215761032161081c565b60200260200101819052507f00000000000000000000000000000000000000000000000000000000000000006001600160a01b0316636352211e600080878152602001908152602001600020838154811061037e5761037e61081c565b9060005260206000209060030201600001546040518263ffffffff1660e01b81526004016103ae91815260200190565b602060405180830381865afa1580156103cb573d6000803e3d6000fd5b505050506040513d601f19601f820116820180604052508101906103ef9190610832565b8383815181106104015761040161081c565b6020908102919091018101516001600160a01b0390921691015261042482610890565b91505b61043081610890565b9050610125565b50915091565b6000602052816000526040600020818154811061045957600080fd5b60009182526020909120600390910201805460018201546002830180549295506001600160a01b0390911693509061049090610856565b80601f01602080910402602001604051908101604052809291908181526020018280546104bc90610856565b80156105095780601f106104de57610100808354040283529160200191610509565b820191906000526020600020905b8154815290600101906020018083116104ec57829003601f168201915b5050505050905083565b336001600160a01b037f0000000000000000000000000000000000000000000000000000000000000000161461054857600080fd5b6000808681526020019081526020016000206040518060600160405280868152602001856001600160a01b0316815260200184848080601f016020809104026020016040519081016040528093929190818152602001838380828437600092018290525093909452505083546001808201865594825260209182902084516003909202019081559083015193810180546001600160a01b0319166001600160a01b0390951694909417909355506040810151909190600282019061060c9082610906565b5050505050505050565b60006020828403121561062857600080fd5b5035919050565b6000815180845260005b8181101561065557602081850181015186830182015201610639565b506000602082860101526020601f19601f83011685010191505092915050565b60006040808301818452808651808352606092508286019150828160051b8701016020808a0160005b848110156106ee57898403605f19018652815180518552838101516001600160a01b0316848601528801518885018890526106db8886018261062f565b968401969450509082019060010161069e565b50509690960196909652509295945050505050565b6000806040838503121561071657600080fd5b50508035926020909101359150565b8381526001600160a01b038316602082015260606040820181905260009061074f9083018461062f565b95945050505050565b6001600160a01b038116811461076d57600080fd5b50565b60008060008060006080868803121561078857600080fd5b853594506020860135935060408601356107a181610758565b9250606086013567ffffffffffffffff808211156107be57600080fd5b818801915088601f8301126107d257600080fd5b8135818111156107e157600080fd5b8960208285010111156107f357600080fd5b9699959850939650602001949392505050565b634e487b7160e01b600052604160045260246000fd5b634e487b7160e01b600052603260045260246000fd5b60006020828403121561084457600080fd5b815161084f81610758565b9392505050565b600181811c9082168061086a57607f821691505b60208210810361088a57634e487b7160e01b600052602260045260246000fd5b50919050565b6000600182016108b057634e487b7160e01b600052601160045260246000fd5b5060010190565b601f82111561090157600081815260208120601f850160051c810160208610156108de5750805b601f850160051c820191505b818110156108fd578281556001016108ea565b5050505b505050565b815167ffffffffffffffff81111561092057610920610806565b6109348161092e8454610856565b846108b7565b602080601f83116001811461096957600084156109515750858301515b600019600386901b1c1916600185901b1785556108fd565b600085815260208120601f198616915b8281101561099857888601518255948401946001909101908401610979565b50858210156109b65787850151600019600388901b60f8161c191681555b5050505050600190811b0190555056fea2646970667358221220dde7e4a4165940aa5aff5c399174a270070c92ea4abf7e2910b524dc3e622fe864736f6c63430008120033",
    "linkReferences": {}
  },
  "methodIdentifiers": {
    "add(uint256,uint256,address,string)": "e1ab925c",
    "getAll(uint256)": "3c077a48",
    "subdomains(uint256,uint256)": "9789da00"
  },
  "id": 67
}